:020000040800F2
:10000000C0070020CD010008AF110008B91000089A
:10001000AD110008D30200080D1400080000000014
:10002000000000000000000000000000B311000804
:10003000D502000800000000B1110008B511000849
:10004000E7010008E7010008E7010008E7010008F0
:10005000E7010008E7010008E7010008E7010008E0
:10006000E7010008E7010008E7010008E7010008D0
:10007000E7010008E7010008E7010008E7010008C0
:10008000E7010008E7010008E7010008E7010008B0
:10009000E7010008E7010008E7010008E7010008A0
:1000A000E7010008E7010008E7010008E701000890
:1000B000E7010008E7010008E7010008E701000880
:1000C000E7010008E7010008E7010008E701000870
:1000D000E701000801140008E7010008E701000833
:1000E000E7010008E7010008E7010008E701000850
:1000F000E7010008E7010008E7010008E701000840
:10010000E7010008E7010008E7010008E70100082F
:10011000E7010008E7010008E7010008E70100081F
:10012000E7010008E7010008E7010008E70100080F
:1001300000F002F800F03AF80AA090E8000C8244BF
:100140008344AAF10107DA4501D100F02FF8AFF29C
:10015000090EBAE80F0013F0010F18BFFB1A43F0A5
:10016000010318472413000044130000103A24BF71
:1001700078C878C1FAD8520724BF30C830C144BF0C
:1001800004680C607047000000230024002500264E
:10019000103A28BF78C1FBD8520728BF30C148BFEA
:1001A0000B6070471FB51FBD10B510BD00F058F8AB
:1001B0001146FFF7F7FF01F03BF900F076F803B4C2
:1001C000FFF7F2FF03BC00F07DF80000094880470C
:1001D00009480047FEE7FEE7FEE7FEE7FEE7FEE729
:1001E000FEE7FEE7FEE7FEE704480549054A064B41
:1001F000704700001712000831010008C0010020FC
:10020000C0070020C0030020C00300204FF0000200
:1002100000B5134694469646203922BFA0E80C50FC
:10022000A0E80C50B1F12001BFF4F7AF090728BFD7
:10023000A0E80C5048BF0CC05DF804EB890028BF53
:1002400040F8042B08BF704748BF20F8022B11F07C
:10025000804F18BF00F8012B7047704770477047F8
:10026000754600F02BF8AE4605006946534620F06F
:100270000700854618B020B5FFF7B6FFBDE820405F
:100280004FF000064FF000074FF000084FF0000B52
:1002900021F00701AC46ACE8C009ACE8C009ACE805
:1002A000C009ACE8C0098D46704710B50446AFF3ED
:1002B00000802046BDE81040FFF781BF004870472E
:1002C0006001002001491820ABBEFEE726000200B5
:1002D0007047FEE7704772B6FEE710B590F8211040
:1002E0000022022905D00421816380F8202001200A
:1002F00010BD01680B6823F00E030B6001680B68EA
:1003000023F001030B6090F84030C46B012101FA27
:1003100003F3636080F8211080F82020104610BDA0
:100320002DE9F05F90F821100024022903D0042168
:100330008163012485E001680A6822F00E020A60E8
:1003400001680A6822F001020A603F4E3E4FB21572
:10035000DFF8F4C0DFF8F090DFF8ECA0DFF8E8B0E9
:10036000DFF8E4E00168783F13011502ACF1640C9A
:10037000A9F15009AAF13C0AABF1280BAEF1140E19
:100380004FF48018B14227D9B9420ED0614512D03E
:1003900049451DD0514518D0594518D0714501D156
:1003A000424615E0294EB14201D1012210E0274E0C
:1003B0001436B14201D110220AE0244E2836B1424F
:1003C00006D0224A3C32914201D11A4600E02A4628
:1003D0001E49091F0A602BE0B94213D0614517D0AE
:1003E000494522D051451DD059451DD0714501D1F7
:1003F00042461AE0B14202D14FF0807215E0134E2E
:10040000B14201D1012210E0104E1436B14201D1A7
:1004100010220AE00D4E2836B14206D00B4A3C327B
:10042000914201D11A4600E02A46074980394A60C4
:10043000012180F82110002180F82010416B01B1CA
:1004400088472046BDE8F09F800002400804024033
:1004500070B5044600F010F90546601C02D004484F
:100460000078044400F008F9401BA042FAD370BDA4
:10047000000000202DE9F84FDFF8C891002409F1B1
:10048000040A0AF1040B23460F270BF1040ED1E0F6
:100490000125A54006EA0502AA4276D1DFF8A8C1E7
:1004A0004E68A6EB0C0866452BD00DDC032E34D02D
:1004B00005DC36B3012E19D0022E2FD11BE0112EF0
:1004C00016D0122E2AD119E0B8F5881F19D006DCF3
:1004D000B8F5803F15D0B8F5801F1FD111E0B8F5F1
:1004E000001F0ED0B8F5041F18D10AE0CB6815E044
:1004F000CB681B1D12E0CB6808330FE0CB680C33D0
:100500000CE08B682BB1012B4FF0080303D0456141
:1005100004E0042302E0056100E00023FF2A01D883
:10052000064601E000F104064FEA840501D9A5F171
:100530002005D6F8008007FA05FC28EA0C0803FA23
:1005400005F548EA0508C6F800804D68ED0070D54D
:100550003E4DAE6946F00106AE61AD6924F003067A
:1005600005F0010500953A4D06EB050CDCF8085046
:10057000A607360F07FA06F825EA0805DFF8D48043
:10058000404503D14FF0000825E052E0DFF8C88075
:10059000404502D14FF001081DE0DFF8C080404522
:1005A00002D14FF0020816E0DFF8B480404502D1D6
:1005B0004FF003080FE0DFF8AC80404502D14FF068
:1005C000040808E0DFF8A080404502D14FF005089C
:1005D00001E04FF0060808FA06F848EA0508CCF8EA
:1005E00008804D68D9F80060ED034D4601D51643EB
:1005F00000E096432E604D68DAF80060AD03554682
:1006000001D5164300E096432E604D68DBF800608C
:10061000ED025D4601D5164300E096432E604D681D
:10062000DEF80060AD02754601D5164300E0964342
:100630002E60641C0A681646E2407FF429AFBDE8CC
:10064000F88F00000004014000001110001002406B
:100650000000014000080140000C01400010014072
:100660000014014000180140001C01400AB1016162
:1006700070470904FBE700000148806870470000EC
:1006800000000020024881680278114481607047B0
:1006900000000020074810B5016841F0100101601A
:1006A000032000F075F80F2000F006F800F024F8A1
:1006B000002010BD0020024070B50D4D04464FF4DF
:1006C0007A712878B1FBF0F00A490968B1FBF0F0C3
:1006D00000F0ECFA48B9102C07D200222146501E37
:1006E00000F036F800206C6070BD012070BD000085
:1006F000000000200C0000200C4808B5816941F082
:1007000001018161816901F001010091C16941F03C
:100710008051C161C06900F0805000900448416878
:1007200021F0E06141F00071416008BD001002401D
:1007300000000140002809DB00F01F020121914068
:100740004009800000F1E020C0F80011704700006F
:10075000F0B40E4B1B680C46C3F30223C3F107052C
:10076000042D00D90425191D072901D2002300E01A
:10077000DB1E012606FA05F1491E214099409E40E4
:10078000761E16403143F0BC00F041BE0CED00E097
:10079000064900F0070208684FF6FF03184040EAD8
:1007A0000220034A10430860704700000CED00E08F
:1007B0000000FA052DE9F0470F46050061D0434ED1
:1007C000306800F00700B84209D2306820F0070016
:1007D00038433060306800F00700B84251D12868D3
:1007E0003B4C810712D5400703D5606840F4E060B8
:1007F00060602878000703D5606840F4605060604E
:100800006068A96820F0F000084360602878C0079D
:1008100028D06868012810D02168022810D08907E4
:1008200000292EDA616821F0030101436160FFF7BE
:1008300023FF804641F288390DE021688903EFE704
:100840008901EDE7FFF718FFA0EB0801494502D940
:100850000320BDE8F0876068696800F00C00B0EB29
:10086000810FEFD1306800F00700B8420BD9306833
:1008700020F0070038433060306800F00700B842CD
:1008800001D00120E5E72878400705D56068E968D0
:1008900020F4E060084360602878000706D56068AF
:1008A000296920F4605040EAC100606000F038F827
:1008B0006168084AC1F30311515CC84006490860E9
:1008C00006480068FFF7F8FE0020C2E7002002405B
:1008D00000100240701400080C00002004000020EA
:1008E0000448054900684968044AC1F30221515C83
:1008F000C84070470C00002000100240801400081F
:100900000448054900684968044AC1F3C221515CA2
:10091000C84070470C0000200010024080140008FE
:1009200012A185B00FC98DE80F0014A0144A006809
:1009300004905168134801F00C03042B10D0082BCD
:100940000ED1C1F38343C9031DF803000AD55168D2
:1009500004AAC1F34041515C0A4A5043B0FBF1F094
:1009600005B0704708494843FAE700000203040550
:10097000060708090A0B0C0D0E0F101001020000EB
:100980000010024000127A0000093D002DE9F84FE6
:10099000040070D02078C04DC00749D06868C0F30B
:1009A0008100012807D06868C0F38100022809D1BE
:1009B0006868C00306D52868800339D560680028B8
:1009C000E7D035E06068B0F5803F0BD010B1B0F5EE
:1009D000A02F11D0286820F480302860286820F4E7
:1009E000802002E0286840F480302860606890B180
:1009F000FFF742FE06460AE0286840F4802028609F
:100A0000F0E700BFFFF738FE801B642873D8286822
:100A10008003F7D50CE0FFF72FFE064605E000BF88
:100A2000FFF72AFE801B6428F0D828688003F7D4DB
:100A300020789A4E80074FF001094FF0000839D511
:100A4000686810F00C0F07D06868C0F381000228B6
:100A500009D16868C00306D42868800714D52069C6
:100A6000012808D110E02069B0B1C6F80090FFF766
:100A700003FE074605E00AE1FFF7FEFDC01B022862
:100A8000C4D828688007F7D52868616920F0F80085
:100A900040EAC10028600DE0C6F80080FFF7ECFDD9
:100AA000074604E0FFF7E8FDC01B022823D82868AA
:100AB0008007F7D4207800072CD57948A169D9B1EF
:100AC000C0F80090FFF7D8FD074604E0FFF7D4FD1B
:100AD000C01B02280FD8686A8007F7D571484FF409
:100AE000FA510068B0FBF1F0009000BF0098411E81
:100AF0000091FAD20EE080E0C0F80080FFF7BCFD64
:100B0000074604E0FFF7B8FDC01B022875D8686AE5
:100B10008007F7D42078400760D5E8690027C00037
:100B200008D4E86940F08050E861E869012700F0E6
:100B3000805000905C480168C90513D40168834661
:100B400041F480710160FFF797FD824606E000BF27
:100B5000FFF792FDA0EB0A0064284ED8DBF80000F6
:100B6000C005F5D5E06801280AD008B1052813D0E2
:100B7000286A20F001002862286A20F0040002E0C0
:100B8000286A40F001002862E06841F2883B98B191
:100B9000FFF772FD82460BE0286A40F004002862ED
:100BA000EEE700BFFFF768FDA0EB0A0159455AD8F0
:100BB000286A8007F6D50CE0FFF75EFD824605E067
:100BC000FFF75AFDA0EB0A0159454CD8286A800767
:100BD000F6D41FB1E86920F08050E861E06988B37D
:100BE0006968C1F38101022944D00228C6F86080F7
:100BF00004D0FFF741FD044638E034E0FFF73CFD48
:100C0000074604E0FFF738FDC01B02282BD82868F0
:100C10008001F7D4206AB0F5803F05D16868A168EB
:100C200020F4003008436860D4E90801084369688B
:100C300021F4741108436860C6F86090FFF71CFD4A
:100C4000044606E025E000BFFFF716FD001B022862
:100C500009D828688001F7D51BE000BFFFF70CFD1D
:100C6000001B022802D90320BDE8F88F2868800104
:100C7000F4D40EE00128F7D06868226A00F48031CD
:100C8000914204D1616A00F47010884201D00120C1
:100C9000EAE70020E8E700000010024000004242BE
:100CA000800442420C0000200070004010B5401E3D
:100CB000B0F1807F01D3012010BD4FF0E0246061CE
:100CC0000F21601700F0A3FB0020A0610720206126
:100CD000002010BD70477047F8B5026804461068E0
:100CE000D168536910F00F0F4FF0000553D003F097
:100CF000010601F4907737435FD0C20705D0CA05DB
:100D000003D5226C42F001022264420705D5DA07BE
:100D100003D0226C42F002022264820705D5DA0772
:100D200003D0226C42F004022264020707D501F0CE
:100D30002002324303D0226C42F008022264226C6B
:100D4000002A34D0800604D5880602D5204600F05B
:100D500083FA20684069216CC0F38010090700D431
:100D600030B3204600F060FA2068416949061BD57F
:100D7000416921F040014161A06BA8B1584941632C
:100D8000A06BFFF7CDFA002811D0A06B416B01B02A
:100D9000BDE8F040084783060FD58B060DD52046E9
:100DA000BDE8F84000F058BA2046FFF794FFF8BDC0
:100DB0002046FFF790FF2564F8BD266B2023012E07
:100DC00052D1C60650D5CE064ED510685068009058
:100DD000506940062AD5A16B086840680004000CE1
:100DE000EAD0A68D8642E7D9E0858869202818D008
:100DF000D06820F48070D0602068416921F0010142
:100E000041612068416921F04001416184F83E3030
:100E100025632068C16821F01001C160A06BFFF755
:100E20005CFAA08DE18D401A81B219E0A08DE18DB0
:100E3000401A81B2E08D0028BED00029BCD0D06815
:100E400020F49070D0602068426922F00102426173
:100E500084F83E3025632068C26822F01002C26028
:100E60002046FFF737FFF8BD05062BD50D0629D51F
:100E700094F83D002128F6D1A068B0F5805F01D13B
:100E80002069B0B1206A411C216221680078486065
:100E9000E08C401E0004000CE084E4D12068C168AE
:100EA00021F08001C1602068C16841F04001C1604B
:100EB000F8BD206A0088C0F308005060206A801CDA
:100EC0002062E5E74006F3D54806F1D5D168204613
:100ED00021F04001D16084F83D3000F0ECF8F8BD1D
:100EE0001912000870B5040004D094F83D000025E4
:100EF00010B106E0012070BD84F83C50204600F09F
:100F000023F8242084F83D002068C16821F40051B2
:100F1000C160204600F0FCF92068016921F490418D
:100F200001612068416921F02A0141612068C1689E
:100F300041F40051C1602564202084F83D0084F80C
:100F40003E00002070BD000070B586B00024009403
:100F500001940294039403682B482A4E0221032231
:100F60000515B34229D1836943F4804383618369C2
:100F700003F480430493836943F00403836180692D
:100F8000224E00F0040004900802CDE90001039213
:100F900069463046FFF76EFACDE90054694630469F
:100FA0000294FFF767FA002211462520FFF7D0FBD5
:100FB0002520FFF7BFFB06B070BD154EB342FAD136
:100FC000C36943F48023C361C36903F4802304939A
:100FD000836943F0080383618069CDE9005100F023
:100FE0000800CDE903200B4D69462846FFF742FA79
:100FF000E814CDE90004694628460294FFF73AFA5E
:10100000D9E700000038014000100240000801400C
:1010100000480040000C014090F83E30202B0ED1DB
:1010200059B152B190F83C30012B08D0012380F81F
:101030003C300023036300F0C7B901207047022051
:101040007047000010B504460068084988420BD17B
:10105000C8220749074800F00FF82046BDE81040B5
:10106000C8220349FFF7D8BF10BD00000038014077
:10107000100000201C01002090F83D30202B18D1DA
:10108000A9B1A2B190F83C30012B12D00162828448
:10109000C28400210164212280F83D2080F83C10A8
:1010A0000068C16841F08001C160002070470120E4
:1010B0007047022070477047FEE7000070B586B0A9
:1010C00000241C480094019402940394816941F027
:1010D00010018161816901F010010491816941F081
:1010E00020018161816901F020010491816941F051
:1010F00008018161816901F008010491816941F071
:101100000401816180690C4E00F004004FF4807589
:101110000490002229463046FFF7A8FA01200095E6
:10112000CDE901040220039069463046FFF7A2F999
:1011300006B070BD00100240000801400C4810B518
:101140000A4901604FF416514160002181600C2270
:10115000C160C0E904128161C161FFF7C3FE0028CC
:1011600003D0BDE81040FFF7B6B810BD003801400D
:10117000D80000200C4810B50A4901604FF4E13155
:101180004160002181600C22C160C0E904128161CC
:10119000C161FFF7A7FE002803D0BDE81040FFF7AC
:1011A0009AB810BD004800401C010020FEE7FEE791
:1011B00070477047FFF766BA30B58FB02821684690
:1011C000FFF724F814210AA8FFF720F801210804EA
:1011D000CDE900100024029402250491CDE90750C6
:1011E0004FF4E01009906846FFF7D0FB08B172B6E3
:1011F000FEE70F20CDE90A054FF48060CDE90C40F1
:1012000002210AA80E94FFF7D5FA002801D072B681
:10121000FEE70FB030BD704710B5406A0021C185B0
:10122000C184FFF758FD10BD0168CA6822F49072AE
:10123000CA6001684A6922F001024A61016B012912
:1012400004D10168CA6822F01002CA60202180F827
:101250003E1000210163704708B590F83E10222926
:1012600001D0022008BD82684FF480539A4201D118
:10127000016921B1816A9A421BD04AB10AE0026831
:10128000816A5268C2F308020A80816A891C08E0F8
:10129000026972B10268526802F07F020A70816AC4
:1012A000491C8162C18D491E0904090CC18503D006
:1012B00019E002685268F1E70168CA6822F020026A
:1012C000CA600168CA6822F48072CA6001684A690B
:1012D00022F001024A61202180F83E10016B0129B1
:1012E00003D0FFF7AFFE002008BD002101630168B5
:1012F000CA6822F01002CA6001680A68D20602D5E4
:101300000A6849680091818DFFF7E4FCEBE7000073
:1013100070B5044600680169E26821F44051114348
:1013200001612169A0680843616908432168CA68AE
:1013300041F20C639A430243CA6020684169A26982
:1013400021F44071114341611E492068884202D155
:10135000FFF7D6FA01E0FFF7C3FA00EBC00101EB9B
:101360000012606864218000B2FBF0F3B3FBF1F37C
:101370006FF018067343B2FBF0F5B2FBF0F605EB25
:101380008305322303EB0515B5FBF1F5B6FBF1F64A
:1013900005F0F00505EB0615B2FBF0F6B2FBF0F038
:1013A000B0FBF1F06FF01802504306EB800003EB46
:1013B0000010B0FBF1F0216800F00F0028448860B5
:1013C00070BD00000038014081628285C285002125
:1013D0000164222280F83E2080F83C100168CA682F
:1013E00042F48072CA6001684A6942F001024A61AF
:1013F0000068C16841F02001C16000207047000012
:101400000148FFF769BC0000D8000020FEE709078B
:10141000090E002804DB00F1E02080F8001470477A
:1014200000F00F0000F1E02080F8141D704700006C
:10143000FFF730F9FFF7C0FEFFF740FEFFF77EFE33
:10144000FFF798FE00224FF480710648FFF70EF96F
:101450000220FEF7FDFFC82203490448FFF7DCFD28
:10146000FEE700000008014010000020D800002026
:101470000000000000000000010203040607080944
:101480000000000001020304A8140008000000206E
:10149000100000006C010008B814000810000020C3
:1014A000B0070000880100080100000010000000E3
:0814B000000000000024F4001C
:0400000508000131BD
:00000001FF
