:020000040800F2
:100000003007002045010008A32A000869250008E0
:10001000A12A0008B5090008A53400080000000066
:100020000000000000000000000000004131000856
:10003000E709000800000000D32E00084331000843
:100040005F0100085F0100085F0100085F01000810
:100050005F0100085F0100085F0100085F01000800
:100060005F0100085F0100085F0100085F010008F0
:100070005F0100085F0100085F0100085F010008E0
:100080005F0100085F0100085F0100085F010008D0
:100090005F0100085F0100085F0100085F010008C0
:1000A0005F0100085F0100085F0100085F010008B0
:1000B0005F0100085F0100085F0100085F010008A0
:1000C0005F0100085F0100085F0100085F01000890
:1000D0005F0100088D340008953400089D34000845
:1000E0005F0100085F0100085F0100085F01000870
:1000F0005F0100085F0100085F0100085F01000860
:100100005F0100085F0100085F0100085F0100084F
:100110005F0100085F010008B13100085F010008BD
:100120005F0100085F0100085F0100085F0100082F
:10013000DFF80CD000F0E6FB004800474935000826
:10014000300700200648804706480047FEE7FEE7E4
:10015000FEE7FEE7FEE7FEE7FEE7FEE7FEE7FEE777
:10016000AF31000831010008202A04DB203A21FACF
:1001700002F00021704721FA02F3D040C2F12002C0
:100180009140084319467047D2B201E000F8012BB4
:10019000491EFBD270470022F6E710B513460A4607
:1001A00004461946FFF7F0FF204610BDF0B480EA80
:1001B0000102D40F4200B2EB410F02D202460846C0
:1001C00011464A0042D0C30DDDB2C1F3C752AD1A89
:1001D000202D35DAC1F3160141F4000204B1524278
:1001E000C5F1200602FA06F12A411044B3EBD05FB4
:1001F00023D0C4B1012DA0EBC35009DCF0BC4FF0FB
:10020000004202EAC352DBB200F5000000F0A6B9DA
:10021000400000F1807000EBC350A0F1807040EA14
:10022000D170490009E0490841EAC071A0EBC35010
:1002300000F50000400800EBC350F0BC00F085B9A9
:100240006142012202EB4101001BF6E7F0BC70475E
:1002500081F00041AAE780F00040A7E780EA0102B0
:1002600010B502F00043400022D04A001FD0010E1A
:1002700001EB1261C0F35600C2F3560240F40000D5
:1002800042F40002A0FB022000047F39140400D0D5
:10029000401C50EA124001D44000491EC2B20C0674
:1002A00004EBD010401C4008802A02D003E000205C
:1002B00010BD20F00100002900DA0020184310BD15
:1002C00030B480EA010202F0004530F0004221F033
:1002D000004013D090B1C30DD40DC2F31601C0F38A
:1002E0001600E41A41F4000140F400027D3491420A
:1002F00001D3641C00E04900002C02DA30BC00206D
:1003000070474FF400000023914201D3891A034340
:1003100040084FEA4101F7D151B1914202D14FF06B
:10032000004105E002D24FF0010101E06FF0010150
:1003300003EBC450284430BC00F007B92DE9F04D60
:1003400081EA030404F0004B21F0004514464FF00D
:10035000000A23F0004150EA050220D054EA0102CD
:100360001DD0C5F30A570246C5F31303C1F31300AA
:10037000C1F30A5640F4801543F48013A7EB060836
:10038000101BD64608F2FD3873EB050002D308F1C6
:10039000010801E092185B41B8F1000F03DA002078
:1003A0000146BDE8F08D00204FF4801106468446DA
:1003B0000EE0171B73EB050705D3121B63EB050358
:1003C00006434CEA010C49084FEA300092185B41A1
:1003D00050EA0107EDD152EA030012D082EA04008C
:1003E00083EA0501084305D0101BAB4106D2012268
:1003F000002306E000224FF0004302E06FF001020C
:1004000053101AEB06004CEB085110EB0A0041EBBD
:100410000B01BDE8F04D00F0CFB8C10F80EAE070ED
:100420000844CA079623002100F098B896230022BA
:10043000114600F093B80EB5C10F80EAE070084491
:10044000CA07002140F233438DE80E000A460B46EE
:1004500000F0C1F803B000BD70B5C1F30A5201F05D
:1004600000450024C1F3130140F2FF3341F4801131
:100470009A4201DA002070BD40F233439A42A2F260
:10048000334203DC5242FFF76FFE00E090402C4302
:10049000F1D0404270BD00F0004230F000400AD080
:1004A000C10D01F56071C0F3160042EA0151C208A6
:1004B00040071143704700200146704730B50B4696
:1004C000014600202022012409E021FA02F59D4284
:1004D00005D303FA02F5491B04FA02F52844151E58
:1004E000A2F10102F1DC30BD2DE9F05F05460020EC
:1004F00092469B4688460646814640241BE0284695
:10050000414647462246FFF72FFE53465A46C01A39
:10051000914110D311461846224600F005FA2D1AD3
:1005200067EB01084F4622460120002100F0FCF94C
:1005300017EB00094E41201EA4F10104DFDC484600
:1005400031462A464346BDE8F09F0029A8BF7047C0
:10055000401C490008BF20F00100704710B4B0FAF9
:1005600080FC00FA0CF050EA010404BF10BC704794
:1005700049B1CCF1200421FA04F411FA0CF118BFAE
:10058000012121430843A3EB0C01CB1D4FEA00617D
:100590004FEA102042BF002010BC704700EBC35050
:1005A00010440029A4BF10BC7047401C490008BF7C
:1005B00020F0010010BC704710B5141E73F1000448
:1005C00008DA401C41F1000192185B411A4301D145
:1005D00020F0010010BD2DE9F04D92469B4611B16F
:1005E000B1FA81F202E0B0FA80F22032904600F0D7
:1005F0009BF904460F4640EA0A0041EA0B015346C4
:100600005A46084313D0114653EA010019D0C8F1E5
:1006100040025046FFF7A8FD05460E465046594693
:10062000424600F081F9084305D0012004E020464D
:100630003946BDE8F08D0020054346EAE0762C43BC
:1006400037430A986305E40AA0EB08000022FD0A7C
:1006500044EA47540A3002D500200146E9E7010583
:1006600010196941DDE9084500196941BDE8F04DFF
:10067000A2E72DE9FE4F804681EA0300C00F0C4639
:10068000009021F0004123F00045B8EB0200A941A1
:1006900005D24046214690461C460B46024623F0B2
:1006A0000040104347D0270DC7F30A00C3F30A5197
:1006B0000290401A019040286BDAC3F3130040F413
:1006C000801B0098924620B10023D2EB030A63EB13
:1006D0000B0B01985946C0F14002504600F024F936
:1006E00006460D4650465946019A00F02CF910EB8B
:1006F00008006141002487EA115284EAE7731A4333
:1007000040D0009A62B3019A012A4FEA075215DCE1
:10071000001B61EB02014FF0004202EA0752CDE9F3
:100720000042001C41F5801132462B46FFF753FF73
:1007300003B0BDE8F08F40462146F9E7001B61EBAE
:100740000201001C41F5801300185B412018A2F53E
:10075000001747EB030140EAD570B6196D4111E06F
:100760006D084FEA360645EAC0754FEA0752001B8E
:1007700061EB0201001C41F5801149084FEA30008D
:100780000019514132462B4603B0BDE8F04FFFF748
:1007900013BF0098012240000023D0EB020263EB5C
:1007A000E073009821464FEAE074B8EB000061EB7B
:1007B0000401E9E783F000435BE781F0004158E77B
:1007C0002DE9FE4F81EA030404F0004421F00041CA
:1007D00000944FF0000B23F0004350EA01045ED078
:1007E00052EA03045BD0C3F30A54C1F30A552C4404
:1007F000A4F2F3340194A0FB0254C1F3130141F4B9
:100800008011C3F3130343F4801301FB024400FB84
:10081000034E840A970A44EA815447EA8357A4FBAB
:10082000076802958D0A05FB07854FEA932C04FBA8
:100830000C542705029D4FEA065847EA1637B5EBD8
:1008400008056EEB070C870E920E47EA811742EA05
:100850008312A7FB0201B6EB0B0164EB00042B0D26
:1008600043EA0C335E1844EB1C50DA465146E7FB72
:100870000201C5F313044FEA0B3343EA14534FEA62
:100880000432019C43EA0603A4F10C040294009C88
:10089000CDE900B4FFF79FFE03B0BDE8F08F002064
:1008A0000146F9E7C1F30A52C1F3130140F2FF33E5
:1008B00041F480119A4202DA00200146704740F26A
:1008C00033439A42A2F2334202DC5242FFF74CBC5D
:1008D00000F02AB830B5041E71F1000404DB4FF0BB
:1008E0000044404264EB0101141E73F1000405DB77
:1008F0001C464FF00043524263EB0403994208BF89
:10090000904230BD064C074D06E0E06840F0010320
:1009100094E8070098471034AC42F6D3FFF70CFC7C
:100920003841000858410008202A04DB203A00FA28
:1009300002F1002070479140C2F1200320FA03F336
:10094000194390407047202A06DBCB17203A41FA22
:1009500002F043EAE07306E041FA02F3D040C2F14C
:1009600020029140084319467047000080B500F00E
:1009700069F901460648818021B106A0BDE88040A2
:1009800002F0ECBE06A0BDE8804003F079BB00BFDA
:10099000100000204C7578203D2025640A000000DE
:1009A00052656164206C69676874206661696C20B7
:1009B00000000000FEE770B500223123022A04BFC8
:1009C000C8B270BD845C61400024072C09D84EB2C7
:1009D00083EA4105B6F1FF3FC8BF4D002946013407
:1009E000F3E70132EAE77047EFF3108072B6FEE7F3
:1009F000002221B110F8013B01391A44F9E7D0B2C5
:100A0000704710B50130023900220023D4B2A14250
:100A100005DD10F8014B01322344DBB2F6E7584202
:100A2000C0B210BDB0B50C4605210546FFF7E0FF8A
:100A30006979884206D1B5F8010000BA000C20801F
:100A40000120B0BD02A002F089FE0020B0BD00BFB1
:100A5000E6A0A1E9AA8CE5A4B1E8B4A50A0D0000BE
:100A600010B54478862C0DD1448824BA240C0C800F
:100A7000818809BA090C1180C08800BA000C18805E
:100A8000012010BD02A003F0FBFA002010BD00BF42
:100A9000E591BDE4BBA4E4B88DE6ADA3E7A1AE004B
:100AA0002DE9F04F85B0039002F010FD564C4FF445
:100AB000FA70A0472E20554D264601210DF1130452
:100AC000F42201238DF813004FF47A70CDE9004130
:100AD000EE210290284600F093FD0A20B047F62050
:100AE000F72102F0F7F906467420494FEE21F4226F
:100AF000012300948DF81300012001904FF47A70C7
:100B0000B7F91280B7F91490B7F808A0B7F80AB08F
:100B10000290284600F074FD3B490A208847A6EB66
:100B20000B004FEAC82200FB0AF009EBE03192FB10
:100B3000F1F1F82201EBE038F620F72102F0ECF9B0
:100B4000A8F57A62B7F90E50B7F90230B7F904C0C8
:100B5000B7F90010B7F90C60000A02FB02F4240B8D
:100B6000534302FB0CF265435213ED1205EBE323F2
:100B700003EB810104FB06F302EB23424FF4004335
:100B800002310232A0EBA1004CF2503103EBA20281
:100B9000FB8841435A43D20B002904D41D494843E2
:100BA000B0FBF2F002E0B1FBF2F04000011240F6BF
:100BB000DE3249435143184A4243121402EB1141B9
:100BC00001F6CF6100EB2110FFF727FC1349FFF777
:100BD00077FB0546FFF75FFC064608F108000F4665
:100BE0000011FFF71AFC0E49FFF76AFBFFF753FCF1
:100BF00002460CA00B46CDE9006702F0AFFD03985A
:100C0000056005B0BDE8F08FDD0D0008740100201F
:100C100008010020A086010031E3FFFF00007A44B4
:100C200000002041E6B8A9E5BAA6EFBC9A252E320D
:100C3000662CE6B094E58E8BEFBC9A252E336620A9
:100C40006B506100BCB5202000244FF6FF750DF1FC
:100C50000702462101238DF807001248ADF8044031
:100C6000009500F069FBD0B9782000F0B7F80D4886
:100C7000009501AA4721022300F040FA08B10024A0
:100C80000DE0BDF80400000400BAFFF7D4FB064BEA
:100C90004FF03332FFF752FBFFF7DEFB0446A0B202
:100CA000BCBD00BF740100203333F33F10B590F892
:100CB0002110022911D10168D0E90F230C6824F01A
:100CC0000E040C600C6824F001040C60012180F813
:100CD000211099405160002102E00421816301212B
:100CE000002280F82020084610BD000010B590F8C2
:100CF0002110022919D10268116821F00E0111603A
:100D0000116821F001011160294901F17C039A4227
:100D10000FD92F4B9A4224D02E4B9A4223D02E4BE0
:100D20009A4222D14FF4807327E00421816301208D
:100D300010BD204B9A4226D01F4B9A4225D01F4B04
:100D40009A4224D01E4B9A4224D01E4B9A4217D06E
:100D50001D4B9A4221D01D4B9A4211D14FF0807207
:100D60001DE0012309E0102307E001F588644FF43A
:100D70008033A24208BF4FF48053C1F800340FE023
:100D80004FF480320BE0012209E0102207E04FF41B
:100D9000807204E04FF4805201E04FF480120A6048
:100DA0004FF480710184416B01B18847002010BD70
:100DB00004000240080002401C00024030000240D3
:100DC00044000240580002406C0002408000024093
:100DD000080402401C04024030040240B0B504463E
:100DE00000F0EEF805460548611C007818BF044481
:100DF00000F0E6F8401BA042FAD3B0BD040000208A
:100E00002DE9FC4F81465B4806235C4E4FF0000BFA
:100E10004FF001084FF00F0E4FF0000A8145564881
:100E200008BF052348444FEAB022052A38BF4FEADD
:100E3000B023009300220C6834FA02F508BFBDE825
:100E4000FC8F08FA02F52C4200F08F804F68032FC8
:100E500016D9112F26D0122F28D04B48874213D0F5
:100E60004A48874210D04A4887420DD049488742B5
:100E70000AD04948874207D04848874204D022E038
:100E8000DFE807F002181B1F8C6844B1012C14BF67
:100E9000C9F81450C9F810504FF0080A13E04FF089
:100EA000040A10E0CC6804F1040A0CE0CC6804F1F8
:100EB0000C0A08E0D1F80CA005E0CC6804F1080A9F
:100EC00001E04FF0000A5C464846082A334628BF36
:100ED000203C28BF043006680EFA04F70AFA04F42E
:100EE000BE4334430460C879C00601D41E463CE0CA
:100EF000244C22F003061E44206840F001002060CC
:100F0000206800F0010001900BF00C00019F0EFA28
:100F100000F4234FBC46F75927EA0404009F07FA60
:100F200000F0204346F80C001E464F68F80318688E
:100F300054BF20EA050440EA05041C60104BB803C6
:100F4000706854BF20EA050440EA05047460F802A2
:100F5000B06854BF20EA050440EA0504B460B80252
:100F6000186854BFA843284318600BF1040B0132E2
:100F700061E700BF001C014000F8FEBF0004014013
:100F80000C04014018100240000011100000121063
:100F9000000021100000221000003110000032106B
:100FA00008FCFFFFC26802EA0103914341EA0341E2
:100FB00001617047002A08BF090401617047000001
:100FC00001480068704700BF2C030020F8B528B323
:100FD000044690F83D0020B901F06DFF204600F076
:100FE00087FB01F00BFF016841F4004101600168DB
:100FF00021F40041016000F013FD3B4900253B4A0C
:1010000088424FF0000138BF0121904238BF0125CE
:101010006368374A934238BF0D460DB10120F8BDD1
:1010200034494FF47A77B0FBF1F521684E6826F029
:101030003F062E434E604FF496766E43934228BF90
:10104000B6FBF7F56A1C0D6A25F03F052A434CF6FE
:10105000FF750A62CA69AA43274DAB420AD85B00F2
:101060000138B0FBF3F001306FF31F30042898BF54
:10107000042013E0A56801383DB119256B4301F048
:1010800007FF0AD000F5804004E003EB430301F0C2
:10109000FFFE02D000F5004000E00120104304F103
:1010A0000C06C861E0690A6822F0C0021043226A97
:1010B000104348F2FF320860886890436CCE1843B2
:1010C00010438860C86820F0FF0028433043C860A0
:1010D00001F081FE00202021206484F83D1020636F
:1010E00084F83E00F8BD00BF80841E0000093D006A
:1010F000A186010040420F00A08601002DE9FE4FAD
:10110000044600201D4617468B460190FFF758FF06
:10111000814601F0D7FD0DD1DA4E20460122192378
:10112000CDF8009006F5702101F00EFB10B901F02A
:1011300071FD02D10220BDE8FE8F01F064FD01D1F6
:1011400001F026FE0168A6F10212DDF8308021F4DC
:1011500000610160222101F063FE65853546618DE5
:10116000E26267622185E16A026842F4806211F5F9
:10117000803F026018BF01292BD101F0A7FD204656
:101180004FF001110022434601F064FD48B1206890
:101190000068C00544BF4FF4007020640120BDE822
:1011A000FE8F2069B0F5804F19D14BF00100C0B21D
:1011B000216842464B4601F072FE0028EED1208D98
:1011C00002283DD001284FD0002857D101F094FDCE
:1011D00056E00829D1D0216B1129CED0CFE70620C7
:1011E0002F46216842464B4600EADB1505F1F00028
:1011F0000861B91D204601F0E1FA0028CED120682F
:101200005FFA8BF142464B4601612046394601F0B8
:10121000D5FA0028C2D1002000224346029020685F
:1012200041690291816902910299016801F0B5FD5D
:1012300001F010FD0028AAD145F0F1003546B7E7CE
:101240002068016841F400610160EFF3108072B61C
:1012500000200290206841690291816902910299FF
:1012600001F02DFE62B60BE0206801F028FEEFF3DE
:10127000108072B601F040FD62B601E001F05BFD46
:10128000208DDFF814ABAF1C46F2A816232501040D
:101290004DD080B2032808D8022815D001281FD1CC
:1012A00001F056FD002835D078E701F051FD002807
:1012B0007FF474AF2068616A0069087001F0C6FDB0
:1012C000E5D50869107029E001F06BFC00287FF477
:1012D00065AFEFF3108072B601F0A0FC62B619E0C2
:1012E00001F05FFC00287FF459AF206801F0E7FDB2
:1012F000EFF3108072B601F073FC0191019901398E
:101300000191019969B121684A695207F6D501F046
:10131000BBFC62B62068616A0069087001F090FC4D
:10132000B5E701F01AFD62B684F83C0036E701F03B
:1013300045FCBDE8FE8F00BF2DE9FC471F46164661
:1013400089460446FFF73CFE824601F0BBFC0DD106
:101350004C4D204601221923CDF800A005F570213F
:1013600001F0F2F910B901F055FC02D10220BDE8FC
:10137000FC8701F048FC01D101F00AFD0168A5F1EC
:101380000212DDF8288021F400610160212101F0C2
:1013900047FD6785618DE26266622185E16A11F52C
:1013A000803F18BF012919D101F090FC20464FF071
:1013B000011100224346CDF800A001F0C5F938B173
:1013C00020680068C00544BF4FF40070206421E02D
:1013D0002069B0F5804F07D1FE2013E00829E3D043
:1013E000216B1229E0D0E1E70620216842465346EE
:1013F00000EAD910F0300861A91D204601F0DEF99D
:1014000040B9FF20216800EA09004246534601F036
:1014100046FD10B10120BDE8FC870020019001F0DD
:1014200043FD208D28B320464146524601F01CFA68
:10143000C0B901F0A2FC228D531E23854E697607A8
:1014400009D51B0407D0437802300B616062901EFF
:10145000208501F08EFC20464146524601F058F9A5
:101460000028DED0206C0428D4D1206801F094FB41
:10147000D0E72068016841F40071016001F09EFB33
:10148000BDE8FC87020001002DE9FF47044600206B
:101490001F4616460D460390FFF792FD814601F068
:1014A00011FC09D1904920460122192301F0D2FBF9
:1014B00010B901F0AFFB03D1022004B0BDE8F08702
:1014C00001220DF1300801F0B3FC03D1136843F0A1
:1014D00001031360136823F40063136022223B4668
:1014E00001F06CFC81493246608DE162294620851D
:1014F0002046CDE9008901F051F8002840F07980BC
:10150000208D022805D0012817D000BB01F0F4FB84
:101510001FE02068016841F400610160EFF3108072
:1015200072B600200290206841690291816902919F
:10153000029901F0C4FC62B60BE0206801F0BFFC28
:10154000EFF3108072B601F0D7FB62B601E001F054
:10155000F2FB208D294FDFF840A846F2A81623257C
:10156000010448D080B2032807D8022813D00128EC
:101570001BD101F0EDFB80B33BE001F0E9FB00285B
:1015800037D12068616A0069087001F05FFCE7D517
:101590000869107025E001F004FB50BBEFF31080E8
:1015A00072B601F03BFB62B617E001F0FAFA00BB3D
:1015B000206801F084FCEFF3108072B601F010FB9C
:1015C0000391039901390391039969B121684A692B
:1015D0005207F6D501F058FB62B62068616A0069CF
:1015E000087001F02DFBBBE701F0B7FB62B684F891
:1015F0003C00012061E701F0E1FA5EE70400010030
:101600002DE9FE43994601F0D4FB054601F05AFB53
:101610000AD13549204601221923009501F094F89A
:1016200010B901F0F7FA02D10220BDE8FE830122D1
:101630000DF1280801F0FCFB03D1136843F001030E
:101640001360136823F40063136021224B4601F0FA
:10165000B5FB26493246608DE16239462085204639
:10166000CDE9008500F0FEFF10B10120BDE8FE834A
:10167000218D080422D0204641462A4601F0F4F884
:1016800010BB606A2268014611F8013B1361638D4B
:10169000013B63856162238D591E2185566976075A
:1016A000E7D509044FF00001E3D041780230116121
:1016B000991E6062218501F05CFBDAE72046414615
:1016C0002A4601F025F830B1206C0428CDD12068DD
:1016D00001F062FAC9E72068016841F40071016015
:1016E00001F06CFABDE8FE83020010000000FFFF6D
:1016F00010B586B000210068CDE90411CDE90211D2
:101700001649884214D01649884225D1574C01F019
:10171000FBF9C0200290019802A91248FFF770FB64
:10172000606840F400106060606800F4001011E030
:101730004E4C01F0E9F94FF440600290019802A983
:101740000848FFF75DFB606840F4800060606068F7
:1017500000F480000190019806B010BD00580040D0
:1017600000540040000C0140B0B518B304460068B6
:101770004CF6CC43D4E90112036045F255530360A3
:1017800041608260FFF71CFC05462068C16889073C
:101790000BD0FFF715FC401B2828F6D32068C06843
:1017A00080071CBF0320B0BDEFE74AF6AA21016005
:1017B0000020B0BD0120B0BD00684AF6AA2101603A
:1017C000002070471A48034900780A6810440860EE
:1017D000704700BF2C03002080B58E48016841F09F
:1017E00010010160032000F06DF80F2000F004F8F4
:1017F00000F020F8002080BD70B50D4E04464FF477
:101800007A713078B1FBF0F08F490968B1FBF0F0E4
:1018100000F0C6FA01250F2C08D838B94FF0FF3078
:1018200021460022002500F031F87460284670BD82
:101830000400002082B00D480222016841F001013D
:101840000160016801F0010101910199416841F0D5
:1018500080514160406800F080500090009804483A
:10186000016862F31A61016002B07047181002400B
:1018700004000140002806D4734601F069F99E4631
:10188000014A42F82010704700E100E070B5134BA8
:101890004FF0FF351B68C3F30223DC1E83F0070300
:1018A00038BF002405FA04F6B243042B28BF0423F2
:1018B00005FA03F39943A1401143BDE8704001F0DC
:1018C000F3BD00BF05494FF6FF030A681A4060F3F5
:1018D0000A22034810430860704700BF0CED00E087
:1018E0000000FA052DE9F84300286CD088464949E4
:1018F0000446086800F0070040450AD2086820F056
:10190000070040EA08000860086800F0070040454A
:1019100059D120685B4B8946810711D5410703D512
:10192000196841F4E0611960010703D5196841F4B1
:1019300060511960A1681A6822F0F0021143196021
:10194000C00737D1D9F8000000F0070040450DD995
:10195000D9F8000020F0070040EA0800C9F80000AC
:10196000D9F8000000F0070040452CD1206841075D
:1019700005D5E1681A6822F4E06211431960000796
:1019800006D52069196821F4605141EAC000186049
:101990001C4600F05DF821681F4AC1F30311515C39
:1019A000C840294908601D480068FFF725FF00204E
:1019B000BDE8F8836068022808D0012825D153F8D3
:1019C000041C890306D40120BDE8F88353F8041CE5
:1019D0008901F8D519681D4621F0030108431860F4
:1019E000FFF7EEFA064641F28837606829682B4611
:1019F00001F00C01B1EB800FA4D0FFF7E1FA801BDE
:101A0000B842F2D90320BDE8F88353F8041C8907D3
:101A1000D9D5DFE700200240A440000808000020DC
:101A2000DD481849094A00680968C1F30221515C80
:101A3000C8407047D8481349044A00680968C1F390
:101A4000C221515CC84070470C000020B44000081F
:101A500010B50C490C480A6802F00C03082B07D19A
:101A6000C2F3834309A4D203E35C02D40C48584375
:101A700010BD096809A25843C1F34041515CB0FB55
:101A8000F1F010BD0410024000127A0002030405B8
:101A9000060708090A0B0C0D0E0F101001020000BA
:101AA00000093D002DE9FC41002800F09C8004461F
:101AB0000078B74EC0071FD0706800F00C000428F3
:101AC00014D001F0CFF802D17068C0030ED4606862
:101AD000002800F01481B0F5A02F00F02181B0F5AE
:101AE000803F00F0218100F0F5FF20E130688003A5
:101AF00002D56068002876D02078800716D57068F7
:101B000010F00C0F05D001F0ADF824D17068C003BF
:101B100021D43068800702D52069012863D160692B
:101B2000316821F0F80141EAC000306020780007F8
:101B300041D5A06910B397480121C0F88014FFF780
:101B40003FFA0546706A800728D4FFF739FA401B30
:101B50000228F7D9F8E021698E48002900F08E802C
:101B600001210160FFF72CFA054630688007D6D4C2
:101B7000FFF726FA401B0228F7D9E5E08548002147
:101B8000C0F88014FFF71CFA0546706A800712D56A
:101B9000FFF716FA401B0228F7D9D5E07E484FF42C
:101BA000FA510068B0FBF1F0019000BF0198411EAE
:101BB00000280191F9D12078400717D4E7697FB157
:101BC00001F050F83CD1012F0DD0216A706800F46B
:101BD00080328A4207D1616A00F47010884202D1D3
:101BE0000020BDE8FC810120BDE8FC81F06910F017
:101BF000805808D1F06940F08050F061F06900F041
:101C0000805000900098654F3868C0050FD4386840
:101C100040F480703860FFF7D3F905463868C00596
:101C200005D4FFF7CDF9401B6428F7D98CE0E068B4
:101C3000A0B3052844D0012846D000F081FF46E03B
:101C40005449002088460866FFF7BAF90546022F76
:101C50000AD147463068800179D5FFF7B1F9411BB9
:101C600003200229F6D9BCE730688001B8D5FFF718
:101C7000A7F9411B03200229F6D9B2E70021016030
:101C8000FFF79EF90546306880077FF54FAFFFF7F5
:101C900097F9411B03200229F5D9A2E700F050FF74
:101CA0003062FFF78DF9054641F28837306A8007C8
:101CB0001CD5FFF785F9411B0320B942F6D990E7FF
:101CC000306A40F004003062306A40F00100306257
:101CD000FFF776F9054641F28837306A800705D468
:101CE000FFF76EF9401BB842F7D92DE0B8F1000FAD
:101CF0007FF464AFF06920F08050F0615EE700F09F
:101D0000E9FE3060FFF75CF90546306880037FF537
:101D1000F3AEFFF755F9411B03206429F5D960E7BD
:101D2000306840F480203060306840F480303060AB
:101D3000FFF746F90546306880033FF5DDAEFFF753
:101D40003FF9401B6428F6D90320BDE8FC81206AD6
:101D5000B0F5803F05D1A168726822F400321143CA
:101D60007160616A0843716821F4741108437060FE
:101D700001203866FFF724F90446306880013FF5FA
:101D80002FAFFFF71DF9011B03200229F5D928E722
:101D900000100240000042420C0000200070004091
:101DA000411E0020B0EB116F1CBF01207047044A98
:101DB000F023516003490B70072190601160704758
:101DC00010E000E023ED00E07047704710B590F898
:101DD0003C300222012B26D080F83D2002680B689F
:101DE000546824F070041C439368B2F1804F54602F
:101DF0000ED03B4CA2420BD03A4CA24208D03A4CF7
:101E0000A24205D0394CA24202D0394CA24204D1A0
:101E1000496823F08003194391600022012180F872
:101E20003C2080F83D10104610BD00BF58B110B5E1
:101E300000F0BAFF03D100F040FF00F007F801F016
:101E400012F800F08CBE012070470000E0B5006879
:101E50000B49884218BF8CBD0A480022016841F036
:101E6000100101600021006800F01000019001984D
:101E70003620FFF70BFD3620BDE88C40FFF7FABC9B
:101E8000001000401C10024090F83D1001291CBFBA
:101E900001207047022180F83D100068C168B0F150
:101EA000804F41F00101C1600ED00D4988420BD036
:101EB0000C49884208D00C49884205D00B49884219
:101EC00002D00B49884204D1724600F072FE964659
:101ED00003D0724600F0F8FF96460020704700BF1E
:101EE0000004004000080040000C004000340140A5
:101EF000002C0140704710B504460068016989074D
:101F000012D5C16889070FD56FF002010161012167
:101F100021778069800702D000F05AFF01E000F0CD
:101F2000DAFE0020207720680169490713D5C168CF
:101F3000490710D56FF00401016102212177806902
:101F400010F4407F02D000F043FF01E000F0C3FE38
:101F50000020207720680169090712D5C1680907A8
:101F60000FD56FF00801016104212177C069800756
:101F700002D000F02DFF01E000F0ADFE0020207740
:101F800020680169C90613D5C168C90610D56FF06C
:101F90001001016108212177C06910F4407F02D04F
:101FA00000F016FF01E000F096FE00202077206888
:101FB0000169C90709D0C168C90706D06FF00101DE
:101FC0000161204600F02CF820680169090609D556
:101FD000C168090606D56FF0800101612046FFF750
:101FE000F3FE20680169490609D5C168490606D58E
:101FF0006FF040010161204600F040F8206801695F
:10200000890602D5C168890600D410BD6FF0200191
:1020100001612046BDE81040FFF7D7BE704770470A
:10202000B0B5134900680968884200D0B0BD114DB1
:10203000F44C2888013081B22880814206D10020EA
:102040004FF4805128802046FEF7ACFF68880130AD
:10205000688080B21428E9D300204FF400616880C2
:102060002046FEF79FFF044801214170B0BD00BF2C
:10207000D4010020040100201000002070477047A8
:10208000704700007CB5016804460A68C8684D695D
:1020900013074DD000F4907605F0010576194BD06A
:1020A000D60705D0C60503D5266C46F00106266482
:1020B000560704D51DB1266C46F002062664960725
:1020C00004D51DB1266C46F004062664002B07D506
:1020D00000F020035B1903D0236C43F00803236452
:1020E000236C002B70D0920605D5800603D52046C0
:1020F00001F0ECF821684869216C00F0400001F023
:10210000080140185BD0204601F0CEF820684169F4
:1021100049064AD500F0FDFD47D04A494163FEF724
:10212000E5FD002850D0A06B416BBDE87C4008471E
:10213000930601D583063DD4236B012B03D1D3062F
:1021400001D5C30641D4130601D503060FD45206A8
:102150003AD5400638D5C86820F04000C860202035
:1021600084F83D002046BDE87C4000F0FCB994F8BE
:102170003D00212828D1A068B0F5805F02D12069F8
:10218000002856D0206A421C226200784860E08C09
:102190000138E084000417D1C86820F08000C860CE
:1021A000C86840F04000C8607CBD2046BDE87C4067
:1021B000FFF766BF2046BDE87C4001F087B82046A7
:1021C000FFF75EFF002020647CBD002001900868BE
:1021D0000190486801900198486940060DD4E08D4F
:1021E000A28DE38D002BEFD0101A0204ECD000F08A
:1021F0005BFD202200F0EBFC15E0A06B0268536849
:102200009DB2002DE0D0A28D9542DDD2E385836999
:10221000202B06D000F02EFE00F0D9FCFEF746FD84
:10222000A28DE08D101A81B22046BDE87C40FFF7F8
:1022300026BF206A30F8022B6FF35F2220624A60CB
:10224000A5E700BF9D32000890B110B5044690F894
:102250003D0008B900F09AFC00F044FC20680169D8
:1022600021F490410161416921F02A0100F0FFBC95
:102270000120704770B586B000687A490026CDE924
:102280000466CDE9026688423BD07749884258D03F
:102290005949884200F089805849884240F0A98015
:1022A0005748584D416841F480114160416801F43C
:1022B000801100F01AFD016801F0100101910199EF
:1022C000016841F020010160006800F020000190E9
:1022D000019803200590022003904FF48050029053
:1022E00002AC05F500602146FEF78AFD002021467C
:1022F000CDE903000420029005F54060FEF780FD63
:1023000077E03F483F4C416841F40031416041680B
:1023100001F4003100F005FC04200290019802ADA8
:1023200020462946FEF76CFD08202946CDE90366C4
:1023300000F094FC262004210022FFF7A7FA2620B3
:1023400055E02F48416841F480214160416801F423
:10235000802100F0CAFC006800F01000019003200A
:102360000590022003904FF480600290019802AD26
:102370002448294600F500642046FEF741FD002070
:102380002946CDE903004FF4006000F067FC1E48C9
:102390001E4A01681143002221F02001016027201C
:1023A0000321FFF773FA272021E01548154C016837
:1023B00041F480410160016801F4804100F0B1FB0B
:1023C0004FF400700290019802AD20462946FEF7B6
:1023D00017FD00202946CDE903004FF4806000F08E
:1023E0003DFC252000210022FFF750FA2520FFF7B1
:1023F00041FA06B070BD00BF0038014000500040F7
:1024000018100240000801400400014010000007BD
:1024100010B590F83E30202B05D131B12AB190F89B
:102420003C30012B03D1022408E0012406E0002403
:102430000123046380F83C3000F0E2FF204610BD29
:102440000168084A914206D00748814202D10748F4
:10245000012101707047054901228A702231092249
:10246000FFF7D6BF004400400048004010000020A5
:102470002DE9F843044690F83D00202807D10E4688
:1024800041B1174632B194F83C00012805D1022031
:10249000BDE8F8830120BDE8F8834FF00009012072
:1024A0001D46C4F8409084F83C00212084F83D008B
:1024B000FEF786FDE7848046A784A068B0F5805FBC
:1024C00001D1206908B1002701E03746002684F8D1
:1024D0003C90E08CB8B12046802142462B4600F06B
:1024E000A9FFB8B926B116F8010B2168486006E0CB
:1024F00037F8021B206800266FF35F214160E08CF3
:102500000138E084E5E72046402142462B4600F0B2
:1025100091FF10B10320BDE8F883202084F83D002E
:102520000020BDE8F88310B5034690F83D00202850
:1025300005D131B12AB193F83C00012803D1022022
:1025400010BD012010BD00202124DA84186483F816
:102550003D4019629A8483F83C001968CA6842F0C9
:102560008002CA6010BD7047FEE7026851694905E4
:102570004FF000010FD56FF4806353612022016397
:1025800080F83D2080F83E1080F83C10016C41F04E
:102590000401016401210846704700002DE9FC4B4D
:1025A000044600680E46DDF82890DDF82C801D46B4
:1025B0001746002201684B4641F48061016000F03B
:1025C000AFFB48B120680068C00544BF4FF40070FD
:1025D00020640320BDE8FC8B06F0FE0B20684B4E08
:1025E0004A464346C0F810B02046314600F0E6F8AF
:1025F000F8B900204246019020684169019149469E
:10260000806901900198204600F02EF958B9012DFB
:1026100004D02068390A00F013FC20B92068F9B210
:1026200000F00EFC40B1206C042802D1206800F0BC
:10263000B3FA0120BDE8FC8B206800224B4600F075
:102640006FFB0028BED120684BF001014A4643468B
:1026500001612046314600F0B1F8002818BF012082
:10266000BDE8FC8B2DE9FE43044600680F460A9D39
:102670000B9E99469046002201682B4600F08DFB88
:10268000009600F061F848B120680068C00544BFBA
:102690004FF4007020640320BDE8FE83206807F03B
:1026A000FE012A46334601611849204600F086F8AB
:1026B00010B10120BDE8FE83002032460290206860
:1026C000416902912946806902900298204600F0F3
:1026D000CBF830B1206C0428EBD1206800F05CFA14
:1026E000E7E7B9F1010F0AD020684FEA1821324616
:1026F00001612046294600F0B7F80028EAD1206899
:102700005FFA88F101610020BDE8FE83020001004C
:10271000F8B515460E4604464F1C20684069400730
:1027200044BF0020F8BD2046FFF71FFF50B9002F1F
:10273000F3D0FEF745FC401BB04201D8002EECD18F
:1027400000F04EFB0120F8BD2DE9F047DDF82090A8
:102750001D46924680468FB201F47F045E1C18200D
:10276000B4F5803F08BF1420D8F80010085838404E
:10277000C01BB0FA80F0400950451CD1002EEED0AD
:10278000FEF71EFCA0EB0900A84201D8002DE6D1FF
:1027900000202021C8F8300088F83D1088F83E005D
:1027A00088F83C00D8F8400040F02000C8F840000D
:1027B0000120BDE8F0870020BDE8F0872DE9F04159
:1027C0009846164604468FB2551C20684169394028
:1027D000B9420ED0416949050ED4002DF5D0FEF75F
:1027E000EFFBA0EB08012020B1420BD8002EECD16A
:1027F00008E00020BDE8F08100F0CEF96FF48061C0
:102800004161042000212022216384F83D2084F8C6
:102810003E1084F83C10216C084320640120BDE880
:10282000F08170B515460E46044620684169490698
:1028300044BF002070BD4169C9060BD4FEF7C0FB40
:10284000401BB04201D8002EEFD100F0E0FA40F07A
:10285000200004E06FF01001416100F0D8FA20641C
:1028600000F029FB012070BDF8B515460E46044660
:102870004F1C20684069000644BF0020F8BD204678
:10288000FFF773FE50B9002FF3D0FEF799FB401B02
:10289000B04201D8002EECD100F0A2FA0120F8BD20
:1028A0002DE9FF47274800224FF400764FF000093A
:1028B000016841F010010160016801F01001009110
:1028C0000099016841F020010160016801F02001D8
:1028D00000910099016841F004010160016801F074
:1028E000040100910099016841F0080101604FF472
:1028F0000071006800F0080000900098124800F590
:10290000006582462846FEF755FB50464FF4C851F5
:1029100000224FF4C858FEF74DFB01240227284639
:10292000CDE900646E46CDE902973146FEF768FABC
:1029300050463146CDE90297CDE90084FEF760FAB2
:10294000BDE8FF87181002400008014010B5054897
:102950000D4B054C00F0A6F818B1BDE81040FEF78D
:1029600043B810BD200100200054004010B50548B8
:10297000054B064C00F096F818B1BDE81040FEF784
:1029800033B810BD74010020A0860100005800403B
:1029900080B50848084B40F6FF710622C0E90032B6
:1029A0008160FEF7E1FE18B1BDE88040FEF71CB87B
:1029B00080BD00BFC8010020003000401CB50E489B
:1029C00080210E4C002248F69F43CDE90022816110
:1029D00040F2CF71C0E90043C0E90221FFF726FAB7
:1029E00008B1FEF701F804486946FFF7EFF908B1AE
:1029F000FDF7FAFF1CBD00BFD4010020001000400D
:102A000010B50748074C00210C224FF4165300F074
:102A100057F818B1BDE81040FDF7E6BF10BD00BF84
:102A2000E80200200050004010B50748074C002184
:102A30000C224FF4E13300F043F818B1BDE8104028
:102A4000FDF7D2BF10BD00BF1C02002000380140BE
:102A500010B50748074C00210C224FF4165300F024
:102A60002FF818B1BDE81040FDF7BEBF10BD00BF84
:102A7000600200200044004010B50748074C0021C8
:102A80000C224FF4165300F01BF818B1BDE81040AB
:102A9000FDF7AABF10BD00BFA402002000480040FF
:102AA000FEE7FEE700214FF48042C0E90043C0E9A1
:102AB0000211C0E90421C0E906110162FEF786BADD
:102AC000C0E90043C0E90211C0E90412C0E90611DF
:102AD000FFF7BABB306820F480303060306820F4F3
:102AE00080207047242084F83D002068C16821F4CC
:102AF0000051C160204600F043BC0123CDF808908E
:102B0000CDE9000A30462047206840F008002060E8
:102B1000206800F008000190032005901220039027
:102B2000704701910199016841F00401016000685A
:102B300000F00400019003200590022003907047EC
:102B4000306A20F001003062306A20F004007047E3
:102B500000F01F010122400902FA01F17047012033
:102B600084F8460084F83E0084F83F0084F8400072
:102B700084F8410084F8420084F8430084F844005B
:102B800084F8450084F83D00002010BD002084F842
:102B90003C002046FFF76EBB016841F40071016004
:102BA00070472046394600224346CDF80090FFF793
:102BB000CBBD816801F0070106297047202084F809
:102BC0003D00002084F83C0084F83E00704784F803
:102BD0003E2000222263CA6822F01002CA607047B9
:102BE000616A206800690870608D01386085218DF8
:102BF000606A013901302185DAF800106062B1FBAA
:102C0000F6F169437047012084F83C0020680168B0
:102C1000C907704794F83C0001287047616A206832
:102C2000026842F40072026000690870606A013054
:102C30006062608D01386085208D01382085704785
:102C4000606A01306062208D01382085618D013914
:102C500061857047CDF80090FFF776BD0290204661
:102C6000FEF7CEB8706800F00C000828704741618C
:102C7000C16841F40051C16000202021206484F823
:102C80003D1084F83E1010BD0A6842F400720A60DC
:102C900009690170606A01306062208D0138208509
:102CA000608D013860857047CA6822F49072CA60EE
:102CB0004A6922F001024A617047002084F83C0012
:102CC0002046704794F83D0020287047016841F481
:102CD0008071016070474DF808ED2046FFF79EF9BE
:102CE00020465DF808EBFFF79AB901910199016858
:102CF00041F0100101607047002002902068416996
:102D00000291816902910299016841F400710160A8
:102D10007047416921F040014161A06B0028704774
:102D2000016841F48071016020464FF00111CDF837
:102D30000080FFF709BD2068016841F480610160EF
:102D400000210291416902918069029002987047C6
:102D5000204641464A46FFF764BD002020212063FB
:102D600084F83D1084F83E00216C41F0200121647C
:102D70007047608D013860857047606A216802463F
:102D800012F8013B0B61638D013B63856262704702
:102D9000016841F001010160704741F480710160F8
:102DA00020464FF001117047044690F83D0000287E
:102DB000704716460F460446FEF702B984F83D20D8
:102DC000402284F83E2000222264618560627047C0
:102DD0002046FFF78FB8086840F001000860704790
:102DE00000202021206384F83D1084F83E0084F800
:102DF0003C00206C40F0200020647047242084F8C0
:102E00003D002068016821F0010101607047002049
:102E10002021206384F83D1084F83E00206C704728
:102E200084F83D10102184F83E1000212164704781
:102E300084F83C20226898E803011368DB07704798
:102E40004246016120464946FFF70EBD608D0138BC
:102E50006085606A2168421C208D6262013820858D
:102E60004B695B0770470220211D84F83D002068F4
:102E700000F0A4B9CA6822F48072CA604A6922F0DC
:102E800001024A614A6922F040024A6120227047E9
:102E9000B0FBF3F001306FF31F300028704708617A
:102EA00020462946FFF78ABC206841690191806964
:102EB000019001987047002084F83C007047016839
:102EC00021F4806101607047016841F001010160F7
:102ED000704770472DE9FF415A4D0C4602460DF1EF
:102EE0000E06EE2101234FF47A7801278DE8C00108
:102EF0002846FEF7C9FA701CEE21224601238DE810
:102F000081012846FEF7C0FABDF80E0000BA000C99
:102F100004B0BDE8F08100BF2DE9FF47494E144CD5
:102F200090460D4602464FF47A794FF0010A0DF1B2
:102F30000D07EE210123CDE9007ACDF80890304647
:102F4000A047781CEE212A46FFF7D7FDB81CEE21DA
:102F50004246FFF7D2FD9DF80E109DF80D009DF83A
:102F60000F20090241EA0040104404B0BDE8F08798
:102F700089140008F8B50E46FF2114460546FDF7F2
:102F80001AFDA978884225D1E81CFF21FDF713FD21
:102F9000697988421ED1288800BA000CFDF746FAEC
:102FA0000D4F3946FDF78CF90C49FDF757F90C49DF
:102FB000FDF7FCF83060B5F8030000BA000CFDF72F
:102FC00035FA3946FDF77CF90649FDF747F92060E7
:102FD0000020F8BD0120F8BD00FF7F4700002F430F
:102FE000000034C20000C84242F2202000F01AB8AB
:102FF0001CB504464FF4604000F014F84FF6FF7023
:1030000089212246062300900E48FEF777F81CBD62
:1030100080B543F2A20000F005F81420BDE880401E
:10302000FDF7DCBEE0B540BA0DF1060288210223AF
:10303000ADF806004FF6FF7000900248FEF77CF9ED
:103040008CBD00BF740100207FB50020ADF80C00DE
:10305000029002A8FFF7CCFF20B114A001F010F8F5
:1030600019A009E0204D02A805F1140105F118028C
:10307000FFF780FF18B11DA001F002F87FBD1F48C7
:10308000FEF79AFB1EA000F0FBFFD5E90540FDF717
:1030900002FA054620460E46FDF7FDF902461FA03E
:1030A0000B46CDE9005600F059FB7FBD72656164A7
:1030B00020646174612066726F6D207368743330B0
:1030C000206661696C2E0000E8AFBBE58F96E5A431
:1030D000B1E8B4A5EFBC8CE7B3BBE7BB9FE5B08616
:1030E000E9878DE7BDAE0000100000206372632009
:1030F000636865636B206661696C2E00C8010020FF
:10310000E8AFBBE58F96E68890E58A9FEFBC8CE838
:1031100087AAE58AA8E59682E78B970074656D70AB
:1031200065726174757265203D2025662C20687576
:103130006D6964697479203D2025660A00000000ED
:103140007047FEF73FBBB0B590B0002414210B943C
:10315000CDE9094401A8FDF71EF84FF4E010012164
:1031600002250F904FF480300D950C910A910E902E
:10317000CDE907040920069006A8FEF793FC18B1D4
:10318000EFF3108072B6FEE74FF4806005940221E1
:10319000CDE903400F20CDE9010501A8FEF7A2FB10
:1031A00018B1EFF3108072B6FEE710B0B0BD7047F3
:1031B0000148FEF7A0BE00BFD401002070B5204A30
:1031C0000368904218BFB0F1804F2CD14C6823F0B7
:1031D0007003234390420ED0B0F1804F0BD0194CB6
:1031E000A04208D0184CA04205D0184CA04202D0F2
:1031F000174CA04203D1CC6823F4407323434E699B
:1032000023F080030C688D68334390420360C562ED
:10321000846203D002F50062904201D10969016322
:103220000121416170BD074CA042CFD0064CA042A5
:10323000CCD0064CA042C9D0054CA042C6D0CBE7AA
:10324000002C014000040040000800400034014010
:10325000000C004010B50B4C207860B100212046D6
:1032600000F81C1BA11DFDF7DDFB012803D1E1883F
:1032700005A000F073FA4FF47A70BDE81040FDF736
:10328000ADBD00BF10000020434F32E6B593E5BA54
:10329000A63A25642070706D0D0A0000406A002176
:1032A000C185C184FEF7ECBE01687346FFF7FCFCE4
:1032B0009E46026B012A03D1CA6822F01002CA603E
:1032C000202180F83E1000210163704781B090F802
:1032D0003E10222920D18368B3F5805F08D10169AF
:1032E000002941D000F128010A6803685B680AE000
:1032F000014651F8282F13B90369002BF5D0036854
:103300005B6803F07F0313700A6801320A60C18DA5
:103310000139C185090401D001B070470168CA684C
:1033200022F02002CA60CA6822F48072CA604A6928
:1033300022F001024A61202280F83E20026B012A1D
:103340001BD100220263CB6823F01003CB600B6813
:10335000DB0605D500920A68009249680091009941
:10336000818D01B0FEF78BBE0168826A49686FF3F8
:103370005F2122F8021B8262C9E701B0FFF760B843
:10338000B0B50446006804F108030ECB056925F4C6
:10339000405519432A4341F20C650261C2686369D2
:1033A000AA4319431143C1604169A26921F44071E4
:1033B000114341611149884202D0FEF731FB01E01F
:1033C000FEF738FB19214843D4E900126FF063047B
:1033D0009200B0FBF2F06422B0FBF2F303FB0400B6
:1033E000322404EB0010B0FBF2F000F0F00200F029
:1033F0000F0002EB031210448860B0BD003801409A
:10340000B0B500232224C285036480F83E400468DE
:10341000E56845F48075E560656945F0010565611D
:103420008285816280F83C30E06840F02000E060F6
:103430000020B0BD2DE9F0411D4690460F460446E0
:103440005E1C206801683940B9421CD0002EF8D0BB
:1034500035B1FDF7B5FDA0EB0800A842F1D9206811
:10346000C16821F4D071C160416921F0010141615D
:103470002020002184F83D0084F83C1084F83E00B0
:103480000320BDE8F0810020BDE8F0818148FEF70F
:10349000F9BD00BF9C48FEF7F5BD00BF7E48FEF7B2
:1034A000F1BD00BFFEE7000010B5074C00F00F03B0
:1034B000B0F1FF3F034A2344C8BF831808011870C6
:1034C00010BD00BF00E400E014ED00E0B0B5174C03
:1034D000AA20AB21A047164DAD212880AC20A047E3
:1034E0006880AE20AF21A047A880B020B121A047BE
:1034F000E880B220B321A0472881B420B521A0479D
:103500006881B620B721A047A881B820B921A0477B
:10351000E881BA20BB21A0472882BC20BD21A0475A
:103520006882BE20BF21A047A882B0BDD52E00086A
:1035300008010020E0B50190564801A901220A23A4
:10354000FEF796FF01988CBD8CB0FEF745F9FFF7AA
:10355000FAFDFFF7A5F9FFF709FAFFF72FFAFFF7D2
:1035600063FAFFF7F3F9FFF787FAFFF771FAFFF74E
:1035700047FAFFF70DFAFFF74BFDFFF735FD3BA1CB
:1035800036A2002808BF1146084600F079FDDFF892
:1035900080A15D4C09220AF122012046FEF738FF86
:1035A000374920460922FEF7BEFF3648FEF76CFC7D
:1035B0000AF110000B909AF801000128FBD10020BD
:1035C0008AF80100FFF740FD2F4C3220A047FDF79D
:1035D000CDF93220A0470B98FDF762FA3220A047C0
:1035E000FFF738FE3220A04700F058F83220A047FD
:1035F000DAF81800DAE90476FCF74DFF834638461E
:103600008846FCF748FF074630468946FCF743FFEB
:10361000BAF80A50BAF80C400246BAF804000B4651
:10362000BAF806100DF1080CBAF80860CDE908796F
:10363000CDE900B8CDE90554144CACE84300144979
:10364000204600F09BF813482146C822FEF76BFF86
:1036500011482146C822FEF766FFACE77368743351
:103660003020696E6974206F6B2E000073687433AC
:103670003020696E6974206661696C2E000000005C
:10368000C5400008D4010020DD0D00083B000020EB
:10369000CE4000081C020020A4020020B0B50A2081
:1036A000FDF79CFB184819490922FEF73CFF0A2048
:1036B000FDF794FB164DA878F8B1002005F122041F
:1036C0000921A8702046FDF79CF995F82A10884238
:1036D00010D105F1080105F10C0205F10A0320469D
:1036E000FDF7BEF948B1AB892A8969890EA000F0BF
:1036F00035F802E007A000F0C3FC4FF47A70BDE893
:10370000B040FDF76BBB00BF60020020BC4000086A
:1037100010000020E695B0E68DAEE6A0A1E9AA8CE7
:10372000E5A4B1E8B4A50000504D20312E303D2570
:10373000642075672F6D2C504D322E35203D20258D
:10374000642075672F6D2C20504D3130203D202591
:10375000642075672F6D200D0A0000000FB4054B23
:1037600010B503A9044A029800F0EEF810BC5DF809
:1037700014FB000035350008000000200FB4084B92
:1037800010B504A902AA039800F0DEF8044602A9C5
:10379000002000F070FC204610BC5DF814FB000017
:1037A0007740000802E008C8121F08C1002AFAD1B9
:1037B00070477047002001E001C1121F002AFBD1B1
:1037C000704700002DE9FF5F82B00021DDE9043081
:1037D000020DDDF840B0034318D044F61050A2F2B9
:1037E000FF3242431514119801281FD0A5EB0B009E
:1037F000401C5FEA000A4FF000064E4FDFF8389198
:10380000B046504615D5CAF1000413E011980124C2
:103810004AA3012801D16FEA0B010298119AC0E96D
:103820000031C0E9024206B0BDE8F09FCBF10000D4
:10383000DFE704460021404A491842EB0450CDE935
:10384000001012E0E00707D032463B4640464946AA
:10385000FCF7B6FF8046894632463B46104619467D
:10386000FCF7AEFF06460F466410002CEAD1DDE9F6
:103870000401DDE90023BAF1000F06DAFCF7A0FF2E
:1038800042464B46FCF79CFF05E0FCF757FD4246DD
:103890004B46FCF753FD04460E460022284BFDF72D
:1038A00019F803D84FF0FF30014607E00022254BFE
:1038B00020463146FCF7DDFEFCF7F4FF102409E05A
:1038C000002C0ADB0A220023FCF70EFE039B303299
:1038D0001A55641E50EA0102F2D1641C039AC4F125
:1038E00011031444119A012A03D0012208430DD177
:1038F0000AE0084304D000204FF0110B119072E74A
:10390000A3EB0B056D1E0DE05B4504DD4FF00002DF
:1039100005F1010504E003DA4FF00002A5F101050D
:10392000002AECD002981199C0E90231C0E90045A3
:1039300079E70000000014400000F03F3000000074
:103940000000F0430000E03F2DE9FF4F95B09B469B
:103950008946064600250FE2252877D10024274610
:10396000F84A0121059400E0044316F8013F203B8A
:1039700001FA03F01042F7D130782A2811D06FF005
:103980002F033078A0F13002092A16D8059A44F0A6
:10399000020402EB820203EB42021044761C059003
:1039A000EFE759F8042B0592002A03DA504244F459
:1039B0000054059044F00204761C30782E2816D16D
:1039C00016F8010F44F004042A280DD06FF02F02DE
:1039D0003078A0F13003092B09D807EB870302EBFD
:1039E0004303C718761CF3E759F8047B761C30783C
:1039F0006C280FD006DC4C2817D068280DD06A2818
:103A000014D104E0742810D07A280FD10DE044F4CA
:103A100000140AE044F4801401E044F44014727885
:103A2000824202D104F58014761C761C3078662818
:103A30000BD013DC582877D009DC002875D0452836
:103A4000F6D04628F4D047281AD19DE118E0632823
:103A500035D0642879D0652812D195E1702873D0CB
:103A600008DC6728F1D069286FD06E280DD06F2848
:103A700006D1B5E073282CD0752875D0782874D07D
:103A80005A46179990476D1C75E1C4F302500228FD
:103A900009D003280DD0D9F8001004280DD00D60EE
:103AA00009F1040967E1D9F80010EA17C1E90052E9
:103AB000F6E7D9F800100D80F2E70D70F0E719F87D
:103AC000041B8DF8001000208DF80100EA4601204B
:103AD00003E059F804AB4FF0FF3061074FF00001ED
:103AE00002D40DE008F101018846B9420FDA8045A1
:103AF000F8DB1AF808100029F4D108E008F10101F8
:103B000088468142FADB1AF808100029F6D1059898
:103B10005B46A0EB080721463846179A00F094FA56
:103B2000284400EB080507E04DE029E10DE01AF814
:103B3000010B5A4617999047B8F10108F7D25B4636
:103B400021463846179A13E142E00A220092C4F354
:103B500002524FF0000A022A08D059F804CB032A77
:103B60004FEAEC710AD00DE029E02AE009F10701E3
:103B700021F00702F2E802C1914609E00FFA8CFC3D
:103B80004FEAEC71042A03D14FFA8CFC4FEAEC7136
:103B9000002907DA0A460021DCF1000C61EB020182
:103BA0002D2202E0220504D52B228DF804200122CB
:103BB00003E0E20701D02022F7E7904659E00A210E
:103BC00002E010220DE010214FF0000A00910BE0FE
:103BD00010224FF0000A44F004040827009203E08A
:103BE00008224FF0000A0092C4F30252022A05D0C4
:103BF00059F804CB0021032A08D009E009F1070194
:103C000021F00702F2E802C1914605E01FFA8CFCA0
:103C1000042A01D10CF0FF0C4FF00008220728D530
:103C2000702806D0009B83F0100353EA0A0305D0E6
:103C30000EE040228DF80420012208E05CEA010237
:103C400006D030228DF804208DF80500022290461F
:103C5000009B83F0080353EA0A030AD15CEA0102DD
:103C600001D1620705D530228DF804204FF00108FC
:103C70007F1E582804D034A003900EA802900DE0B7
:103C800036A0F9E753466046009AFCF72DFC8446BF
:103C90000398825C0298401E029002705CEA010068
:103CA000F0D1029806A9081A00F1200A600702D58F
:103CB00024F4803400E00127574502DDA7EB0A0019
:103CC00000E0002000EB0A01009005984144401AF2
:103CD0000590E00306D45B462146179A059800F04C
:103CE000B3F90544002706E001A85A46C05D1799BC
:103CF00090476D1C7F1C4745F6DBE0030CD55B4607
:103D00002146179A059800F09FF9054404E03020F9
:103D10005A46179990476D1C0099481E009000293B
:103D2000F5DC08E0029802995A460078491C029195
:103D3000179990476D1CBAF10001AAF1010AF1DC54
:103D400065E100000928010030313233343536375F
:103D500038396162636465660000000030313233D7
:103D60003435363738394142434445460000000077
:103D700000F058F90544761C307800287FF4ECAD4B
:103D800019B02846BDE8F08F620700D4062709F174
:103D9000070222F0070CFCE80223E14603F000488A
:103DA0005FEA080C02D00FF2702C0DE05FEA045CB1
:103DB00002D50FF2682C07E05FEAC47C02D00FF254
:103DC000602C01E0AFF2700C4FF0FF3823F000439D
:103DD000CDF850C065280CD006DC452809D046280F
:103DE0001DD047283DD13DE0662818D067287ED1F8
:103DF00038E00021112F01DB112000E0781CCDE913
:103E0000000106A90EA8FFF7DDFCDDE90F010E9AFF
:103E100003910021009207F1010A04914DE04FF057
:103E200000400097CDE9011006A90EA8FFF7CAFCD3
:103E3000DDE90F0203920E9B11990022DDF80CA020
:103E40000093049211B9791C00EB010AB7EB0A0048
:103E500004D4C0F1FF3007F1010A0490AAEB070077
:103E6000019044E0012F00DA01270021112F01DD2C
:103E7000112000E03846CDE9000106A90EA8FFF7A1
:103E8000A1FCDDE90F010E9A03910021049100923B
:103E9000BA4621070CD40399514500DA8A46BAF193
:103EA000010F05DD009AAAF10101515C302908D00B
:103EB000B84202DA10F1040F06DA0121CDE901104F
:103EC00015E0AAF10101E9E7002805DC04990144A5
:103ED0000491AAEB000102E0411C514500DD8A4635
:103EE0000499401A401C01904FF0004002902007B6
:103EF00004D40198504501DBCDF8048000208DF8F2
:103F00004F0002980DF14F07B0F1004F25D02B2044
:103F10000E9002984FF0020800280CDA40420290FE
:103F20002D200E9007E00A210298FCF7C7FA3031E5
:103F3000029007F8011DB8F10001A8F10108F2DCB8
:103F400002980028EFD1791E0E980870307800F0A2
:103F5000200040F0450007F8020D12A8C01B00F138
:103F600007081498007800B1012000EB0A010198BD
:103F700001EBE07105984144401A401E0590E003B2
:103F800006D45B462146179A059800F05DF8054473
:103F90001498007818B15A46179990476D1CE003A1
:103FA00024D55B462146179A059800F04DF8054444
:103FB0001CE00498002807DBDDE90301884203DDEB
:103FC0000098405C179901E0179930205A469047B5
:103FD000049805F10105401C04900198401E0190D1
:103FE00004D12E205A46179990476D1CBAF1000152
:103FF000AAF1010ADDDC05E017F8010B5A46179912
:1040000090476D1CB8F10001A8F10108F4DC5B4693
:104010002146179A0598ABE62D0000002B00000002
:10402000200000002DE9F041044600251E461746F9
:10403000880404D405E039462020B0476D1C641E76
:10404000F9D52846BDE8F0812DE9F0410446002568
:104050001E469046C80301D5302700E0202788047B
:1040600004D505E041463846B0476D1C641EF9D5BD
:104070002846BDE8F0810A68531C0B601070704739
:1040800010B5044601E0FFF755FA14F8010B044996
:104090000028F8D1BDE810400A20FFF74BBA000015
:1040A00000000020000000000000000001020304E6
:1040B000060708090000000001020304FF01860052
:1040C0000000000079FF01784100000000467B22DB
:1040D00074656D7065726174757265223A252E3251
:1040E000662C2268756D6964697479223A252E32CE
:1040F000662C224C7578223A25642C22434F3222BA
:104100003A25642C22504D322E35223A25642C2239
:10411000504D312E30223A25642C22504D31302220
:104120003A25642C227072657373757265223A2584
:104130002E32667D230D0A00584100080000002041
:1041400010000000A437000868410008100000209B
:1041500020070000B4370008000000000100000044
:08416000100000000024F4002F
:0400000508000131BD
:00000001FF
