Component: ARM Compiler 6.16 Tool: armlink [5dfeaa00]

==============================================================================

Section Cross References

    startup_stm32f103xe.o(RESET) refers to startup_stm32f103xe.o(STACK) for __initial_sp
    startup_stm32f103xe.o(RESET) refers to startup_stm32f103xe.o(.text) for Reset_Handler
    startup_stm32f103xe.o(RESET) refers to stm32f1xx_it.o(.text.NMI_Handler) for NMI_Handler
    startup_stm32f103xe.o(RESET) refers to stm32f1xx_it.o(.text.HardFault_Handler) for HardFault_Handler
    startup_stm32f103xe.o(RESET) refers to stm32f1xx_it.o(.text.MemManage_Handler) for MemManage_Handler
    startup_stm32f103xe.o(RESET) refers to stm32f1xx_it.o(.text.BusFault_Handler) for BusFault_Handler
    startup_stm32f103xe.o(RESET) refers to stm32f1xx_it.o(.text.UsageFault_Handler) for UsageFault_Handler
    startup_stm32f103xe.o(RESET) refers to stm32f1xx_it.o(.text.SVC_Handler) for SVC_Handler
    startup_stm32f103xe.o(RESET) refers to stm32f1xx_it.o(.text.DebugMon_Handler) for DebugMon_Handler
    startup_stm32f103xe.o(RESET) refers to stm32f1xx_it.o(.text.PendSV_Handler) for PendSV_Handler
    startup_stm32f103xe.o(RESET) refers to stm32f1xx_it.o(.text.SysTick_Handler) for SysTick_Handler
    startup_stm32f103xe.o(RESET) refers to stm32f1xx_it.o(.text.USART1_IRQHandler) for USART1_IRQHandler
    startup_stm32f103xe.o(RESET) refers to stm32f1xx_it.o(.text.USART2_IRQHandler) for USART2_IRQHandler
    startup_stm32f103xe.o(RESET) refers to stm32f1xx_it.o(.text.USART3_IRQHandler) for USART3_IRQHandler
    startup_stm32f103xe.o(RESET) refers to stm32f1xx_it.o(.text.TIM6_IRQHandler) for TIM6_IRQHandler
    startup_stm32f103xe.o(.text) refers to system_stm32f1xx.o(.text.SystemInit) for SystemInit
    startup_stm32f103xe.o(.text) refers to entry.o(.ARM.Collect$$$$00000000) for __main
    main.o(.text.main) refers to stm32f1xx_hal.o(.text.HAL_Init) for HAL_Init
==============================================================================

Removing Unused input sections from the image.

    Removing startup_stm32f103xe.o(HEAP), (512 bytes).
    Removing main.o(.text), (0 bytes).
    Removing main.o(.ARM.exidx.text.main), (8 bytes).
    Removing main.o(.ARM.exidx.text.SystemClock_Config), (8 bytes).
    Removing main.o(.ARM.exidx.text.SHT30_Task), (8 bytes).
    Removing main.o(.ARM.exidx.text.BH17h0_Task), (8 bytes).
    Removing main.o(.ARM.exidx.text.TestCO2Task), (8 bytes).
    Removing main.o(.ARM.exidx.text.testGetPMSensor), (8 bytes).
    Removing main.o(.ARM.exidx.text.Error_Handler), (8 bytes).
    Removing main.o(.ARM.exidx.text.fputc), (8 bytes).
    Removing main.o(.ARM.exidx.text.HAL_UART_RxCpltCallback), (8 bytes).
    Removing main.o(.ARM.exidx.text.HAL_TIM_PeriodElapsedCallback), (8 bytes).
    Removing main.o(.bss.temperature2), (4 bytes).
    Removing main.o(.ARM.use_no_argv), (4 bytes).
    Removing gpio.o(.text), (0 bytes).
    Removing gpio.o(.ARM.exidx.text.MX_GPIO_Init), (8 bytes).
    Removing i2c.o(.text), (0 bytes).
    Removing i2c.o(.ARM.exidx.text.MX_I2C1_Init), (8 bytes).
==============================================================================

Image Symbol Table

    Local Symbols

    Symbol Name                              Value     Ov Type        Size  Object(Section)

    ../clib/division.s                       0x00000000   Number         0  aeabi_sdiv.o ABSOLUTE
    ../clib/microlib/division.c              0x00000000   Number         0  uidiv.o ABSOLUTE
    ../clib/microlib/division.c              0x00000000   Number         0  uldiv.o ABSOLUTE
    ../clib/microlib/init/entry.s            0x00000000   Number         0  entry.o ABSOLUTE
    ../clib/microlib/init/entry.s            0x00000000   Number         0  entry2.o ABSOLUTE
    ../clib/microlib/init/entry.s            0x00000000   Number         0  entry5.o ABSOLUTE
    ../clib/microlib/init/entry.s            0x00000000   Number         0  entry7a.o ABSOLUTE
    ../clib/microlib/init/entry.s            0x00000000   Number         0  entry7b.o ABSOLUTE
    ../clib/microlib/init/entry.s            0x00000000   Number         0  entry8a.o ABSOLUTE
    ../clib/microlib/init/entry.s            0x00000000   Number         0  entry8b.o ABSOLUTE
    ../clib/microlib/init/entry.s            0x00000000   Number         0  entry9a.o ABSOLUTE
    ../clib/microlib/init/entry.s            0x00000000   Number         0  entry9b.o ABSOLUTE
    ../clib/microlib/init/entry.s            0x00000000   Number         0  entry10a.o ABSOLUTE
    ../clib/microlib/init/entry.s            0x00000000   Number         0  entry10b.o ABSOLUTE
    ../clib/microlib/init/entry.s            0x00000000   Number         0  entry11a.o ABSOLUTE
    ../clib/microlib/init/entry.s            0x00000000   Number         0  entry11b.o ABSOLUTE
    ../clib/microlib/longlong.c              0x00000000   Number         0  llushr.o ABSOLUTE
    ../clib/microlib/longlong.c              0x00000000   Number         0  llshl.o ABSOLUTE
    ../clib/microlib/longlong.c              0x00000000   Number         0  llsshr.o ABSOLUTE
    ../clib/microlib/printf/printf.c         0x00000000   Number         0  printfb.o ABSOLUTE
    ../clib/microlib/printf/printf.c         0x00000000   Number         0  printf0.o ABSOLUTE
    ../clib/microlib/printf/printf.c         0x00000000   Number         0  printf1.o ABSOLUTE
    ../clib/microlib/printf/printf.c         0x00000000   Number         0  printf2.o ABSOLUTE
    ../clib/microlib/printf/printf.c         0x00000000   Number         0  printf3.o ABSOLUTE
    ../clib/microlib/printf/printf.c         0x00000000   Number         0  printf4.o ABSOLUTE
    ../clib/microlib/printf/printf.c         0x00000000   Number         0  printf5.o ABSOLUTE
    ../clib/microlib/printf/printf.c         0x00000000   Number         0  printf6.o ABSOLUTE
    ../clib/microlib/printf/printf.c         0x00000000   Number         0  printf7.o ABSOLUTE
    ../clib/microlib/printf/printf.c         0x00000000   Number         0  printf8.o ABSOLUTE
    ../clib/microlib/printf/printf.c         0x00000000   Number         0  printfa.o ABSOLUTE
    ../clib/microlib/printf/stubs.s          0x00000000   Number         0  printfstubs.o ABSOLUTE
    ../clib/microlib/stdio/puts.c            0x00000000   Number         0  puts.o ABSOLUTE
    ../clib/microlib/stdio/puts.c            0x00000000   Number         0  puts_e.o ABSOLUTE
    ../clib/microlib/stdio/streams.c         0x00000000   Number         0  stdout.o ABSOLUTE
    ../clib/microlib/string/memset.c         0x00000000   Number         0  memseta.o ABSOLUTE
    ../clib/microlib/stubs.s                 0x00000000   Number         0  iusefp.o ABSOLUTE
    ../fplib/microlib/f2d.c                  0x00000000   Number         0  f2d.o ABSOLUTE
    ../fplib/microlib/fpadd.c                0x00000000   Number         0  fadd.o ABSOLUTE
    ../fplib/microlib/fpadd.c                0x00000000   Number         0  dadd.o ABSOLUTE
    ../fplib/microlib/fpdiv.c                0x00000000   Number         0  fdiv.o ABSOLUTE
    ../fplib/microlib/fpdiv.c                0x00000000   Number         0  ddiv.o ABSOLUTE
    ../fplib/microlib/fpepilogue.c           0x00000000   Number         0  fepilogue.o ABSOLUTE
    ../fplib/microlib/fpepilogue.c           0x00000000   Number         0  depilogue.o ABSOLUTE
    ../fplib/microlib/fpfix.c                0x00000000   Number         0  dfixi.o ABSOLUTE
    ../fplib/microlib/fpfix.c                0x00000000   Number         0  dfixul.o ABSOLUTE
    ../fplib/microlib/fpflt.c                0x00000000   Number         0  fflti.o ABSOLUTE
    ../fplib/microlib/fpflt.c                0x00000000   Number         0  ffltui.o ABSOLUTE
    ../fplib/microlib/fpflt.c                0x00000000   Number         0  dflti.o ABSOLUTE
    ../fplib/microlib/fpmul.c                0x00000000   Number         0  fmul.o ABSOLUTE
    ../fplib/microlib/fpmul.c                0x00000000   Number         0  dmul.o ABSOLUTE
    BMP180_i2c_drv.c                         0x00000000   Number         0  bmp180_i2c_drv.o ABSOLUTE
    bh1750_i2c_drv.c                         0x00000000   Number         0  bh1750_i2c_drv.o ABSOLUTE
    cdrcmple.s                               0x00000000   Number         0  cdrcmple.o ABSOLUTE
    dc.s                                     0x00000000   Number         0  dc.o ABSOLUTE
    gpio.c                                   0x00000000   Number         0  gpio.o ABSOLUTE
    handlers.s                               0x00000000   Number         0  handlers.o ABSOLUTE
    i2c.c                                    0x00000000   Number         0  i2c.o ABSOLUTE
    init.s                                   0x00000000   Number         0  init.o ABSOLUTE
    jw01CO2_uart3_drv.c                      0x00000000   Number         0  jw01co2_uart3_drv.o ABSOLUTE
    main.c                                   0x00000000   Number         0  main.o ABSOLUTE
    sht30_i2c_drv.c                          0x00000000   Number         0  sht30_i2c_drv.o ABSOLUTE
    startup_stm32f103xe.s                    0x00000000   Number         0  startup_stm32f103xe.o ABSOLUTE
    stm32f1xx_hal.c                          0x00000000   Number         0  stm32f1xx_hal.o ABSOLUTE
    stm32f1xx_hal_cortex.c                   0x00000000   Number         0  stm32f1xx_hal_cortex.o ABSOLUTE
    stm32f1xx_hal_dma.c                      0x00000000   Number         0  stm32f1xx_hal_dma.o ABSOLUTE
    stm32f1xx_hal_exti.c                     0x00000000   Number         0  stm32f1xx_hal_exti.o ABSOLUTE
    stm32f1xx_hal_flash.c                    0x00000000   Number         0  stm32f1xx_hal_flash.o ABSOLUTE
    stm32f1xx_hal_flash_ex.c                 0x00000000   Number         0  stm32f1xx_hal_flash_ex.o ABSOLUTE
    stm32f1xx_hal_gpio.c                     0x00000000   Number         0  stm32f1xx_hal_gpio.o ABSOLUTE
    stm32f1xx_hal_gpio_ex.c                  0x00000000   Number         0  stm32f1xx_hal_gpio_ex.o ABSOLUTE
    stm32f1xx_hal_i2c.c                      0x00000000   Number         0  stm32f1xx_hal_i2c.o ABSOLUTE
    stm32f1xx_hal_msp.c                      0x00000000   Number         0  stm32f1xx_hal_msp.o ABSOLUTE
    stm32f1xx_hal_pwr.c                      0x00000000   Number         0  stm32f1xx_hal_pwr.o ABSOLUTE
    stm32f1xx_hal_rcc.c                      0x00000000   Number         0  stm32f1xx_hal_rcc.o ABSOLUTE
    stm32f1xx_hal_rcc_ex.c                   0x00000000   Number         0  stm32f1xx_hal_rcc_ex.o ABSOLUTE
    stm32f1xx_hal_tim.c                      0x00000000   Number         0  stm32f1xx_hal_tim.o ABSOLUTE
    stm32f1xx_hal_tim_ex.c                   0x00000000   Number         0  stm32f1xx_hal_tim_ex.o ABSOLUTE
    stm32f1xx_hal_uart.c                     0x00000000   Number         0  stm32f1xx_hal_uart.o ABSOLUTE
    stm32f1xx_it.c                           0x00000000   Number         0  stm32f1xx_it.o ABSOLUTE
    system_stm32f1xx.c                       0x00000000   Number         0  system_stm32f1xx.o ABSOLUTE
    tim.c                                    0x00000000   Number         0  tim.o ABSOLUTE
    timer6.c                                 0x00000000   Number         0  timer6.o ABSOLUTE
    usart.c                                  0x00000000   Number         0  usart.o ABSOLUTE
    zh03b_uart2_drv.c                        0x00000000   Number         0  zh03b_uart2_drv.o ABSOLUTE
    RESET                                    0x08000000   Section      304  startup_stm32f103xe.o(RESET)
    .ARM.Collect$$$$00000000                 0x08000130   Section        0  entry.o(.ARM.Collect$$$$00000000)
    .ARM.Collect$$$$00000001                 0x08000130   Section        4  entry2.o(.ARM.Collect$$$$00000001)
    .ARM.Collect$$$$00000004                 0x08000134   Section        4  entry5.o(.ARM.Collect$$$$00000004)
    .ARM.Collect$$$$00000008                 0x08000138   Section        0  entry7b.o(.ARM.Collect$$$$00000008)
    .ARM.Collect$$$$0000000A                 0x08000138   Section        0  entry8b.o(.ARM.Collect$$$$0000000A)
    .ARM.Collect$$$$0000000B                 0x08000138   Section        8  entry9a.o(.ARM.Collect$$$$0000000B)
    __lit__00000000                          0x08000140   Data           4  entry2.o(.ARM.Collect$$$$00002712)
    .ARM.Collect$$$$0000000D                 0x08000140   Section        0  entry10a.o(.ARM.Collect$$$$0000000D)
    .ARM.Collect$$$$0000000F                 0x08000140   Section        0  entry11a.o(.ARM.Collect$$$$0000000F)
    .ARM.Collect$$$$00002712                 0x08000140   Section        4  entry2.o(.ARM.Collect$$$$00002712)
    .text                                    0x08000144   Section       36  startup_stm32f103xe.o(.text)
    .text                                    0x08000168   Section        0  llushr.o(.text)
    .text                                    0x08000188   Section        0  memseta.o(.text)
    .text                                    0x080001ac   Section        0  fadd.o(.text)
    .text                                    0x0800025c   Section        0  fmul.o(.text)
    .text                                    0x080002c0   Section        0  fdiv.o(.text)
    .text                                    0x0800033c   Section        0  ddiv.o(.text)
    .text                                    0x0800041a   Section        0  fflti.o(.text)
    .text                                    0x0800042c   Section        0  ffltui.o(.text)
    .text                                    0x08000436   Section        0  dflti.o(.text)
    .text                                    0x08000458   Section        0  dfixi.o(.text)
    .text                                    0x08000496   Section        0  f2d.o(.text)
    .text                                    0x080004bc   Section        0  uidiv.o(.text)
    .text                                    0x080004e8   Section        0  uldiv.o(.text)
    .text                                    0x0800054a   Section        0  iusefp.o(.text)
    .text                                    0x0800054a   Section        0  fepilogue.o(.text)
    .text                                    0x080005b8   Section        0  depilogue.o(.text)
    .text                                    0x08000672   Section        0  dadd.o(.text)
    .text                                    0x080007c0   Section        0  dmul.o(.text)
    .text                                    0x080008a4   Section        0  dfixul.o(.text)
    .text                                    0x080008d4   Section       48  cdrcmple.o(.text)
    .text                                    0x08000904   Section       36  init.o(.text)
    .text                                    0x08000928   Section        0  llshl.o(.text)
    .text                                    0x08000946   Section        0  llsshr.o(.text)
    [Anonymous Symbol]                       0x0800096c   Section        0  main.o(.text.BH17h0_Task)
    __arm_cp.3_0                             0x08000990   Number         4  main.o(.text.BH17h0_Task)
    [Anonymous Symbol]                       0x080009b4   Section        0  stm32f1xx_it.o(.text.BusFault_Handler)
    [Anonymous Symbol]                       0x080009b6   Section        0  sht30_i2c_drv.o(.text.CheckCrc8)
    [Anonymous Symbol]                       0x080009e6   Section        0  stm32f1xx_it.o(.text.DebugMon_Handler)
    [Anonymous Symbol]                       0x080009e8   Section        0  main.o(.text.Error_Handler)
    [Anonymous Symbol]                       0x080009f0   Section        0  jw01co2_uart3_drv.o(.text.FucCheckCO2Sum)
    [Anonymous Symbol]                       0x08000a02   Section        0  zh03b_uart2_drv.o(.text.FucCheckSum)
    [Anonymous Symbol]                       0x08000a24   Section        0  jw01co2_uart3_drv.o(.text.GetCO2Value)
    [Anonymous Symbol]                       0x08000a60   Section        0  zh03b_uart2_drv.o(.text.GetPMValues)
    [Anonymous Symbol]                       0x08000aa0   Section        0  bmp180_i2c_drv.o(.text.GetRawData)
    __arm_cp.3_0                             0x08000c08   Number         4  bmp180_i2c_drv.o(.text.GetRawData)
    __arm_cp.3_1                             0x08000c0c   Number         4  bmp180_i2c_drv.o(.text.GetRawData)
    __arm_cp.3_2                             0x08000c10   Number         4  bmp180_i2c_drv.o(.text.GetRawData)
    __arm_cp.3_3                             0x08000c14   Number         4  bmp180_i2c_drv.o(.text.GetRawData)
    __arm_cp.3_4                             0x08000c18   Number         4  bmp180_i2c_drv.o(.text.GetRawData)
    __arm_cp.3_5                             0x08000c1c   Number         4  bmp180_i2c_drv.o(.text.GetRawData)
    __arm_cp.3_6                             0x08000c20   Number         4  bmp180_i2c_drv.o(.text.GetRawData)
    [Anonymous Symbol]                       0x08000c44   Section        0  bh1750_i2c_drv.o(.text.Get_BH1750_Value)
    __arm_cp.0_0                             0x08000ca4   Number         4  bh1750_i2c_drv.o(.text.Get_BH1750_Value)
    __arm_cp.0_1                             0x08000ca8   Number         4  bh1750_i2c_drv.o(.text.Get_BH1750_Value)
    [Anonymous Symbol]                       0x08000cac   Section        0  stm32f1xx_hal_dma.o(.text.HAL_DMA_Abort)
    [Anonymous Symbol]                       0x08000cec   Section        0  stm32f1xx_hal_dma.o(.text.HAL_DMA_Abort_IT)
    __arm_cp.6_0                             0x08000db0   Number         4  stm32f1xx_hal_dma.o(.text.HAL_DMA_Abort_IT)
    __arm_cp.6_1                             0x08000db4   Number         4  stm32f1xx_hal_dma.o(.text.HAL_DMA_Abort_IT)
    __arm_cp.6_2                             0x08000db8   Number         4  stm32f1xx_hal_dma.o(.text.HAL_DMA_Abort_IT)
    __arm_cp.6_3                             0x08000dbc   Number         4  stm32f1xx_hal_dma.o(.text.HAL_DMA_Abort_IT)
    __arm_cp.6_4                             0x08000dc0   Number         4  stm32f1xx_hal_dma.o(.text.HAL_DMA_Abort_IT)
    __arm_cp.6_5                             0x08000dc4   Number         4  stm32f1xx_hal_dma.o(.text.HAL_DMA_Abort_IT)
    __arm_cp.6_6                             0x08000dc8   Number         4  stm32f1xx_hal_dma.o(.text.HAL_DMA_Abort_IT)
    __arm_cp.6_7                             0x08000dcc   Number         4  stm32f1xx_hal_dma.o(.text.HAL_DMA_Abort_IT)
    __arm_cp.6_8                             0x08000dd0   Number         4  stm32f1xx_hal_dma.o(.text.HAL_DMA_Abort_IT)
    __arm_cp.6_9                             0x08000dd4   Number         4  stm32f1xx_hal_dma.o(.text.HAL_DMA_Abort_IT)
    __arm_cp.6_10                            0x08000dd8   Number         4  stm32f1xx_hal_dma.o(.text.HAL_DMA_Abort_IT)
    [Anonymous Symbol]                       0x08000ddc   Section        0  stm32f1xx_hal.o(.text.HAL_Delay)
    __arm_cp.10_0                            0x08000dfc   Number         4  stm32f1xx_hal.o(.text.HAL_Delay)
    [Anonymous Symbol]                       0x08000e00   Section        0  stm32f1xx_hal_gpio.o(.text.HAL_GPIO_Init)
    __arm_cp.0_0                             0x08000f74   Number         4  stm32f1xx_hal_gpio.o(.text.HAL_GPIO_Init)
    __arm_cp.0_1                             0x08000f78   Number         4  stm32f1xx_hal_gpio.o(.text.HAL_GPIO_Init)
    __arm_cp.0_2                             0x08000f7c   Number         4  stm32f1xx_hal_gpio.o(.text.HAL_GPIO_Init)
    __arm_cp.0_3                             0x08000f80   Number         4  stm32f1xx_hal_gpio.o(.text.HAL_GPIO_Init)
    __arm_cp.0_4                             0x08000f84   Number         4  stm32f1xx_hal_gpio.o(.text.HAL_GPIO_Init)
    __arm_cp.0_5                             0x08000f88   Number         4  stm32f1xx_hal_gpio.o(.text.HAL_GPIO_Init)
    __arm_cp.0_6                             0x08000f8c   Number         4  stm32f1xx_hal_gpio.o(.text.HAL_GPIO_Init)
    __arm_cp.0_7                             0x08000f90   Number         4  stm32f1xx_hal_gpio.o(.text.HAL_GPIO_Init)
    __arm_cp.0_8                             0x08000f94   Number         4  stm32f1xx_hal_gpio.o(.text.HAL_GPIO_Init)
    __arm_cp.0_9                             0x08000f98   Number         4  stm32f1xx_hal_gpio.o(.text.HAL_GPIO_Init)
    __arm_cp.0_10                            0x08000f9c   Number         4  stm32f1xx_hal_gpio.o(.text.HAL_GPIO_Init)
    __arm_cp.0_11                            0x08000fa0   Number         4  stm32f1xx_hal_gpio.o(.text.HAL_GPIO_Init)
    [Anonymous Symbol]                       0x08000fa4   Section        0  stm32f1xx_hal_gpio.o(.text.HAL_GPIO_TogglePin)
    [Anonymous Symbol]                       0x08000fb4   Section        0  stm32f1xx_hal_gpio.o(.text.HAL_GPIO_WritePin)
    [Anonymous Symbol]                       0x08000fc0   Section        0  stm32f1xx_hal.o(.text.HAL_GetTick)
    __arm_cp.6_0                             0x08000fc8   Number         4  stm32f1xx_hal.o(.text.HAL_GetTick)
    [Anonymous Symbol]                       0x08000fcc   Section        0  stm32f1xx_hal_i2c.o(.text.HAL_I2C_Init)
    __arm_cp.0_0                             0x080010e8   Number         4  stm32f1xx_hal_i2c.o(.text.HAL_I2C_Init)
    __arm_cp.0_1                             0x080010ec   Number         4  stm32f1xx_hal_i2c.o(.text.HAL_I2C_Init)
    __arm_cp.0_2                             0x080010f0   Number         4  stm32f1xx_hal_i2c.o(.text.HAL_I2C_Init)
    __arm_cp.0_3                             0x080010f4   Number         4  stm32f1xx_hal_i2c.o(.text.HAL_I2C_Init)
    __arm_cp.0_4                             0x080010f8   Number         4  stm32f1xx_hal_i2c.o(.text.HAL_I2C_Init)
    [Anonymous Symbol]                       0x080010fc   Section        0  stm32f1xx_hal_i2c.o(.text.HAL_I2C_Master_Receive)
    [Anonymous Symbol]                       0x08001338   Section        0  stm32f1xx_hal_i2c.o(.text.HAL_I2C_Master_Transmit)
    __arm_cp.4_0                             0x08001484   Number         4  stm32f1xx_hal_i2c.o(.text.HAL_I2C_Master_Transmit)
    [Anonymous Symbol]                       0x08001488   Section        0  stm32f1xx_hal_i2c.o(.text.HAL_I2C_Mem_Read)
    __arm_cp.24_2                            0x080015fc   Number         4  stm32f1xx_hal_i2c.o(.text.HAL_I2C_Mem_Read)
    [Anonymous Symbol]                       0x08001600   Section        0  stm32f1xx_hal_i2c.o(.text.HAL_I2C_Mem_Write)
    __arm_cp.22_0                            0x080016e8   Number         4  stm32f1xx_hal_i2c.o(.text.HAL_I2C_Mem_Write)
    __arm_cp.22_1                            0x080016ec   Number         4  stm32f1xx_hal_i2c.o(.text.HAL_I2C_Mem_Write)
    [Anonymous Symbol]                       0x080016f0   Section        0  i2c.o(.text.HAL_I2C_MspInit)
    __arm_cp.2_0                             0x0800175c   Number         4  i2c.o(.text.HAL_I2C_MspInit)
    __arm_cp.2_1                             0x08001760   Number         4  i2c.o(.text.HAL_I2C_MspInit)
    __arm_cp.2_3                             0x08001764   Number         4  i2c.o(.text.HAL_I2C_MspInit)
    [Anonymous Symbol]                       0x08001768   Section        0  stm32f1xx_hal.o(.text.HAL_IncTick)
    __arm_cp.5_1                             0x08001778   Number         4  stm32f1xx_hal.o(.text.HAL_IncTick)
    [Anonymous Symbol]                       0x0800177c   Section        0  stm32f1xx_hal.o(.text.HAL_Init)
    [Anonymous Symbol]                       0x0800179c   Section        0  stm32f1xx_hal.o(.text.HAL_InitTick)
    __arm_cp.1_0                             0x080017d4   Number         4  stm32f1xx_hal.o(.text.HAL_InitTick)
    [Anonymous Symbol]                       0x080017d8   Section        0  stm32f1xx_hal_msp.o(.text.HAL_MspInit)
    __arm_cp.0_0                             0x08001810   Number         4  stm32f1xx_hal_msp.o(.text.HAL_MspInit)
    __arm_cp.0_1                             0x08001814   Number         4  stm32f1xx_hal_msp.o(.text.HAL_MspInit)
    [Anonymous Symbol]                       0x08001818   Section        0  stm32f1xx_hal_cortex.o(.text.HAL_NVIC_EnableIRQ)
    __arm_cp.3_0                             0x0800182c   Number         4  stm32f1xx_hal_cortex.o(.text.HAL_NVIC_EnableIRQ)
    [Anonymous Symbol]                       0x08001830   Section        0  stm32f1xx_hal_cortex.o(.text.HAL_NVIC_SetPriority)
    [Anonymous Symbol]                       0x08001868   Section        0  stm32f1xx_hal_cortex.o(.text.HAL_NVIC_SetPriorityGrouping)
    __arm_cp.0_0                             0x08001880   Number         4  stm32f1xx_hal_cortex.o(.text.HAL_NVIC_SetPriorityGrouping)
    __arm_cp.0_1                             0x08001884   Number         4  stm32f1xx_hal_cortex.o(.text.HAL_NVIC_SetPriorityGrouping)
    [Anonymous Symbol]                       0x08001888   Section        0  stm32f1xx_hal_rcc.o(.text.HAL_RCC_ClockConfig)
    __arm_cp.2_0                             0x080019b8   Number         4  stm32f1xx_hal_rcc.o(.text.HAL_RCC_ClockConfig)
    __arm_cp.2_2                             0x080019bc   Number         4  stm32f1xx_hal_rcc.o(.text.HAL_RCC_ClockConfig)
    __arm_cp.2_4                             0x080019c0   Number         4  stm32f1xx_hal_rcc.o(.text.HAL_RCC_ClockConfig)
    [Anonymous Symbol]                       0x080019c4   Section        0  stm32f1xx_hal_rcc.o(.text.HAL_RCC_GetPCLK1Freq)
    [Anonymous Symbol]                       0x080019d8   Section        0  stm32f1xx_hal_rcc.o(.text.HAL_RCC_GetPCLK2Freq)
    __arm_cp.9_0                             0x080019ec   Number         4  stm32f1xx_hal_rcc.o(.text.HAL_RCC_GetPCLK2Freq)
    __arm_cp.9_2                             0x080019f0   Number         4  stm32f1xx_hal_rcc.o(.text.HAL_RCC_GetPCLK2Freq)
    [Anonymous Symbol]                       0x080019f4   Section        0  stm32f1xx_hal_rcc.o(.text.HAL_RCC_GetSysClockFreq)
    __arm_cp.3_0                             0x08001a28   Number         4  stm32f1xx_hal_rcc.o(.text.HAL_RCC_GetSysClockFreq)
    __arm_cp.3_1                             0x08001a2c   Number         4  stm32f1xx_hal_rcc.o(.text.HAL_RCC_GetSysClockFreq)
    __arm_cp.3_4                             0x08001a44   Number         4  stm32f1xx_hal_rcc.o(.text.HAL_RCC_GetSysClockFreq)
    [Anonymous Symbol]                       0x08001a48   Section        0  stm32f1xx_hal_rcc.o(.text.HAL_RCC_OscConfig)
    __arm_cp.1_0                             0x08001d34   Number         4  stm32f1xx_hal_rcc.o(.text.HAL_RCC_OscConfig)
    __arm_cp.1_1                             0x08001d38   Number         4  stm32f1xx_hal_rcc.o(.text.HAL_RCC_OscConfig)
    __arm_cp.1_2                             0x08001d3c   Number         4  stm32f1xx_hal_rcc.o(.text.HAL_RCC_OscConfig)
    __arm_cp.1_3                             0x08001d40   Number         4  stm32f1xx_hal_rcc.o(.text.HAL_RCC_OscConfig)
    [Anonymous Symbol]                       0x08001d44   Section        0  stm32f1xx_hal_cortex.o(.text.HAL_SYSTICK_Config)
    __arm_cp.7_0                             0x08001d64   Number         4  stm32f1xx_hal_cortex.o(.text.HAL_SYSTICK_Config)
    __arm_cp.7_1                             0x08001d68   Number         4  stm32f1xx_hal_cortex.o(.text.HAL_SYSTICK_Config)
    [Anonymous Symbol]                       0x08001d6c   Section        0  stm32f1xx_hal_tim_ex.o(.text.HAL_TIMEx_BreakCallback)
    [Anonymous Symbol]                       0x08001d6e   Section        0  stm32f1xx_hal_tim_ex.o(.text.HAL_TIMEx_CommutCallback)
    [Anonymous Symbol]                       0x08001d70   Section        0  stm32f1xx_hal_tim_ex.o(.text.HAL_TIMEx_MasterConfigSynchronization)
    [Anonymous Symbol]                       0x08001dd0   Section        0  stm32f1xx_hal_tim.o(.text.HAL_TIM_Base_Init)
    [Anonymous Symbol]                       0x08001df0   Section        0  tim.o(.text.HAL_TIM_Base_MspInit)
    __arm_cp.1_0                             0x08001e24   Number         4  tim.o(.text.HAL_TIM_Base_MspInit)
    __arm_cp.1_1                             0x08001e28   Number         4  tim.o(.text.HAL_TIM_Base_MspInit)
    [Anonymous Symbol]                       0x08001e2c   Section        0  stm32f1xx_hal_tim.o(.text.HAL_TIM_Base_Start_IT)
    __arm_cp.7_0                             0x08001e84   Number         4  stm32f1xx_hal_tim.o(.text.HAL_TIM_Base_Start_IT)
    __arm_cp.7_1                             0x08001e88   Number         4  stm32f1xx_hal_tim.o(.text.HAL_TIM_Base_Start_IT)
    __arm_cp.7_2                             0x08001e8c   Number         4  stm32f1xx_hal_tim.o(.text.HAL_TIM_Base_Start_IT)
    __arm_cp.7_3                             0x08001e90   Number         4  stm32f1xx_hal_tim.o(.text.HAL_TIM_Base_Start_IT)
    __arm_cp.7_4                             0x08001e94   Number         4  stm32f1xx_hal_tim.o(.text.HAL_TIM_Base_Start_IT)
    [Anonymous Symbol]                       0x08001e98   Section        0  stm32f1xx_hal_tim.o(.text.HAL_TIM_IC_CaptureCallback)
    [Anonymous Symbol]                       0x08001e9a   Section        0  stm32f1xx_hal_tim.o(.text.HAL_TIM_IRQHandler)
    [Anonymous Symbol]                       0x08001fc0   Section        0  stm32f1xx_hal_tim.o(.text.HAL_TIM_OC_DelayElapsedCallback)
    [Anonymous Symbol]                       0x08001fc2   Section        0  stm32f1xx_hal_tim.o(.text.HAL_TIM_PWM_PulseFinishedCallback)
    [Anonymous Symbol]                       0x08001fc4   Section        0  main.o(.text.HAL_TIM_PeriodElapsedCallback)
    __arm_cp.9_0                             0x08002014   Number         4  main.o(.text.HAL_TIM_PeriodElapsedCallback)
    __arm_cp.9_1                             0x08002018   Number         4  main.o(.text.HAL_TIM_PeriodElapsedCallback)
    __arm_cp.9_3                             0x0800201c   Number         4  main.o(.text.HAL_TIM_PeriodElapsedCallback)
    [Anonymous Symbol]                       0x08002020   Section        0  stm32f1xx_hal_tim.o(.text.HAL_TIM_TriggerCallback)
    [Anonymous Symbol]                       0x08002022   Section        0  stm32f1xx_hal_uart.o(.text.HAL_UARTEx_RxEventCallback)
    [Anonymous Symbol]                       0x08002024   Section        0  stm32f1xx_hal_uart.o(.text.HAL_UART_ErrorCallback)
    [Anonymous Symbol]                       0x08002028   Section        0  stm32f1xx_hal_uart.o(.text.HAL_UART_IRQHandler)
    __arm_cp.40_0                            0x080021e8   Number         4  stm32f1xx_hal_uart.o(.text.HAL_UART_IRQHandler)
    [Anonymous Symbol]                       0x080021ec   Section        0  stm32f1xx_hal_uart.o(.text.HAL_UART_Init)
    [Anonymous Symbol]                       0x08002218   Section        0  usart.o(.text.HAL_UART_MspInit)
    __arm_cp.4_1                             0x0800239c   Number         4  usart.o(.text.HAL_UART_MspInit)
    __arm_cp.4_2                             0x080023a0   Number         4  usart.o(.text.HAL_UART_MspInit)
    __arm_cp.4_3                             0x080023a4   Number         4  usart.o(.text.HAL_UART_MspInit)
    __arm_cp.4_4                             0x080023a8   Number         4  usart.o(.text.HAL_UART_MspInit)
    __arm_cp.4_5                             0x080023ac   Number         4  usart.o(.text.HAL_UART_MspInit)
    __arm_cp.4_6                             0x080023b0   Number         4  usart.o(.text.HAL_UART_MspInit)
    __arm_cp.4_7                             0x080023b4   Number         4  usart.o(.text.HAL_UART_MspInit)
    [Anonymous Symbol]                       0x080023b8   Section        0  stm32f1xx_hal_uart.o(.text.HAL_UART_Receive_IT)
    [Anonymous Symbol]                       0x080023e8   Section        0  main.o(.text.HAL_UART_RxCpltCallback)
    __arm_cp.8_0                             0x08002428   Number         4  main.o(.text.HAL_UART_RxCpltCallback)
    __arm_cp.8_1                             0x0800242c   Number         4  main.o(.text.HAL_UART_RxCpltCallback)
    [Anonymous Symbol]                       0x08002430   Section        0  stm32f1xx_hal_uart.o(.text.HAL_UART_Transmit)
    [Anonymous Symbol]                       0x080024e6   Section        0  stm32f1xx_hal_uart.o(.text.HAL_UART_Transmit_IT)
    [Anonymous Symbol]                       0x08002526   Section        0  stm32f1xx_hal_uart.o(.text.HAL_UART_TxCpltCallback)
    [Anonymous Symbol]                       0x08002528   Section        0  stm32f1xx_it.o(.text.HardFault_Handler)
    I2C_IsAcknowledgeFailed                  0x0800252b   Thumb Code    48  stm32f1xx_hal_i2c.o(.text.I2C_IsAcknowledgeFailed)
    [Anonymous Symbol]                       0x0800252a   Section        0  stm32f1xx_hal_i2c.o(.text.I2C_IsAcknowledgeFailed)
    I2C_RequestMemoryRead                    0x0800255d   Thumb Code   200  stm32f1xx_hal_i2c.o(.text.I2C_RequestMemoryRead)
    [Anonymous Symbol]                       0x0800255c   Section        0  stm32f1xx_hal_i2c.o(.text.I2C_RequestMemoryRead)
    I2C_RequestMemoryWrite                   0x08002625   Thumb Code   168  stm32f1xx_hal_i2c.o(.text.I2C_RequestMemoryWrite)
    [Anonymous Symbol]                       0x08002624   Section        0  stm32f1xx_hal_i2c.o(.text.I2C_RequestMemoryWrite)
    __arm_cp.23_0                            0x080026cc   Number         4  stm32f1xx_hal_i2c.o(.text.I2C_RequestMemoryWrite)
    I2C_WaitOnBTFFlagUntilTimeout            0x080026d1   Thumb Code    56  stm32f1xx_hal_i2c.o(.text.I2C_WaitOnBTFFlagUntilTimeout)
    [Anonymous Symbol]                       0x080026d0   Section        0  stm32f1xx_hal_i2c.o(.text.I2C_WaitOnBTFFlagUntilTimeout)
    I2C_WaitOnFlagUntilTimeout               0x08002709   Thumb Code   116  stm32f1xx_hal_i2c.o(.text.I2C_WaitOnFlagUntilTimeout)
    [Anonymous Symbol]                       0x08002708   Section        0  stm32f1xx_hal_i2c.o(.text.I2C_WaitOnFlagUntilTimeout)
    I2C_WaitOnMasterAddressFlagUntilTimeout  0x0800277d   Thumb Code   102  stm32f1xx_hal_i2c.o(.text.I2C_WaitOnMasterAddressFlagUntilTimeout)
    [Anonymous Symbol]                       0x0800277c   Section        0  stm32f1xx_hal_i2c.o(.text.I2C_WaitOnMasterAddressFlagUntilTimeout)
    I2C_WaitOnRXNEFlagUntilTimeout           0x080027e3   Thumb Code    70  stm32f1xx_hal_i2c.o(.text.I2C_WaitOnRXNEFlagUntilTimeout)
    [Anonymous Symbol]                       0x080027e2   Section        0  stm32f1xx_hal_i2c.o(.text.I2C_WaitOnRXNEFlagUntilTimeout)
    I2C_WaitOnTXEFlagUntilTimeout            0x08002829   Thumb Code    56  stm32f1xx_hal_i2c.o(.text.I2C_WaitOnTXEFlagUntilTimeout)
    [Anonymous Symbol]                       0x08002828   Section        0  stm32f1xx_hal_i2c.o(.text.I2C_WaitOnTXEFlagUntilTimeout)
    [Anonymous Symbol]                       0x08002860   Section        0  gpio.o(.text.MX_GPIO_Init)
    __arm_cp.0_0                             0x08002904   Number         4  gpio.o(.text.MX_GPIO_Init)
    __arm_cp.0_1                             0x08002908   Number         4  gpio.o(.text.MX_GPIO_Init)
    [Anonymous Symbol]                       0x0800290c   Section        0  i2c.o(.text.MX_I2C1_Init)
    __arm_cp.0_0                             0x08002924   Number         4  i2c.o(.text.MX_I2C1_Init)
    __arm_cp.0_2                             0x08002928   Number         4  i2c.o(.text.MX_I2C1_Init)
    [Anonymous Symbol]                       0x0800292c   Section        0  i2c.o(.text.MX_I2C2_Init)
    __arm_cp.1_0                             0x08002944   Number         4  i2c.o(.text.MX_I2C2_Init)
    __arm_cp.1_1                             0x08002948   Number         4  i2c.o(.text.MX_I2C2_Init)
    __arm_cp.1_2                             0x0800294c   Number         4  i2c.o(.text.MX_I2C2_Init)
    [Anonymous Symbol]                       0x08002950   Section        0  tim.o(.text.MX_TIM6_Init)
    __arm_cp.0_0                             0x0800298c   Number         4  tim.o(.text.MX_TIM6_Init)
    __arm_cp.0_1                             0x08002990   Number         4  tim.o(.text.MX_TIM6_Init)
    [Anonymous Symbol]                       0x08002994   Section        0  usart.o(.text.MX_UART5_Init)
    __arm_cp.0_0                             0x080029b4   Number         4  usart.o(.text.MX_UART5_Init)
    __arm_cp.0_1                             0x080029b8   Number         4  usart.o(.text.MX_UART5_Init)
    [Anonymous Symbol]                       0x080029bc   Section        0  usart.o(.text.MX_USART1_UART_Init)
    __arm_cp.1_0                             0x080029dc   Number         4  usart.o(.text.MX_USART1_UART_Init)
    __arm_cp.1_1                             0x080029e0   Number         4  usart.o(.text.MX_USART1_UART_Init)
    [Anonymous Symbol]                       0x080029e4   Section        0  usart.o(.text.MX_USART2_UART_Init)
    __arm_cp.2_0                             0x08002a04   Number         4  usart.o(.text.MX_USART2_UART_Init)
    __arm_cp.2_1                             0x08002a08   Number         4  usart.o(.text.MX_USART2_UART_Init)
    [Anonymous Symbol]                       0x08002a0c   Section        0  usart.o(.text.MX_USART3_UART_Init)
    __arm_cp.3_0                             0x08002a2c   Number         4  usart.o(.text.MX_USART3_UART_Init)
    __arm_cp.3_1                             0x08002a30   Number         4  usart.o(.text.MX_USART3_UART_Init)
    [Anonymous Symbol]                       0x08002a34   Section        0  stm32f1xx_it.o(.text.MemManage_Handler)
    [Anonymous Symbol]                       0x08002a36   Section        0  stm32f1xx_it.o(.text.NMI_Handler)
    OUTLINED_FUNCTION_0                      0x08002a39   Thumb Code    28  i2c.o(.text.OUTLINED_FUNCTION_0)
    [Anonymous Symbol]                       0x08002a38   Section        0  i2c.o(.text.OUTLINED_FUNCTION_0)
    OUTLINED_FUNCTION_0                      0x08002a55   Thumb Code    20  usart.o(.text.OUTLINED_FUNCTION_0)
    [Anonymous Symbol]                       0x08002a54   Section        0  usart.o(.text.OUTLINED_FUNCTION_0)
    OUTLINED_FUNCTION_0                      0x08002a69   Thumb Code    16  stm32f1xx_hal_rcc.o(.text.OUTLINED_FUNCTION_0)
    [Anonymous Symbol]                       0x08002a68   Section        0  stm32f1xx_hal_rcc.o(.text.OUTLINED_FUNCTION_0)
    OUTLINED_FUNCTION_0                      0x08002a79   Thumb Code    22  stm32f1xx_hal_uart.o(.text.OUTLINED_FUNCTION_0)
    [Anonymous Symbol]                       0x08002a78   Section        0  stm32f1xx_hal_uart.o(.text.OUTLINED_FUNCTION_0)
    OUTLINED_FUNCTION_0                      0x08002a8f   Thumb Code    14  bmp180_i2c_drv.o(.text.OUTLINED_FUNCTION_0)
    [Anonymous Symbol]                       0x08002a8e   Section        0  bmp180_i2c_drv.o(.text.OUTLINED_FUNCTION_0)
    OUTLINED_FUNCTION_1                      0x08002a9d   Thumb Code    26  i2c.o(.text.OUTLINED_FUNCTION_1)
    [Anonymous Symbol]                       0x08002a9c   Section        0  i2c.o(.text.OUTLINED_FUNCTION_1)
    OUTLINED_FUNCTION_1                      0x08002ab7   Thumb Code    30  usart.o(.text.OUTLINED_FUNCTION_1)
    [Anonymous Symbol]                       0x08002ab6   Section        0  usart.o(.text.OUTLINED_FUNCTION_1)
    OUTLINED_FUNCTION_1                      0x08002ad5   Thumb Code    16  stm32f1xx_hal_rcc.o(.text.OUTLINED_FUNCTION_1)
    [Anonymous Symbol]                       0x08002ad4   Section        0  stm32f1xx_hal_rcc.o(.text.OUTLINED_FUNCTION_1)
    OUTLINED_FUNCTION_1                      0x08002ae5   Thumb Code    14  stm32f1xx_hal_cortex.o(.text.OUTLINED_FUNCTION_1)
    [Anonymous Symbol]                       0x08002ae4   Section        0  stm32f1xx_hal_cortex.o(.text.OUTLINED_FUNCTION_1)
    OUTLINED_FUNCTION_1                      0x08002af3   Thumb Code    46  stm32f1xx_hal_tim.o(.text.OUTLINED_FUNCTION_1)
    [Anonymous Symbol]                       0x08002af2   Section        0  stm32f1xx_hal_tim.o(.text.OUTLINED_FUNCTION_1)
    OUTLINED_FUNCTION_1                      0x08002b21   Thumb Code    12  stm32f1xx_hal_uart.o(.text.OUTLINED_FUNCTION_1)
    [Anonymous Symbol]                       0x08002b20   Section        0  stm32f1xx_hal_uart.o(.text.OUTLINED_FUNCTION_1)
    OUTLINED_FUNCTION_10                     0x08002b2d   Thumb Code    10  stm32f1xx_hal_i2c.o(.text.OUTLINED_FUNCTION_10)
    [Anonymous Symbol]                       0x08002b2c   Section        0  stm32f1xx_hal_i2c.o(.text.OUTLINED_FUNCTION_10)
    OUTLINED_FUNCTION_11                     0x08002b37   Thumb Code    16  stm32f1xx_hal_i2c.o(.text.OUTLINED_FUNCTION_11)
    [Anonymous Symbol]                       0x08002b36   Section        0  stm32f1xx_hal_i2c.o(.text.OUTLINED_FUNCTION_11)
    OUTLINED_FUNCTION_11                     0x08002b47   Thumb Code    10  stm32f1xx_hal_tim.o(.text.OUTLINED_FUNCTION_11)
    [Anonymous Symbol]                       0x08002b46   Section        0  stm32f1xx_hal_tim.o(.text.OUTLINED_FUNCTION_11)
    OUTLINED_FUNCTION_12                     0x08002b51   Thumb Code    18  stm32f1xx_hal_i2c.o(.text.OUTLINED_FUNCTION_12)
    [Anonymous Symbol]                       0x08002b50   Section        0  stm32f1xx_hal_i2c.o(.text.OUTLINED_FUNCTION_12)
    OUTLINED_FUNCTION_12                     0x08002b63   Thumb Code    18  stm32f1xx_hal_uart.o(.text.OUTLINED_FUNCTION_12)
    [Anonymous Symbol]                       0x08002b62   Section        0  stm32f1xx_hal_uart.o(.text.OUTLINED_FUNCTION_12)
    OUTLINED_FUNCTION_13                     0x08002b75   Thumb Code    38  stm32f1xx_hal_i2c.o(.text.OUTLINED_FUNCTION_13)
    [Anonymous Symbol]                       0x08002b74   Section        0  stm32f1xx_hal_i2c.o(.text.OUTLINED_FUNCTION_13)
    OUTLINED_FUNCTION_15                     0x08002b9b   Thumb Code    14  stm32f1xx_hal_i2c.o(.text.OUTLINED_FUNCTION_15)
    [Anonymous Symbol]                       0x08002b9a   Section        0  stm32f1xx_hal_i2c.o(.text.OUTLINED_FUNCTION_15)
    OUTLINED_FUNCTION_16                     0x08002ba9   Thumb Code     8  stm32f1xx_hal_i2c.o(.text.OUTLINED_FUNCTION_16)
    [Anonymous Symbol]                       0x08002ba8   Section        0  stm32f1xx_hal_i2c.o(.text.OUTLINED_FUNCTION_16)
    OUTLINED_FUNCTION_17                     0x08002bb1   Thumb Code    36  stm32f1xx_hal_i2c.o(.text.OUTLINED_FUNCTION_17)
    [Anonymous Symbol]                       0x08002bb0   Section        0  stm32f1xx_hal_i2c.o(.text.OUTLINED_FUNCTION_17)
    OUTLINED_FUNCTION_18                     0x08002bd5   Thumb Code    20  stm32f1xx_hal_i2c.o(.text.OUTLINED_FUNCTION_18)
    [Anonymous Symbol]                       0x08002bd4   Section        0  stm32f1xx_hal_i2c.o(.text.OUTLINED_FUNCTION_18)
    OUTLINED_FUNCTION_19                     0x08002be9   Thumb Code     8  stm32f1xx_hal_i2c.o(.text.OUTLINED_FUNCTION_19)
    [Anonymous Symbol]                       0x08002be8   Section        0  stm32f1xx_hal_i2c.o(.text.OUTLINED_FUNCTION_19)
    OUTLINED_FUNCTION_2                      0x08002bf1   Thumb Code     8  usart.o(.text.OUTLINED_FUNCTION_2)
    [Anonymous Symbol]                       0x08002bf0   Section        0  usart.o(.text.OUTLINED_FUNCTION_2)
    OUTLINED_FUNCTION_2                      0x08002bf9   Thumb Code    10  stm32f1xx_hal_rcc.o(.text.OUTLINED_FUNCTION_2)
    [Anonymous Symbol]                       0x08002bf8   Section        0  stm32f1xx_hal_rcc.o(.text.OUTLINED_FUNCTION_2)
    OUTLINED_FUNCTION_2                      0x08002c03   Thumb Code    26  stm32f1xx_hal_uart.o(.text.OUTLINED_FUNCTION_2)
    [Anonymous Symbol]                       0x08002c02   Section        0  stm32f1xx_hal_uart.o(.text.OUTLINED_FUNCTION_2)
    OUTLINED_FUNCTION_20                     0x08002c1d   Thumb Code    32  stm32f1xx_hal_i2c.o(.text.OUTLINED_FUNCTION_20)
    [Anonymous Symbol]                       0x08002c1c   Section        0  stm32f1xx_hal_i2c.o(.text.OUTLINED_FUNCTION_20)
    OUTLINED_FUNCTION_21                     0x08002c3d   Thumb Code    18  stm32f1xx_hal_uart.o(.text.OUTLINED_FUNCTION_21)
    [Anonymous Symbol]                       0x08002c3c   Section        0  stm32f1xx_hal_uart.o(.text.OUTLINED_FUNCTION_21)
    OUTLINED_FUNCTION_24                     0x08002c4f   Thumb Code    10  stm32f1xx_hal_tim.o(.text.OUTLINED_FUNCTION_24)
    [Anonymous Symbol]                       0x08002c4e   Section        0  stm32f1xx_hal_tim.o(.text.OUTLINED_FUNCTION_24)
    OUTLINED_FUNCTION_25                     0x08002c59   Thumb Code     8  stm32f1xx_hal_i2c.o(.text.OUTLINED_FUNCTION_25)
    [Anonymous Symbol]                       0x08002c58   Section        0  stm32f1xx_hal_i2c.o(.text.OUTLINED_FUNCTION_25)
    OUTLINED_FUNCTION_29                     0x08002c61   Thumb Code    10  stm32f1xx_hal_i2c.o(.text.OUTLINED_FUNCTION_29)
    [Anonymous Symbol]                       0x08002c60   Section        0  stm32f1xx_hal_i2c.o(.text.OUTLINED_FUNCTION_29)
    OUTLINED_FUNCTION_29                     0x08002c6b   Thumb Code    20  stm32f1xx_hal_tim.o(.text.OUTLINED_FUNCTION_29)
    [Anonymous Symbol]                       0x08002c6a   Section        0  stm32f1xx_hal_tim.o(.text.OUTLINED_FUNCTION_29)
    OUTLINED_FUNCTION_3                      0x08002c7f   Thumb Code    14  usart.o(.text.OUTLINED_FUNCTION_3)
    [Anonymous Symbol]                       0x08002c7e   Section        0  usart.o(.text.OUTLINED_FUNCTION_3)
    OUTLINED_FUNCTION_3                      0x08002c8d   Thumb Code    26  stm32f1xx_hal_i2c.o(.text.OUTLINED_FUNCTION_3)
    [Anonymous Symbol]                       0x08002c8c   Section        0  stm32f1xx_hal_i2c.o(.text.OUTLINED_FUNCTION_3)
    OUTLINED_FUNCTION_3                      0x08002ca7   Thumb Code    14  stm32f1xx_hal_uart.o(.text.OUTLINED_FUNCTION_3)
    [Anonymous Symbol]                       0x08002ca6   Section        0  stm32f1xx_hal_uart.o(.text.OUTLINED_FUNCTION_3)
    OUTLINED_FUNCTION_30                     0x08002cb5   Thumb Code    22  stm32f1xx_hal_i2c.o(.text.OUTLINED_FUNCTION_30)
    [Anonymous Symbol]                       0x08002cb4   Section        0  stm32f1xx_hal_i2c.o(.text.OUTLINED_FUNCTION_30)
    OUTLINED_FUNCTION_31                     0x08002ccb   Thumb Code    26  stm32f1xx_hal_i2c.o(.text.OUTLINED_FUNCTION_31)
    [Anonymous Symbol]                       0x08002cca   Section        0  stm32f1xx_hal_i2c.o(.text.OUTLINED_FUNCTION_31)
    OUTLINED_FUNCTION_32                     0x08002ce5   Thumb Code    10  stm32f1xx_hal_i2c.o(.text.OUTLINED_FUNCTION_32)
    [Anonymous Symbol]                       0x08002ce4   Section        0  stm32f1xx_hal_i2c.o(.text.OUTLINED_FUNCTION_32)
    OUTLINED_FUNCTION_36                     0x08002cef   Thumb Code    24  stm32f1xx_hal_i2c.o(.text.OUTLINED_FUNCTION_36)
    [Anonymous Symbol]                       0x08002cee   Section        0  stm32f1xx_hal_i2c.o(.text.OUTLINED_FUNCTION_36)
    OUTLINED_FUNCTION_39                     0x08002d07   Thumb Code     8  stm32f1xx_hal_i2c.o(.text.OUTLINED_FUNCTION_39)
    [Anonymous Symbol]                       0x08002d06   Section        0  stm32f1xx_hal_i2c.o(.text.OUTLINED_FUNCTION_39)
    OUTLINED_FUNCTION_40                     0x08002d0f   Thumb Code    22  stm32f1xx_hal_i2c.o(.text.OUTLINED_FUNCTION_40)
    [Anonymous Symbol]                       0x08002d0e   Section        0  stm32f1xx_hal_i2c.o(.text.OUTLINED_FUNCTION_40)
    OUTLINED_FUNCTION_43                     0x08002d25   Thumb Code    10  stm32f1xx_hal_i2c.o(.text.OUTLINED_FUNCTION_43)
    [Anonymous Symbol]                       0x08002d24   Section        0  stm32f1xx_hal_i2c.o(.text.OUTLINED_FUNCTION_43)
    OUTLINED_FUNCTION_45                     0x08002d2f   Thumb Code    14  stm32f1xx_hal_i2c.o(.text.OUTLINED_FUNCTION_45)
    [Anonymous Symbol]                       0x08002d2e   Section        0  stm32f1xx_hal_i2c.o(.text.OUTLINED_FUNCTION_45)
    OUTLINED_FUNCTION_45                     0x08002d3d   Thumb Code    10  stm32f1xx_hal_tim.o(.text.OUTLINED_FUNCTION_45)
    [Anonymous Symbol]                       0x08002d3c   Section        0  stm32f1xx_hal_tim.o(.text.OUTLINED_FUNCTION_45)
    OUTLINED_FUNCTION_46                     0x08002d47   Thumb Code    10  stm32f1xx_hal_i2c.o(.text.OUTLINED_FUNCTION_46)
    [Anonymous Symbol]                       0x08002d46   Section        0  stm32f1xx_hal_i2c.o(.text.OUTLINED_FUNCTION_46)
    OUTLINED_FUNCTION_47                     0x08002d51   Thumb Code    20  stm32f1xx_hal_i2c.o(.text.OUTLINED_FUNCTION_47)
    [Anonymous Symbol]                       0x08002d50   Section        0  stm32f1xx_hal_i2c.o(.text.OUTLINED_FUNCTION_47)
    OUTLINED_FUNCTION_48                     0x08002d65   Thumb Code     6  stm32f1xx_hal_tim.o(.text.OUTLINED_FUNCTION_48)
    [Anonymous Symbol]                       0x08002d64   Section        0  stm32f1xx_hal_tim.o(.text.OUTLINED_FUNCTION_48)
    OUTLINED_FUNCTION_53                     0x08002d6b   Thumb Code    10  stm32f1xx_hal_i2c.o(.text.OUTLINED_FUNCTION_53)
    [Anonymous Symbol]                       0x08002d6a   Section        0  stm32f1xx_hal_i2c.o(.text.OUTLINED_FUNCTION_53)
    OUTLINED_FUNCTION_6                      0x08002d75   Thumb Code    28  stm32f1xx_hal_i2c.o(.text.OUTLINED_FUNCTION_6)
    [Anonymous Symbol]                       0x08002d74   Section        0  stm32f1xx_hal_i2c.o(.text.OUTLINED_FUNCTION_6)
    OUTLINED_FUNCTION_62                     0x08002d91   Thumb Code    18  stm32f1xx_hal_i2c.o(.text.OUTLINED_FUNCTION_62)
    [Anonymous Symbol]                       0x08002d90   Section        0  stm32f1xx_hal_i2c.o(.text.OUTLINED_FUNCTION_62)
    OUTLINED_FUNCTION_65                     0x08002da3   Thumb Code    18  stm32f1xx_hal_i2c.o(.text.OUTLINED_FUNCTION_65)
    [Anonymous Symbol]                       0x08002da2   Section        0  stm32f1xx_hal_i2c.o(.text.OUTLINED_FUNCTION_65)
    OUTLINED_FUNCTION_67                     0x08002db5   Thumb Code    16  stm32f1xx_hal_i2c.o(.text.OUTLINED_FUNCTION_67)
    [Anonymous Symbol]                       0x08002db4   Section        0  stm32f1xx_hal_i2c.o(.text.OUTLINED_FUNCTION_67)
    OUTLINED_FUNCTION_68                     0x08002dc5   Thumb Code    16  stm32f1xx_hal_i2c.o(.text.OUTLINED_FUNCTION_68)
    [Anonymous Symbol]                       0x08002dc4   Section        0  stm32f1xx_hal_i2c.o(.text.OUTLINED_FUNCTION_68)
    OUTLINED_FUNCTION_69                     0x08002dd5   Thumb Code    12  stm32f1xx_hal_i2c.o(.text.OUTLINED_FUNCTION_69)
    [Anonymous Symbol]                       0x08002dd4   Section        0  stm32f1xx_hal_i2c.o(.text.OUTLINED_FUNCTION_69)
    OUTLINED_FUNCTION_8                      0x08002de1   Thumb Code    26  stm32f1xx_hal_i2c.o(.text.OUTLINED_FUNCTION_8)
    [Anonymous Symbol]                       0x08002de0   Section        0  stm32f1xx_hal_i2c.o(.text.OUTLINED_FUNCTION_8)
    OUTLINED_FUNCTION_8                      0x08002dfb   Thumb Code    14  stm32f1xx_hal_tim.o(.text.OUTLINED_FUNCTION_8)
    [Anonymous Symbol]                       0x08002dfa   Section        0  stm32f1xx_hal_tim.o(.text.OUTLINED_FUNCTION_8)
    OUTLINED_FUNCTION_8                      0x08002e09   Thumb Code    28  stm32f1xx_hal_uart.o(.text.OUTLINED_FUNCTION_8)
    [Anonymous Symbol]                       0x08002e08   Section        0  stm32f1xx_hal_uart.o(.text.OUTLINED_FUNCTION_8)
    OUTLINED_FUNCTION_81                     0x08002e25   Thumb Code    14  stm32f1xx_hal_i2c.o(.text.OUTLINED_FUNCTION_81)
    [Anonymous Symbol]                       0x08002e24   Section        0  stm32f1xx_hal_i2c.o(.text.OUTLINED_FUNCTION_81)
    OUTLINED_FUNCTION_84                     0x08002e33   Thumb Code    10  stm32f1xx_hal_i2c.o(.text.OUTLINED_FUNCTION_84)
    [Anonymous Symbol]                       0x08002e32   Section        0  stm32f1xx_hal_i2c.o(.text.OUTLINED_FUNCTION_84)
    OUTLINED_FUNCTION_85                     0x08002e3d   Thumb Code    14  stm32f1xx_hal_i2c.o(.text.OUTLINED_FUNCTION_85)
    [Anonymous Symbol]                       0x08002e3c   Section        0  stm32f1xx_hal_i2c.o(.text.OUTLINED_FUNCTION_85)
    OUTLINED_FUNCTION_87                     0x08002e4b   Thumb Code     8  stm32f1xx_hal_i2c.o(.text.OUTLINED_FUNCTION_87)
    [Anonymous Symbol]                       0x08002e4a   Section        0  stm32f1xx_hal_i2c.o(.text.OUTLINED_FUNCTION_87)
    OUTLINED_FUNCTION_9                      0x08002e53   Thumb Code    10  stm32f1xx_hal_i2c.o(.text.OUTLINED_FUNCTION_9)
    [Anonymous Symbol]                       0x08002e52   Section        0  stm32f1xx_hal_i2c.o(.text.OUTLINED_FUNCTION_9)
    OUTLINED_FUNCTION_9                      0x08002e5d   Thumb Code    10  stm32f1xx_hal_tim.o(.text.OUTLINED_FUNCTION_9)
    [Anonymous Symbol]                       0x08002e5c   Section        0  stm32f1xx_hal_tim.o(.text.OUTLINED_FUNCTION_9)
    [Anonymous Symbol]                       0x08002e66   Section        0  stm32f1xx_it.o(.text.PendSV_Handler)
    [Anonymous Symbol]                       0x08002e68   Section        0  bmp180_i2c_drv.o(.text.Reg_Read16)
    [Anonymous Symbol]                       0x08002eac   Section        0  bmp180_i2c_drv.o(.text.Reg_Read32)
    __arm_cp.1_1                             0x08002f04   Number         4  bmp180_i2c_drv.o(.text.Reg_Read32)
    [Anonymous Symbol]                       0x08002f08   Section        0  sht30_i2c_drv.o(.text.SHT30_Dat_To_Float)
    __arm_cp.5_0                             0x08002f6c   Number         4  sht30_i2c_drv.o(.text.SHT30_Dat_To_Float)
    __arm_cp.5_1                             0x08002f70   Number         4  sht30_i2c_drv.o(.text.SHT30_Dat_To_Float)
    __arm_cp.5_2                             0x08002f74   Number         4  sht30_i2c_drv.o(.text.SHT30_Dat_To_Float)
    __arm_cp.5_3                             0x08002f78   Number         4  sht30_i2c_drv.o(.text.SHT30_Dat_To_Float)
    [Anonymous Symbol]                       0x08002f7c   Section        0  sht30_i2c_drv.o(.text.SHT30_Init)
    [Anonymous Symbol]                       0x08002f84   Section        0  sht30_i2c_drv.o(.text.SHT30_Read_Dat)
    [Anonymous Symbol]                       0x08002fa4   Section        0  sht30_i2c_drv.o(.text.SHT30_Reset)
    [Anonymous Symbol]                       0x08002fb8   Section        0  sht30_i2c_drv.o(.text.SHT30_Send_Cmd)
    __arm_cp.0_0                             0x08002fd8   Number         4  sht30_i2c_drv.o(.text.SHT30_Send_Cmd)
    [Anonymous Symbol]                       0x08002fdc   Section        0  main.o(.text.SHT30_Task)
    __arm_cp.2_1                             0x08003060   Number         4  main.o(.text.SHT30_Task)
    __arm_cp.2_2                             0x08003064   Number         4  main.o(.text.SHT30_Task)
    __arm_cp.2_3                             0x08003068   Number         4  main.o(.text.SHT30_Task)
    [Anonymous Symbol]                       0x080030a0   Section        0  stm32f1xx_it.o(.text.SVC_Handler)
    [Anonymous Symbol]                       0x080030a2   Section        0  stm32f1xx_it.o(.text.SysTick_Handler)
    [Anonymous Symbol]                       0x080030a6   Section        0  main.o(.text.SystemClock_Config)
    [Anonymous Symbol]                       0x0800310c   Section        0  system_stm32f1xx.o(.text.SystemInit)
    [Anonymous Symbol]                       0x08003110   Section        0  stm32f1xx_it.o(.text.TIM6_IRQHandler)
    __arm_cp.12_0                            0x08003118   Number         4  stm32f1xx_it.o(.text.TIM6_IRQHandler)
    [Anonymous Symbol]                       0x0800311c   Section        0  stm32f1xx_hal_tim.o(.text.TIM_Base_SetConfig)
    __arm_cp.2_0                             0x080031a0   Number         4  stm32f1xx_hal_tim.o(.text.TIM_Base_SetConfig)
    __arm_cp.2_1                             0x080031a4   Number         4  stm32f1xx_hal_tim.o(.text.TIM_Base_SetConfig)
    __arm_cp.2_2                             0x080031a8   Number         4  stm32f1xx_hal_tim.o(.text.TIM_Base_SetConfig)
    __arm_cp.2_3                             0x080031ac   Number         4  stm32f1xx_hal_tim.o(.text.TIM_Base_SetConfig)
    __arm_cp.2_4                             0x080031b0   Number         4  stm32f1xx_hal_tim.o(.text.TIM_Base_SetConfig)
    [Anonymous Symbol]                       0x080031b4   Section        0  main.o(.text.TestCO2Task)
    __arm_cp.4_0                             0x080031e4   Number         4  main.o(.text.TestCO2Task)
    UART_DMAAbortOnError                     0x080031fd   Thumb Code    12  stm32f1xx_hal_uart.o(.text.UART_DMAAbortOnError)
    [Anonymous Symbol]                       0x080031fc   Section        0  stm32f1xx_hal_uart.o(.text.UART_DMAAbortOnError)
    UART_EndRxTransfer                       0x08003209   Thumb Code    36  stm32f1xx_hal_uart.o(.text.UART_EndRxTransfer)
    [Anonymous Symbol]                       0x08003208   Section        0  stm32f1xx_hal_uart.o(.text.UART_EndRxTransfer)
    UART_Receive_IT                          0x0800322d   Thumb Code   180  stm32f1xx_hal_uart.o(.text.UART_Receive_IT)
    [Anonymous Symbol]                       0x0800322c   Section        0  stm32f1xx_hal_uart.o(.text.UART_Receive_IT)
    UART_SetConfig                           0x080032e1   Thumb Code   124  stm32f1xx_hal_uart.o(.text.UART_SetConfig)
    [Anonymous Symbol]                       0x080032e0   Section        0  stm32f1xx_hal_uart.o(.text.UART_SetConfig)
    __arm_cp.2_0                             0x0800335c   Number         4  stm32f1xx_hal_uart.o(.text.UART_SetConfig)
    [Anonymous Symbol]                       0x08003360   Section        0  stm32f1xx_hal_uart.o(.text.UART_Start_Receive_IT)
    UART_WaitOnFlagUntilTimeout              0x08003395   Thumb Code    88  stm32f1xx_hal_uart.o(.text.UART_WaitOnFlagUntilTimeout)
    [Anonymous Symbol]                       0x08003394   Section        0  stm32f1xx_hal_uart.o(.text.UART_WaitOnFlagUntilTimeout)
    [Anonymous Symbol]                       0x080033ec   Section        0  stm32f1xx_it.o(.text.USART1_IRQHandler)
    [Anonymous Symbol]                       0x080033f4   Section        0  stm32f1xx_it.o(.text.USART2_IRQHandler)
    [Anonymous Symbol]                       0x080033fc   Section        0  stm32f1xx_it.o(.text.USART3_IRQHandler)
    [Anonymous Symbol]                       0x08003404   Section        0  stm32f1xx_it.o(.text.UsageFault_Handler)
    __NVIC_SetPriority                       0x08003409   Thumb Code    28  stm32f1xx_hal_cortex.o(.text.__NVIC_SetPriority)
    [Anonymous Symbol]                       0x08003408   Section        0  stm32f1xx_hal_cortex.o(.text.__NVIC_SetPriority)
    __arm_cp.2_0                             0x08003424   Number         4  stm32f1xx_hal_cortex.o(.text.__NVIC_SetPriority)
    __arm_cp.2_1                             0x08003428   Number         4  stm32f1xx_hal_cortex.o(.text.__NVIC_SetPriority)
    [Anonymous Symbol]                       0x0800342c   Section        0  bmp180_i2c_drv.o(.text.bmp180_get_cal_param)
    __arm_cp.2_0                             0x0800348c   Number         4  bmp180_i2c_drv.o(.text.bmp180_get_cal_param)
    __arm_cp.2_1                             0x08003490   Number         4  bmp180_i2c_drv.o(.text.bmp180_get_cal_param)
    [Anonymous Symbol]                       0x08003494   Section        0  main.o(.text.fputc)
    [Anonymous Symbol]                       0x080034a8   Section        0  main.o(.text.main)
    __arm_cp.0_0                             0x080035d8   Number         4  main.o(.text.main)
    __arm_cp.0_1                             0x080035dc   Number         4  main.o(.text.main)
    __arm_cp.0_3                             0x080035e0   Number         4  main.o(.text.main)
    __arm_cp.0_5                             0x080035e4   Number         4  main.o(.text.main)
    __arm_cp.0_6                             0x080035e8   Number         4  main.o(.text.main)
    __arm_cp.0_7                             0x080035ec   Number         4  main.o(.text.main)
    __arm_cp.0_8                             0x080035f0   Number         4  main.o(.text.main)
    __arm_cp.0_9                             0x080035f4   Number         4  main.o(.text.main)
    __arm_cp.0_10                            0x080035f8   Number         4  main.o(.text.main)
    __arm_cp.0_11                            0x080035fc   Number         4  main.o(.text.main)
    __arm_cp.0_12                            0x08003600   Number         4  main.o(.text.main)
    [Anonymous Symbol]                       0x08003604   Section        0  main.o(.text.testGetPMSensor)
    __arm_cp.5_0                             0x08003670   Number         4  main.o(.text.testGetPMSensor)
    __arm_cp.5_1                             0x08003674   Number         4  main.o(.text.testGetPMSensor)
    __arm_cp.5_2                             0x08003678   Number         4  main.o(.text.testGetPMSensor)
    i.__0printf                              0x080036c4   Section        0  printfa.o(i.__0printf)
    i.__0sprintf                             0x080036e4   Section        0  printfa.o(i.__0sprintf)
    i.__scatterload_copy                     0x0800370c   Section       14  handlers.o(i.__scatterload_copy)
    i.__scatterload_null                     0x0800371a   Section        2  handlers.o(i.__scatterload_null)
    i.__scatterload_zeroinit                 0x0800371c   Section       14  handlers.o(i.__scatterload_zeroinit)
    _fp_digits                               0x0800372d   Thumb Code   366  printfa.o(i._fp_digits)
    i._fp_digits                             0x0800372c   Section        0  printfa.o(i._fp_digits)
    _printf_core                             0x080038b1   Thumb Code  1744  printfa.o(i._printf_core)
    i._printf_core                           0x080038b0   Section        0  printfa.o(i._printf_core)
    _printf_post_padding                     0x08003f8d   Thumb Code    36  printfa.o(i._printf_post_padding)
    i._printf_post_padding                   0x08003f8c   Section        0  printfa.o(i._printf_post_padding)
    _printf_pre_padding                      0x08003fb1   Thumb Code    46  printfa.o(i._printf_pre_padding)
    i._printf_pre_padding                    0x08003fb0   Section        0  printfa.o(i._printf_pre_padding)
    _sputc                                   0x08003fdf   Thumb Code    10  printfa.o(i._sputc)
    i._sputc                                 0x08003fde   Section        0  printfa.o(i._sputc)
    i.puts                                   0x08003fe8   Section        0  puts.o(i.puts)
    [Anonymous Symbol]                       0x08004036   Section        0  main.o(.rodata.str1.1)
    .data                                    0x20000000   Section        4  stdout.o(.data)
    [Anonymous Symbol]                       0x20000004   Section        0  stm32f1xx_hal.o(.data..L_MergedGlobals)
    [Anonymous Symbol]                       0x20000010   Section        0  main.o(.bss..L_MergedGlobals)
    STACK                                    0x20000328   Section     1024  startup_stm32f103xe.o(STACK)

    Global Symbols

    Symbol Name                              Value     Ov Type        Size  Object(Section)

    BuildAttributes$$THM_ISAv4$P$D$K$B$S$PE$A:L22UL41UL21$X:L11$S22US41US21$IEEE1$IW$~IW$USESV6$~STKCKD$USESV7$~SHL$OTIME$ROPI$EBA8$MICROLIB$REQ8$PRES8$EABIv2 0x00000000   Number         0  anon$$obj.o ABSOLUTE
    _printf_a                                0x00000000   Number         0  printfstubs.o ABSOLUTE
    _printf_c                                0x00000000   Number         0  printfstubs.o ABSOLUTE
    _printf_charcount                        0x00000000   Number         0  printfstubs.o ABSOLUTE
    _printf_d                                0x00000000   Number         0  printfstubs.o ABSOLUTE
    _printf_e                                0x00000000   Number         0  printfstubs.o ABSOLUTE
    _printf_f                                0x00000000   Number         0  printfstubs.o ABSOLUTE
    _printf_flags                            0x00000000   Number         0  printfstubs.o ABSOLUTE
    _printf_fp_dec                           0x00000000   Number         0  printfstubs.o ABSOLUTE
    _printf_fp_hex                           0x00000000   Number         0  printfstubs.o ABSOLUTE
    _printf_g                                0x00000000   Number         0  printfstubs.o ABSOLUTE
    _printf_i                                0x00000000   Number         0  printfstubs.o ABSOLUTE
    _printf_int_dec                          0x00000000   Number         0  printfstubs.o ABSOLUTE
    _printf_l                                0x00000000   Number         0  printfstubs.o ABSOLUTE
    _printf_lc                               0x00000000   Number         0  printfstubs.o ABSOLUTE
    _printf_ll                               0x00000000   Number         0  printfstubs.o ABSOLUTE
    _printf_lld                              0x00000000   Number         0  printfstubs.o ABSOLUTE
    _printf_lli                              0x00000000   Number         0  printfstubs.o ABSOLUTE
    _printf_llo                              0x00000000   Number         0  printfstubs.o ABSOLUTE
    _printf_llu                              0x00000000   Number         0  printfstubs.o ABSOLUTE
    _printf_llx                              0x00000000   Number         0  printfstubs.o ABSOLUTE
    _printf_longlong_dec                     0x00000000   Number         0  printfstubs.o ABSOLUTE
    _printf_longlong_hex                     0x00000000   Number         0  printfstubs.o ABSOLUTE
    _printf_longlong_oct                     0x00000000   Number         0  printfstubs.o ABSOLUTE
    _printf_ls                               0x00000000   Number         0  printfstubs.o ABSOLUTE
    _printf_mbtowc                           0x00000000   Number         0  printfstubs.o ABSOLUTE
    _printf_n                                0x00000000   Number         0  printfstubs.o ABSOLUTE
    _printf_o                                0x00000000   Number         0  printfstubs.o ABSOLUTE
    _printf_p                                0x00000000   Number         0  printfstubs.o ABSOLUTE
    _printf_percent                          0x00000000   Number         0  printfstubs.o ABSOLUTE
    _printf_pre_padding                      0x00000000   Number         0  printfstubs.o ABSOLUTE
    _printf_return_value                     0x00000000   Number         0  printfstubs.o ABSOLUTE
    _printf_s                                0x00000000   Number         0  printfstubs.o ABSOLUTE
    _printf_sizespec                         0x00000000   Number         0  printfstubs.o ABSOLUTE
    _printf_str                              0x00000000   Number         0  printfstubs.o ABSOLUTE
    _printf_truncate_signed                  0x00000000   Number         0  printfstubs.o ABSOLUTE
    _printf_truncate_unsigned                0x00000000   Number         0  printfstubs.o ABSOLUTE
    _printf_u                                0x00000000   Number         0  printfstubs.o ABSOLUTE
    _printf_wc                               0x00000000   Number         0  printfstubs.o ABSOLUTE
    _printf_wctomb                           0x00000000   Number         0  printfstubs.o ABSOLUTE
    _printf_widthprec                        0x00000000   Number         0  printfstubs.o ABSOLUTE
    _printf_x                                0x00000000   Number         0  printfstubs.o ABSOLUTE
    __cpp_initialize__aeabi_                  - Undefined Weak Reference
    __cxa_finalize                            - Undefined Weak Reference
    __decompress                              - Undefined Weak Reference
    _clock_init                               - Undefined Weak Reference
    _microlib_exit                            - Undefined Weak Reference
    __Vectors_Size                           0x00000130   Number         0  startup_stm32f103xe.o ABSOLUTE
    __Vectors                                0x08000000   Data           4  startup_stm32f103xe.o(RESET)
    __Vectors_End                            0x08000130   Data           0  startup_stm32f103xe.o(RESET)
    __main                                   0x08000131   Thumb Code     0  entry.o(.ARM.Collect$$$$00000000)
    _main_stk                                0x08000131   Thumb Code     0  entry2.o(.ARM.Collect$$$$00000001)
    _main_scatterload                        0x08000135   Thumb Code     0  entry5.o(.ARM.Collect$$$$00000004)
    __main_after_scatterload                 0x08000139   Thumb Code     0  entry5.o(.ARM.Collect$$$$00000004)
    _main_clock                              0x08000139   Thumb Code     0  entry7b.o(.ARM.Collect$$$$00000008)
    _main_cpp_init                           0x08000139   Thumb Code     0  entry8b.o(.ARM.Collect$$$$0000000A)
    _main_init                               0x08000139   Thumb Code     0  entry9a.o(.ARM.Collect$$$$0000000B)
    __rt_final_cpp                           0x08000141   Thumb Code     0  entry10a.o(.ARM.Collect$$$$0000000D)
    __rt_final_exit                          0x08000141   Thumb Code     0  entry11a.o(.ARM.Collect$$$$0000000F)
    Reset_Handler                            0x08000145   Thumb Code     8  startup_stm32f103xe.o(.text)
    ADC1_2_IRQHandler                        0x0800015f   Thumb Code     0  startup_stm32f103xe.o(.text)
    ADC3_IRQHandler                          0x0800015f   Thumb Code     0  startup_stm32f103xe.o(.text)
    CAN1_RX1_IRQHandler                      0x0800015f   Thumb Code     0  startup_stm32f103xe.o(.text)
    CAN1_SCE_IRQHandler                      0x0800015f   Thumb Code     0  startup_stm32f103xe.o(.text)
    DMA1_Channel1_IRQHandler                 0x0800015f   Thumb Code     0  startup_stm32f103xe.o(.text)
    DMA1_Channel2_IRQHandler                 0x0800015f   Thumb Code     0  startup_stm32f103xe.o(.text)
    DMA1_Channel3_IRQHandler                 0x0800015f   Thumb Code     0  startup_stm32f103xe.o(.text)
    DMA1_Channel4_IRQHandler                 0x0800015f   Thumb Code     0  startup_stm32f103xe.o(.text)
    DMA1_Channel5_IRQHandler                 0x0800015f   Thumb Code     0  startup_stm32f103xe.o(.text)
    DMA1_Channel6_IRQHandler                 0x0800015f   Thumb Code     0  startup_stm32f103xe.o(.text)
    DMA1_Channel7_IRQHandler                 0x0800015f   Thumb Code     0  startup_stm32f103xe.o(.text)
    DMA2_Channel1_IRQHandler                 0x0800015f   Thumb Code     0  startup_stm32f103xe.o(.text)
    DMA2_Channel2_IRQHandler                 0x0800015f   Thumb Code     0  startup_stm32f103xe.o(.text)
    DMA2_Channel3_IRQHandler                 0x0800015f   Thumb Code     0  startup_stm32f103xe.o(.text)
    DMA2_Channel4_5_IRQHandler               0x0800015f   Thumb Code     0  startup_stm32f103xe.o(.text)
    EXTI0_IRQHandler                         0x0800015f   Thumb Code     0  startup_stm32f103xe.o(.text)
    EXTI15_10_IRQHandler                     0x0800015f   Thumb Code     0  startup_stm32f103xe.o(.text)
    EXTI1_IRQHandler                         0x0800015f   Thumb Code     0  startup_stm32f103xe.o(.text)
    EXTI2_IRQHandler                         0x0800015f   Thumb Code     0  startup_stm32f103xe.o(.text)
    EXTI3_IRQHandler                         0x0800015f   Thumb Code     0  startup_stm32f103xe.o(.text)
    EXTI4_IRQHandler                         0x0800015f   Thumb Code     0  startup_stm32f103xe.o(.text)
    EXTI9_5_IRQHandler                       0x0800015f   Thumb Code     0  startup_stm32f103xe.o(.text)
    FLASH_IRQHandler                         0x0800015f   Thumb Code     0  startup_stm32f103xe.o(.text)
    FSMC_IRQHandler                          0x0800015f   Thumb Code     0  startup_stm32f103xe.o(.text)
    I2C1_ER_IRQHandler                       0x0800015f   Thumb Code     0  startup_stm32f103xe.o(.text)
    I2C1_EV_IRQHandler                       0x0800015f   Thumb Code     0  startup_stm32f103xe.o(.text)
    I2C2_ER_IRQHandler                       0x0800015f   Thumb Code     0  startup_stm32f103xe.o(.text)
    I2C2_EV_IRQHandler                       0x0800015f   Thumb Code     0  startup_stm32f103xe.o(.text)
    PVD_IRQHandler                           0x0800015f   Thumb Code     0  startup_stm32f103xe.o(.text)
    RCC_IRQHandler                           0x0800015f   Thumb Code     0  startup_stm32f103xe.o(.text)
    RTC_Alarm_IRQHandler                     0x0800015f   Thumb Code     0  startup_stm32f103xe.o(.text)
    RTC_IRQHandler                           0x0800015f   Thumb Code     0  startup_stm32f103xe.o(.text)
    SDIO_IRQHandler                          0x0800015f   Thumb Code     0  startup_stm32f103xe.o(.text)
    SPI1_IRQHandler                          0x0800015f   Thumb Code     0  startup_stm32f103xe.o(.text)
    SPI2_IRQHandler                          0x0800015f   Thumb Code     0  startup_stm32f103xe.o(.text)
    SPI3_IRQHandler                          0x0800015f   Thumb Code     0  startup_stm32f103xe.o(.text)
    TAMPER_IRQHandler                        0x0800015f   Thumb Code     0  startup_stm32f103xe.o(.text)
    TIM1_BRK_IRQHandler                      0x0800015f   Thumb Code     0  startup_stm32f103xe.o(.text)
    TIM1_CC_IRQHandler                       0x0800015f   Thumb Code     0  startup_stm32f103xe.o(.text)
    TIM1_TRG_COM_IRQHandler                  0x0800015f   Thumb Code     0  startup_stm32f103xe.o(.text)
    TIM1_UP_IRQHandler                       0x0800015f   Thumb Code     0  startup_stm32f103xe.o(.text)
    TIM2_IRQHandler                          0x0800015f   Thumb Code     0  startup_stm32f103xe.o(.text)
    TIM3_IRQHandler                          0x0800015f   Thumb Code     0  startup_stm32f103xe.o(.text)
    TIM4_IRQHandler                          0x0800015f   Thumb Code     0  startup_stm32f103xe.o(.text)
    TIM5_IRQHandler                          0x0800015f   Thumb Code     0  startup_stm32f103xe.o(.text)
    TIM7_IRQHandler                          0x0800015f   Thumb Code     0  startup_stm32f103xe.o(.text)
    TIM8_BRK_IRQHandler                      0x0800015f   Thumb Code     0  startup_stm32f103xe.o(.text)
    TIM8_CC_IRQHandler                       0x0800015f   Thumb Code     0  startup_stm32f103xe.o(.text)
    TIM8_TRG_COM_IRQHandler                  0x0800015f   Thumb Code     0  startup_stm32f103xe.o(.text)
    TIM8_UP_IRQHandler                       0x0800015f   Thumb Code     0  startup_stm32f103xe.o(.text)
    UART4_IRQHandler                         0x0800015f   Thumb Code     0  startup_stm32f103xe.o(.text)
    UART5_IRQHandler                         0x0800015f   Thumb Code     0  startup_stm32f103xe.o(.text)
    USBWakeUp_IRQHandler                     0x0800015f   Thumb Code     0  startup_stm32f103xe.o(.text)
    USB_HP_CAN1_TX_IRQHandler                0x0800015f   Thumb Code     0  startup_stm32f103xe.o(.text)
    USB_LP_CAN1_RX0_IRQHandler               0x0800015f   Thumb Code     0  startup_stm32f103xe.o(.text)
    WWDG_IRQHandler                          0x0800015f   Thumb Code     0  startup_stm32f103xe.o(.text)
    __aeabi_llsr                             0x08000169   Thumb Code    32  llushr.o(.text)
    _ll_ushift_r                             0x08000169   Thumb Code     0  llushr.o(.text)
    __aeabi_memset                           0x08000189   Thumb Code    14  memseta.o(.text)
    __aeabi_memset4                          0x08000189   Thumb Code     0  memseta.o(.text)
    __aeabi_memset8                          0x08000189   Thumb Code     0  memseta.o(.text)
    __aeabi_memclr                           0x08000197   Thumb Code     4  memseta.o(.text)
    __aeabi_memclr4                          0x08000197   Thumb Code     0  memseta.o(.text)
    __aeabi_memclr8                          0x08000197   Thumb Code     0  memseta.o(.text)
    _memset$wrapper                          0x0800019b   Thumb Code    18  memseta.o(.text)
    __aeabi_fadd                             0x080001ad   Thumb Code   164  fadd.o(.text)
    __aeabi_fsub                             0x08000251   Thumb Code     6  fadd.o(.text)
    __aeabi_frsub                            0x08000257   Thumb Code     6  fadd.o(.text)
    __aeabi_fmul                             0x0800025d   Thumb Code   100  fmul.o(.text)
    __aeabi_fdiv                             0x080002c1   Thumb Code   124  fdiv.o(.text)
    __aeabi_ddiv                             0x0800033d   Thumb Code   222  ddiv.o(.text)
    __aeabi_i2f                              0x0800041b   Thumb Code    18  fflti.o(.text)
    __aeabi_ui2f                             0x0800042d   Thumb Code    10  ffltui.o(.text)
    __aeabi_i2d                              0x08000437   Thumb Code    34  dflti.o(.text)
    __aeabi_d2iz                             0x08000459   Thumb Code    62  dfixi.o(.text)
    __aeabi_f2d                              0x08000497   Thumb Code    38  f2d.o(.text)
    __aeabi_uidiv                            0x080004bd   Thumb Code     0  uidiv.o(.text)
    __aeabi_uidivmod                         0x080004bd   Thumb Code    44  uidiv.o(.text)
    __aeabi_uldivmod                         0x080004e9   Thumb Code    98  uldiv.o(.text)
    __I$use$fp                               0x0800054b   Thumb Code     0  iusefp.o(.text)
    _float_round                             0x0800054b   Thumb Code    18  fepilogue.o(.text)
    _float_epilogue                          0x0800055d   Thumb Code    92  fepilogue.o(.text)
    _double_round                            0x080005b9   Thumb Code    30  depilogue.o(.text)
    _double_epilogue                         0x080005d7   Thumb Code   156  depilogue.o(.text)
    __aeabi_dadd                             0x08000673   Thumb Code   322  dadd.o(.text)
    __aeabi_dsub                             0x080007b5   Thumb Code     6  dadd.o(.text)
    __aeabi_drsub                            0x080007bb   Thumb Code     6  dadd.o(.text)
    __aeabi_dmul                             0x080007c1   Thumb Code   228  dmul.o(.text)
    __aeabi_d2ulz                            0x080008a5   Thumb Code    48  dfixul.o(.text)
    __aeabi_cdrcmple                         0x080008d5   Thumb Code    48  cdrcmple.o(.text)
    __scatterload                            0x08000905   Thumb Code    28  init.o(.text)
    __scatterload_rt2                        0x08000905   Thumb Code     0  init.o(.text)
    __aeabi_llsl                             0x08000929   Thumb Code    30  llshl.o(.text)
    _ll_shift_l                              0x08000929   Thumb Code     0  llshl.o(.text)
    __aeabi_lasr                             0x08000947   Thumb Code    36  llsshr.o(.text)
    _ll_sshift_r                             0x08000947   Thumb Code     0  llsshr.o(.text)
    BH17h0_Task                              0x0800096d   Thumb Code    36  main.o(.text.BH17h0_Task)
    BusFault_Handler                         0x080009b5   Thumb Code     2  stm32f1xx_it.o(.text.BusFault_Handler)
    CheckCrc8                                0x080009b7   Thumb Code    48  sht30_i2c_drv.o(.text.CheckCrc8)
    DebugMon_Handler                         0x080009e7   Thumb Code     2  stm32f1xx_it.o(.text.DebugMon_Handler)
    Error_Handler                            0x080009e9   Thumb Code     8  main.o(.text.Error_Handler)
    FucCheckCO2Sum                           0x080009f1   Thumb Code    18  jw01co2_uart3_drv.o(.text.FucCheckCO2Sum)
    FucCheckSum                              0x08000a03   Thumb Code    34  zh03b_uart2_drv.o(.text.FucCheckSum)
    GetCO2Value                              0x08000a25   Thumb Code    44  jw01co2_uart3_drv.o(.text.GetCO2Value)
    GetPMValues                              0x08000a61   Thumb Code    48  zh03b_uart2_drv.o(.text.GetPMValues)
    GetRawData                               0x08000aa1   Thumb Code   360  bmp180_i2c_drv.o(.text.GetRawData)
    Get_BH1750_Value                         0x08000c45   Thumb Code    96  bh1750_i2c_drv.o(.text.Get_BH1750_Value)
    HAL_DMA_Abort                            0x08000cad   Thumb Code    62  stm32f1xx_hal_dma.o(.text.HAL_DMA_Abort)
    HAL_DMA_Abort_IT                         0x08000ced   Thumb Code   196  stm32f1xx_hal_dma.o(.text.HAL_DMA_Abort_IT)
    HAL_Delay                                0x08000ddd   Thumb Code    32  stm32f1xx_hal.o(.text.HAL_Delay)
    HAL_GPIO_Init                            0x08000e01   Thumb Code   372  stm32f1xx_hal_gpio.o(.text.HAL_GPIO_Init)
    HAL_GPIO_TogglePin                       0x08000fa5   Thumb Code    16  stm32f1xx_hal_gpio.o(.text.HAL_GPIO_TogglePin)
    HAL_GPIO_WritePin                        0x08000fb5   Thumb Code    10  stm32f1xx_hal_gpio.o(.text.HAL_GPIO_WritePin)
    HAL_GetTick                              0x08000fc1   Thumb Code     8  stm32f1xx_hal.o(.text.HAL_GetTick)
    HAL_I2C_Init                             0x08000fcd   Thumb Code   284  stm32f1xx_hal_i2c.o(.text.HAL_I2C_Init)
    HAL_I2C_Master_Receive                   0x080010fd   Thumb Code   572  stm32f1xx_hal_i2c.o(.text.HAL_I2C_Master_Receive)
    HAL_I2C_Master_Transmit                  0x08001339   Thumb Code   332  stm32f1xx_hal_i2c.o(.text.HAL_I2C_Master_Transmit)
    HAL_I2C_Mem_Read                         0x08001489   Thumb Code   372  stm32f1xx_hal_i2c.o(.text.HAL_I2C_Mem_Read)
    HAL_I2C_Mem_Write                        0x08001601   Thumb Code   232  stm32f1xx_hal_i2c.o(.text.HAL_I2C_Mem_Write)
    HAL_I2C_MspInit                          0x080016f1   Thumb Code   108  i2c.o(.text.HAL_I2C_MspInit)
    HAL_IncTick                              0x08001769   Thumb Code    16  stm32f1xx_hal.o(.text.HAL_IncTick)
    HAL_Init                                 0x0800177d   Thumb Code    32  stm32f1xx_hal.o(.text.HAL_Init)
    HAL_InitTick                             0x0800179d   Thumb Code    56  stm32f1xx_hal.o(.text.HAL_InitTick)
    HAL_MspInit                              0x080017d9   Thumb Code    56  stm32f1xx_hal_msp.o(.text.HAL_MspInit)
    HAL_NVIC_EnableIRQ                       0x08001819   Thumb Code    20  stm32f1xx_hal_cortex.o(.text.HAL_NVIC_EnableIRQ)
    HAL_NVIC_SetPriority                     0x08001831   Thumb Code    56  stm32f1xx_hal_cortex.o(.text.HAL_NVIC_SetPriority)
    HAL_NVIC_SetPriorityGrouping             0x08001869   Thumb Code    24  stm32f1xx_hal_cortex.o(.text.HAL_NVIC_SetPriorityGrouping)
    HAL_RCC_ClockConfig                      0x08001889   Thumb Code   304  stm32f1xx_hal_rcc.o(.text.HAL_RCC_ClockConfig)
    HAL_RCC_GetPCLK1Freq                     0x080019c5   Thumb Code    20  stm32f1xx_hal_rcc.o(.text.HAL_RCC_GetPCLK1Freq)
    HAL_RCC_GetPCLK2Freq                     0x080019d9   Thumb Code    20  stm32f1xx_hal_rcc.o(.text.HAL_RCC_GetPCLK2Freq)
    HAL_RCC_GetSysClockFreq                  0x080019f5   Thumb Code    52  stm32f1xx_hal_rcc.o(.text.HAL_RCC_GetSysClockFreq)
    HAL_RCC_OscConfig                        0x08001a49   Thumb Code   748  stm32f1xx_hal_rcc.o(.text.HAL_RCC_OscConfig)
    HAL_SYSTICK_Config                       0x08001d45   Thumb Code    32  stm32f1xx_hal_cortex.o(.text.HAL_SYSTICK_Config)
    HAL_TIMEx_BreakCallback                  0x08001d6d   Thumb Code     2  stm32f1xx_hal_tim_ex.o(.text.HAL_TIMEx_BreakCallback)
    HAL_TIMEx_CommutCallback                 0x08001d6f   Thumb Code     2  stm32f1xx_hal_tim_ex.o(.text.HAL_TIMEx_CommutCallback)
    HAL_TIMEx_MasterConfigSynchronization    0x08001d71   Thumb Code    96  stm32f1xx_hal_tim_ex.o(.text.HAL_TIMEx_MasterConfigSynchronization)
    HAL_TIM_Base_Init                        0x08001dd1   Thumb Code    30  stm32f1xx_hal_tim.o(.text.HAL_TIM_Base_Init)
    HAL_TIM_Base_MspInit                     0x08001df1   Thumb Code    52  tim.o(.text.HAL_TIM_Base_MspInit)
    HAL_TIM_Base_Start_IT                    0x08001e2d   Thumb Code    88  stm32f1xx_hal_tim.o(.text.HAL_TIM_Base_Start_IT)
    HAL_TIM_IC_CaptureCallback               0x08001e99   Thumb Code     2  stm32f1xx_hal_tim.o(.text.HAL_TIM_IC_CaptureCallback)
    HAL_TIM_IRQHandler                       0x08001e9b   Thumb Code   294  stm32f1xx_hal_tim.o(.text.HAL_TIM_IRQHandler)
    HAL_TIM_OC_DelayElapsedCallback          0x08001fc1   Thumb Code     2  stm32f1xx_hal_tim.o(.text.HAL_TIM_OC_DelayElapsedCallback)
    HAL_TIM_PWM_PulseFinishedCallback        0x08001fc3   Thumb Code     2  stm32f1xx_hal_tim.o(.text.HAL_TIM_PWM_PulseFinishedCallback)
    HAL_TIM_PeriodElapsedCallback            0x08001fc5   Thumb Code    80  main.o(.text.HAL_TIM_PeriodElapsedCallback)
    HAL_TIM_TriggerCallback                  0x08002021   Thumb Code     2  stm32f1xx_hal_tim.o(.text.HAL_TIM_TriggerCallback)
    HAL_UARTEx_RxEventCallback               0x08002023   Thumb Code     2  stm32f1xx_hal_uart.o(.text.HAL_UARTEx_RxEventCallback)
    HAL_UART_ErrorCallback                   0x08002025   Thumb Code     2  stm32f1xx_hal_uart.o(.text.HAL_UART_ErrorCallback)
    HAL_UART_IRQHandler                      0x08002029   Thumb Code   448  stm32f1xx_hal_uart.o(.text.HAL_UART_IRQHandler)
    HAL_UART_Init                            0x080021ed   Thumb Code    44  stm32f1xx_hal_uart.o(.text.HAL_UART_Init)
    HAL_UART_MspInit                         0x08002219   Thumb Code   388  usart.o(.text.HAL_UART_MspInit)
    HAL_UART_Receive_IT                      0x080023b9   Thumb Code    48  stm32f1xx_hal_uart.o(.text.HAL_UART_Receive_IT)
    HAL_UART_RxCpltCallback                  0x080023e9   Thumb Code    64  main.o(.text.HAL_UART_RxCpltCallback)
    HAL_UART_Transmit                        0x08002431   Thumb Code   182  stm32f1xx_hal_uart.o(.text.HAL_UART_Transmit)
    HAL_UART_Transmit_IT                     0x080024e7   Thumb Code    64  stm32f1xx_hal_uart.o(.text.HAL_UART_Transmit_IT)
    HAL_UART_TxCpltCallback                  0x08002527   Thumb Code     2  stm32f1xx_hal_uart.o(.text.HAL_UART_TxCpltCallback)
    HardFault_Handler                        0x08002529   Thumb Code     2  stm32f1xx_it.o(.text.HardFault_Handler)
    MX_GPIO_Init                             0x08002861   Thumb Code   164  gpio.o(.text.MX_GPIO_Init)
    MX_I2C1_Init                             0x0800290d   Thumb Code    24  i2c.o(.text.MX_I2C1_Init)
    MX_I2C2_Init                             0x0800292d   Thumb Code    24  i2c.o(.text.MX_I2C2_Init)
    MX_TIM6_Init                             0x08002951   Thumb Code    60  tim.o(.text.MX_TIM6_Init)
    MX_UART5_Init                            0x08002995   Thumb Code    32  usart.o(.text.MX_UART5_Init)
    MX_USART1_UART_Init                      0x080029bd   Thumb Code    32  usart.o(.text.MX_USART1_UART_Init)
    MX_USART2_UART_Init                      0x080029e5   Thumb Code    32  usart.o(.text.MX_USART2_UART_Init)
    MX_USART3_UART_Init                      0x08002a0d   Thumb Code    32  usart.o(.text.MX_USART3_UART_Init)
    MemManage_Handler                        0x08002a35   Thumb Code     2  stm32f1xx_it.o(.text.MemManage_Handler)
    NMI_Handler                              0x08002a37   Thumb Code     2  stm32f1xx_it.o(.text.NMI_Handler)
    PendSV_Handler                           0x08002e67   Thumb Code     2  stm32f1xx_it.o(.text.PendSV_Handler)
    Reg_Read16                               0x08002e69   Thumb Code    68  bmp180_i2c_drv.o(.text.Reg_Read16)
    Reg_Read32                               0x08002ead   Thumb Code    88  bmp180_i2c_drv.o(.text.Reg_Read32)
    SHT30_Dat_To_Float                       0x08002f09   Thumb Code   100  sht30_i2c_drv.o(.text.SHT30_Dat_To_Float)
    SHT30_Init                               0x08002f7d   Thumb Code     8  sht30_i2c_drv.o(.text.SHT30_Init)
    SHT30_Read_Dat                           0x08002f85   Thumb Code    32  sht30_i2c_drv.o(.text.SHT30_Read_Dat)
    SHT30_Reset                              0x08002fa5   Thumb Code    20  sht30_i2c_drv.o(.text.SHT30_Reset)
    SHT30_Send_Cmd                           0x08002fb9   Thumb Code    32  sht30_i2c_drv.o(.text.SHT30_Send_Cmd)
    SHT30_Task                               0x08002fdd   Thumb Code   104  main.o(.text.SHT30_Task)
    SVC_Handler                              0x080030a1   Thumb Code     2  stm32f1xx_it.o(.text.SVC_Handler)
    SysTick_Handler                          0x080030a3   Thumb Code     4  stm32f1xx_it.o(.text.SysTick_Handler)
    SystemClock_Config                       0x080030a7   Thumb Code   102  main.o(.text.SystemClock_Config)
    SystemInit                               0x0800310d   Thumb Code     2  system_stm32f1xx.o(.text.SystemInit)
    TIM6_IRQHandler                          0x08003111   Thumb Code     8  stm32f1xx_it.o(.text.TIM6_IRQHandler)
    TIM_Base_SetConfig                       0x0800311d   Thumb Code   132  stm32f1xx_hal_tim.o(.text.TIM_Base_SetConfig)
    TestCO2Task                              0x080031b5   Thumb Code    48  main.o(.text.TestCO2Task)
    UART_Start_Receive_IT                    0x08003361   Thumb Code    52  stm32f1xx_hal_uart.o(.text.UART_Start_Receive_IT)
    USART1_IRQHandler                        0x080033ed   Thumb Code     8  stm32f1xx_it.o(.text.USART1_IRQHandler)
    USART2_IRQHandler                        0x080033f5   Thumb Code     8  stm32f1xx_it.o(.text.USART2_IRQHandler)
    USART3_IRQHandler                        0x080033fd   Thumb Code     8  stm32f1xx_it.o(.text.USART3_IRQHandler)
    UsageFault_Handler                       0x08003405   Thumb Code     2  stm32f1xx_it.o(.text.UsageFault_Handler)
    bmp180_get_cal_param                     0x0800342d   Thumb Code    96  bmp180_i2c_drv.o(.text.bmp180_get_cal_param)
    fputc                                    0x08003495   Thumb Code    20  main.o(.text.fputc)
    main                                     0x080034a9   Thumb Code   304  main.o(.text.main)
    testGetPMSensor                          0x08003605   Thumb Code   108  main.o(.text.testGetPMSensor)
    __0printf                                0x080036c5   Thumb Code    22  printfa.o(i.__0printf)
    __1printf                                0x080036c5   Thumb Code     0  printfa.o(i.__0printf)
    __2printf                                0x080036c5   Thumb Code     0  printfa.o(i.__0printf)
    __c89printf                              0x080036c5   Thumb Code     0  printfa.o(i.__0printf)
    printf                                   0x080036c5   Thumb Code     0  printfa.o(i.__0printf)
    __0sprintf                               0x080036e5   Thumb Code    34  printfa.o(i.__0sprintf)
    __1sprintf                               0x080036e5   Thumb Code     0  printfa.o(i.__0sprintf)
    __2sprintf                               0x080036e5   Thumb Code     0  printfa.o(i.__0sprintf)
    __c89sprintf                             0x080036e5   Thumb Code     0  printfa.o(i.__0sprintf)
    sprintf                                  0x080036e5   Thumb Code     0  printfa.o(i.__0sprintf)
    __scatterload_copy                       0x0800370d   Thumb Code    14  handlers.o(i.__scatterload_copy)
    __scatterload_null                       0x0800371b   Thumb Code     2  handlers.o(i.__scatterload_null)
    __scatterload_zeroinit                   0x0800371d   Thumb Code    14  handlers.o(i.__scatterload_zeroinit)
    puts                                     0x08003fe9   Thumb Code    30  puts.o(i.puts)
    AHBPrescTable                            0x0800400c   Data          16  system_stm32f1xx.o(.rodata.AHBPrescTable)
    APBPrescTable                            0x0800401c   Data           8  system_stm32f1xx.o(.rodata.APBPrescTable)
    QueryPM25Message                         0x08004024   Data           9  zh03b_uart2_drv.o(.rodata.QueryPM25Message)
    ResponseMode                             0x0800402d   Data           9  zh03b_uart2_drv.o(.rodata.ResponseMode)
    Region$$Table$$Base                      0x080040c0   Number         0  anon$$obj.o(Region$$Table)
    Region$$Table$$Limit                     0x080040e0   Number         0  anon$$obj.o(Region$$Table)
    __stdout                                 0x20000000   Data           4  stdout.o(.data)
    uwTickFreq                               0x20000004   Data           1  stm32f1xx_hal.o(.data..L_MergedGlobals)
    uwTickPrio                               0x20000008   Data           4  stm32f1xx_hal.o(.data..L_MergedGlobals)
    SystemCoreClock                          0x2000000c   Data           4  system_stm32f1xx.o(.data.SystemCoreClock)
    CO2_RxFlag                               0x20000010   Data           1  main.o(.bss..L_MergedGlobals)
    getSensorFlag                            0x20000011   Data           1  main.o(.bss..L_MergedGlobals)
    PM_RxFlag                                0x20000012   Data           1  main.o(.bss..L_MergedGlobals)
    Lux                                      0x20000014   Data           2  main.o(.bss..L_MergedGlobals)
    CO2                                      0x20000016   Data           2  main.o(.bss..L_MergedGlobals)
    PM25                                     0x20000018   Data           2  main.o(.bss..L_MergedGlobals)
    PM1dot0                                  0x2000001a   Data           2  main.o(.bss..L_MergedGlobals)
    PM10                                     0x2000001c   Data           2  main.o(.bss..L_MergedGlobals)
    pressure                                 0x20000020   Data           4  main.o(.bss..L_MergedGlobals)
    temperature1                             0x20000024   Data           4  main.o(.bss..L_MergedGlobals)
    humidity                                 0x20000028   Data           4  main.o(.bss..L_MergedGlobals)
    recvCO2_buf                              0x2000002c   Data           6  main.o(.bss..L_MergedGlobals)
    recvPM_buf                               0x20000032   Data           9  main.o(.bss..L_MergedGlobals)
    SensorInform                             0x2000003b   Data         200  main.o(.bss.SensorInform)
    Timer6                                   0x20000104   Data           4  timer6.o(.bss.Timer6)
    bmp_param                                0x20000108   Data          22  bmp180_i2c_drv.o(.bss.bmp_param)
    hi2c1                                    0x20000120   Data          84  i2c.o(.bss.hi2c1)
    hi2c2                                    0x20000174   Data          84  i2c.o(.bss.hi2c2)
    htim6                                    0x200001c8   Data          72  tim.o(.bss.htim6)
    huart1                                   0x20000210   Data          68  usart.o(.bss.huart1)
    huart2                                   0x20000254   Data          68  usart.o(.bss.huart2)
    huart3                                   0x20000298   Data          68  usart.o(.bss.huart3)
    huart5                                   0x200002dc   Data          68  usart.o(.bss.huart5)
    uwTick                                   0x20000320   Data           4  stm32f1xx_hal.o(.bss.uwTick)
    __initial_sp                             0x20000728   Data           0  startup_stm32f103xe.o(STACK)



==============================================================================

Memory Map of the image

  Image Entry point : 0x08000131

  Load Region LR_IROM1 (Base: 0x08000000, Size: 0x000040f0, Max: 0x00080000, ABSOLUTE)

    Execution Region ER_IROM1 (Exec base: 0x08000000, Load base: 0x08000000, Size: 0x000040e0, Max: 0x00080000, ABSOLUTE)

    Exec Addr    Load Addr    Size         Type   Attr      Idx    E Section Name        Object

    0x08000000   0x08000000   0x00000130   Data   RO            3    RESET               startup_stm32f103xe.o
    0x08000130   0x08000130   0x00000000   Code   RO         1653  * .ARM.Collect$$$$00000000  mc_w.l(entry.o)
    0x08000130   0x08000130   0x00000004   Code   RO         1943    .ARM.Collect$$$$00000001  mc_w.l(entry2.o)
    0x08000134   0x08000134   0x00000004   Code   RO         1946    .ARM.Collect$$$$00000004  mc_w.l(entry5.o)
    0x08000138   0x08000138   0x00000000   Code   RO         1948    .ARM.Collect$$$$00000008  mc_w.l(entry7b.o)
    0x08000138   0x08000138   0x00000000   Code   RO         1950    .ARM.Collect$$$$0000000A  mc_w.l(entry8b.o)
    0x08000138   0x08000138   0x00000008   Code   RO         1951    .ARM.Collect$$$$0000000B  mc_w.l(entry9a.o)
    0x08000140   0x08000140   0x00000000   Code   RO         1953    .ARM.Collect$$$$0000000D  mc_w.l(entry10a.o)
    0x08000140   0x08000140   0x00000000   Code   RO         1955    .ARM.Collect$$$$0000000F  mc_w.l(entry11a.o)
    0x08000140   0x08000140   0x00000004   Code   RO         1944    .ARM.Collect$$$$00002712  mc_w.l(entry2.o)
    0x08000144   0x08000144   0x00000024   Code   RO            4    .text               startup_stm32f103xe.o
    0x08000168   0x08000168   0x00000020   Code   RO         1660    .text               mc_w.l(llushr.o)
    0x08000188   0x08000188   0x00000024   Code   RO         1662    .text               mc_w.l(memseta.o)
    0x080001ac   0x080001ac   0x000000b0   Code   RO         1925    .text               mf_w.l(fadd.o)
    0x0800025c   0x0800025c   0x00000064   Code   RO         1927    .text               mf_w.l(fmul.o)
    0x080002c0   0x080002c0   0x0000007c   Code   RO         1929    .text               mf_w.l(fdiv.o)
    0x0800033c   0x0800033c   0x000000de   Code   RO         1931    .text               mf_w.l(ddiv.o)
    0x0800041a   0x0800041a   0x00000012   Code   RO         1933    .text               mf_w.l(fflti.o)
    0x0800042c   0x0800042c   0x0000000a   Code   RO         1935    .text               mf_w.l(ffltui.o)
    0x08000436   0x08000436   0x00000022   Code   RO         1937    .text               mf_w.l(dflti.o)
    0x08000458   0x08000458   0x0000003e   Code   RO         1939    .text               mf_w.l(dfixi.o)
    0x08000496   0x08000496   0x00000026   Code   RO         1941    .text               mf_w.l(f2d.o)
    0x080004bc   0x080004bc   0x0000002c   Code   RO         1967    .text               mc_w.l(uidiv.o)
    0x080004e8   0x080004e8   0x00000062   Code   RO         1969    .text               mc_w.l(uldiv.o)
    0x0800054a   0x0800054a   0x00000000   Code   RO         1971    .text               mc_w.l(iusefp.o)
    0x0800054a   0x0800054a   0x0000006e   Code   RO         1972    .text               mf_w.l(fepilogue.o)
    0x080005b8   0x080005b8   0x000000ba   Code   RO         1974    .text               mf_w.l(depilogue.o)
    0x08000672   0x08000672   0x0000014e   Code   RO         1976    .text               mf_w.l(dadd.o)
    0x080007c0   0x080007c0   0x000000e4   Code   RO         1978    .text               mf_w.l(dmul.o)
    0x080008a4   0x080008a4   0x00000030   Code   RO         1980    .text               mf_w.l(dfixul.o)
    0x080008d4   0x080008d4   0x00000030   Code   RO         1982    .text               mf_w.l(cdrcmple.o)
    0x08000904   0x08000904   0x00000024   Code   RO         1984    .text               mc_w.l(init.o)
    0x08000928   0x08000928   0x0000001e   Code   RO         1986    .text               mc_w.l(llshl.o)
    0x08000946   0x08000946   0x00000024   Code   RO         1988    .text               mc_w.l(llsshr.o)
    0x0800096a   0x0800096a   0x00000002   PAD
    0x0800096c   0x0800096c   0x00000048   Code   RO           17    .text.BH17h0_Task   main.o
    0x080009b4   0x080009b4   0x00000002   Code   RO          128    .text.BusFault_Handler  stm32f1xx_it.o
    0x080009b6   0x080009b6   0x00000030   Code   RO         1576    .text.CheckCrc8     sht30_i2c_drv.o
    0x080009e6   0x080009e6   0x00000002   Code   RO          134    .text.DebugMon_Handler  stm32f1xx_it.o
    0x080009e8   0x080009e8   0x00000008   Code   RO           23    .text.Error_Handler  main.o
    0x080009f0   0x080009f0   0x00000012   Code   RO         1636    .text.FucCheckCO2Sum  jw01co2_uart3_drv.o
    0x08000a02   0x08000a02   0x00000022   Code   RO         1621    .text.FucCheckSum   zh03b_uart2_drv.o
    0x08000a24   0x08000a24   0x0000003c   Code   RO         1638    .text.GetCO2Value   jw01co2_uart3_drv.o
    0x08000a60   0x08000a60   0x00000040   Code   RO         1623    .text.GetPMValues   zh03b_uart2_drv.o
    0x08000aa0   0x08000aa0   0x000001a4   Code   RO         1604    .text.GetRawData    bmp180_i2c_drv.o
    0x08000c44   0x08000c44   0x00000068   Code   RO         1588    .text.Get_BH1750_Value  bh1750_i2c_drv.o
    0x08000cac   0x08000cac   0x0000003e   Code   RO          642    .text.HAL_DMA_Abort  stm32f1xx_hal_dma.o
    0x08000cea   0x08000cea   0x00000002   PAD
    0x08000cec   0x08000cec   0x000000f0   Code   RO          644    .text.HAL_DMA_Abort_IT  stm32f1xx_hal_dma.o
    0x08000ddc   0x08000ddc   0x00000024   Code   RO          508    .text.HAL_Delay     stm32f1xx_hal.o
    0x08000e00   0x08000e00   0x000001a4   Code   RO          608    .text.HAL_GPIO_Init  stm32f1xx_hal_gpio.o
    0x08000fa4   0x08000fa4   0x00000010   Code   RO          616    .text.HAL_GPIO_TogglePin  stm32f1xx_hal_gpio.o
    0x08000fb4   0x08000fb4   0x0000000a   Code   RO          614    .text.HAL_GPIO_WritePin  stm32f1xx_hal_gpio.o
    0x08000fbe   0x08000fbe   0x00000002   PAD
    0x08000fc0   0x08000fc0   0x0000000c   Code   RO          500    .text.HAL_GetTick   stm32f1xx_hal.o
    0x08000fcc   0x08000fcc   0x00000130   Code   RO          178    .text.HAL_I2C_Init  stm32f1xx_hal_i2c.o
    0x080010fc   0x080010fc   0x0000023c   Code   RO          194    .text.HAL_I2C_Master_Receive  stm32f1xx_hal_i2c.o
    0x08001338   0x08001338   0x00000150   Code   RO          186    .text.HAL_I2C_Master_Transmit  stm32f1xx_hal_i2c.o
    0x08001488   0x08001488   0x00000178   Code   RO          226    .text.HAL_I2C_Mem_Read  stm32f1xx_hal_i2c.o
    0x08001600   0x08001600   0x000000f0   Code   RO          222    .text.HAL_I2C_Mem_Write  stm32f1xx_hal_i2c.o
    0x080016f0   0x080016f0   0x00000078   Code   RO           57    .text.HAL_I2C_MspInit  i2c.o
    0x08001768   0x08001768   0x00000014   Code   RO          498    .text.HAL_IncTick   stm32f1xx_hal.o
    0x0800177c   0x0800177c   0x00000020   Code   RO          488    .text.HAL_Init      stm32f1xx_hal.o
    0x0800179c   0x0800179c   0x0000003c   Code   RO          490    .text.HAL_InitTick  stm32f1xx_hal.o
    0x080017d8   0x080017d8   0x00000040   Code   RO          155    .text.HAL_MspInit   stm32f1xx_hal_msp.o
    0x08001818   0x08001818   0x00000018   Code   RO          672    .text.HAL_NVIC_EnableIRQ  stm32f1xx_hal_cortex.o
    0x08001830   0x08001830   0x00000038   Code   RO          668    .text.HAL_NVIC_SetPriority  stm32f1xx_hal_cortex.o
    0x08001868   0x08001868   0x00000020   Code   RO          666    .text.HAL_NVIC_SetPriorityGrouping  stm32f1xx_hal_cortex.o
    0x08001888   0x08001888   0x0000013c   Code   RO          556    .text.HAL_RCC_ClockConfig  stm32f1xx_hal_rcc.o
    0x080019c4   0x080019c4   0x00000014   Code   RO          568    .text.HAL_RCC_GetPCLK1Freq  stm32f1xx_hal_rcc.o
    0x080019d8   0x080019d8   0x0000001c   Code   RO          570    .text.HAL_RCC_GetPCLK2Freq  stm32f1xx_hal_rcc.o
    0x080019f4   0x080019f4   0x00000054   Code   RO          558    .text.HAL_RCC_GetSysClockFreq  stm32f1xx_hal_rcc.o
    0x08001a48   0x08001a48   0x000002fc   Code   RO          554    .text.HAL_RCC_OscConfig  stm32f1xx_hal_rcc.o
    0x08001d44   0x08001d44   0x00000028   Code   RO          680    .text.HAL_SYSTICK_Config  stm32f1xx_hal_cortex.o
    0x08001d6c   0x08001d6c   0x00000002   Code   RO         1303    .text.HAL_TIMEx_BreakCallback  stm32f1xx_hal_tim_ex.o
    0x08001d6e   0x08001d6e   0x00000002   Code   RO         1299    .text.HAL_TIMEx_CommutCallback  stm32f1xx_hal_tim_ex.o
    0x08001d70   0x08001d70   0x00000060   Code   RO         1293    .text.HAL_TIMEx_MasterConfigSynchronization  stm32f1xx_hal_tim_ex.o
    0x08001dd0   0x08001dd0   0x0000001e   Code   RO          849    .text.HAL_TIM_Base_Init  stm32f1xx_hal_tim.o
    0x08001dee   0x08001dee   0x00000002   PAD
    0x08001df0   0x08001df0   0x0000003c   Code   RO           77    .text.HAL_TIM_Base_MspInit  tim.o
    0x08001e2c   0x08001e2c   0x0000006c   Code   RO          863    .text.HAL_TIM_Base_Start_IT  stm32f1xx_hal_tim.o
    0x08001e98   0x08001e98   0x00000002   Code   RO          985    .text.HAL_TIM_IC_CaptureCallback  stm32f1xx_hal_tim.o
    0x08001e9a   0x08001e9a   0x00000126   Code   RO          983    .text.HAL_TIM_IRQHandler  stm32f1xx_hal_tim.o
    0x08001fc0   0x08001fc0   0x00000002   Code   RO          987    .text.HAL_TIM_OC_DelayElapsedCallback  stm32f1xx_hal_tim.o
    0x08001fc2   0x08001fc2   0x00000002   Code   RO          989    .text.HAL_TIM_PWM_PulseFinishedCallback  stm32f1xx_hal_tim.o
    0x08001fc4   0x08001fc4   0x0000005c   Code   RO           29    .text.HAL_TIM_PeriodElapsedCallback  main.o
    0x08002020   0x08002020   0x00000002   Code   RO          993    .text.HAL_TIM_TriggerCallback  stm32f1xx_hal_tim.o
    0x08002022   0x08002022   0x00000002   Code   RO         1473    .text.HAL_UARTEx_RxEventCallback  stm32f1xx_hal_uart.o
    0x08002024   0x08002024   0x00000002   Code   RO         1471    .text.HAL_UART_ErrorCallback  stm32f1xx_hal_uart.o
    0x08002026   0x08002026   0x00000002   PAD
    0x08002028   0x08002028   0x000001c4   Code   RO         1465    .text.HAL_UART_IRQHandler  stm32f1xx_hal_uart.o
    0x080021ec   0x080021ec   0x0000002c   Code   RO         1385    .text.HAL_UART_Init  stm32f1xx_hal_uart.o
    0x08002218   0x08002218   0x000001a0   Code   RO           98    .text.HAL_UART_MspInit  usart.o
    0x080023b8   0x080023b8   0x00000030   Code   RO         1409    .text.HAL_UART_Receive_IT  stm32f1xx_hal_uart.o
    0x080023e8   0x080023e8   0x00000048   Code   RO           27    .text.HAL_UART_RxCpltCallback  main.o
    0x08002430   0x08002430   0x000000b6   Code   RO         1401    .text.HAL_UART_Transmit  stm32f1xx_hal_uart.o
    0x080024e6   0x080024e6   0x00000040   Code   RO         1407    .text.HAL_UART_Transmit_IT  stm32f1xx_hal_uart.o
    0x08002526   0x08002526   0x00000002   Code   RO         1475    .text.HAL_UART_TxCpltCallback  stm32f1xx_hal_uart.o
    0x08002528   0x08002528   0x00000002   Code   RO          124    .text.HardFault_Handler  stm32f1xx_it.o
    0x0800252a   0x0800252a   0x00000030   Code   RO          300    .text.I2C_IsAcknowledgeFailed  stm32f1xx_hal_i2c.o
    0x0800255a   0x0800255a   0x00000002   PAD
    0x0800255c   0x0800255c   0x000000c8   Code   RO          228    .text.I2C_RequestMemoryRead  stm32f1xx_hal_i2c.o
    0x08002624   0x08002624   0x000000ac   Code   RO          224    .text.I2C_RequestMemoryWrite  stm32f1xx_hal_i2c.o
    0x080026d0   0x080026d0   0x00000038   Code   RO          192    .text.I2C_WaitOnBTFFlagUntilTimeout  stm32f1xx_hal_i2c.o
    0x08002708   0x08002708   0x00000074   Code   RO          188    .text.I2C_WaitOnFlagUntilTimeout  stm32f1xx_hal_i2c.o
    0x0800277c   0x0800277c   0x00000066   Code   RO          298    .text.I2C_WaitOnMasterAddressFlagUntilTimeout  stm32f1xx_hal_i2c.o
    0x080027e2   0x080027e2   0x00000046   Code   RO          196    .text.I2C_WaitOnRXNEFlagUntilTimeout  stm32f1xx_hal_i2c.o
    0x08002828   0x08002828   0x00000038   Code   RO          190    .text.I2C_WaitOnTXEFlagUntilTimeout  stm32f1xx_hal_i2c.o
    0x08002860   0x08002860   0x000000ac   Code   RO           44    .text.MX_GPIO_Init  gpio.o
    0x0800290c   0x0800290c   0x00000020   Code   RO           53    .text.MX_I2C1_Init  i2c.o
    0x0800292c   0x0800292c   0x00000024   Code   RO           55    .text.MX_I2C2_Init  i2c.o
    0x08002950   0x08002950   0x00000044   Code   RO           75    .text.MX_TIM6_Init  tim.o
    0x08002994   0x08002994   0x00000028   Code   RO           90    .text.MX_UART5_Init  usart.o
    0x080029bc   0x080029bc   0x00000028   Code   RO           92    .text.MX_USART1_UART_Init  usart.o
    0x080029e4   0x080029e4   0x00000028   Code   RO           94    .text.MX_USART2_UART_Init  usart.o
    0x08002a0c   0x08002a0c   0x00000028   Code   RO           96    .text.MX_USART3_UART_Init  usart.o
    0x08002a34   0x08002a34   0x00000002   Code   RO          126    .text.MemManage_Handler  stm32f1xx_it.o
    0x08002a36   0x08002a36   0x00000002   Code   RO          122    .text.NMI_Handler   stm32f1xx_it.o
    0x08002a38   0x08002a38   0x0000001c   Code   RO           61    .text.OUTLINED_FUNCTION_0  i2c.o
    0x08002a54   0x08002a54   0x00000014   Code   RO          102    .text.OUTLINED_FUNCTION_0  usart.o
    0x08002a68   0x08002a68   0x00000010   Code   RO          580    .text.OUTLINED_FUNCTION_0  stm32f1xx_hal_rcc.o
    0x08002a78   0x08002a78   0x00000016   Code   RO         1501    .text.OUTLINED_FUNCTION_0  stm32f1xx_hal_uart.o
    0x08002a8e   0x08002a8e   0x0000000e   Code   RO         1606    .text.OUTLINED_FUNCTION_0  bmp180_i2c_drv.o
    0x08002a9c   0x08002a9c   0x0000001a   Code   RO           63    .text.OUTLINED_FUNCTION_1  i2c.o
    0x08002ab6   0x08002ab6   0x0000001e   Code   RO          104    .text.OUTLINED_FUNCTION_1  usart.o
    0x08002ad4   0x08002ad4   0x00000010   Code   RO          582    .text.OUTLINED_FUNCTION_1  stm32f1xx_hal_rcc.o
    0x08002ae4   0x08002ae4   0x0000000e   Code   RO          702    .text.OUTLINED_FUNCTION_1  stm32f1xx_hal_cortex.o
    0x08002af2   0x08002af2   0x0000002e   Code   RO         1083    .text.OUTLINED_FUNCTION_1  stm32f1xx_hal_tim.o
    0x08002b20   0x08002b20   0x0000000c   Code   RO         1503    .text.OUTLINED_FUNCTION_1  stm32f1xx_hal_uart.o
    0x08002b2c   0x08002b2c   0x0000000a   Code   RO          322    .text.OUTLINED_FUNCTION_10  stm32f1xx_hal_i2c.o
    0x08002b36   0x08002b36   0x00000010   Code   RO          324    .text.OUTLINED_FUNCTION_11  stm32f1xx_hal_i2c.o
    0x08002b46   0x08002b46   0x0000000a   Code   RO         1103    .text.OUTLINED_FUNCTION_11  stm32f1xx_hal_tim.o
    0x08002b50   0x08002b50   0x00000012   Code   RO          326    .text.OUTLINED_FUNCTION_12  stm32f1xx_hal_i2c.o
    0x08002b62   0x08002b62   0x00000012   Code   RO         1525    .text.OUTLINED_FUNCTION_12  stm32f1xx_hal_uart.o
    0x08002b74   0x08002b74   0x00000026   Code   RO          328    .text.OUTLINED_FUNCTION_13  stm32f1xx_hal_i2c.o
    0x08002b9a   0x08002b9a   0x0000000e   Code   RO          332    .text.OUTLINED_FUNCTION_15  stm32f1xx_hal_i2c.o
    0x08002ba8   0x08002ba8   0x00000008   Code   RO          334    .text.OUTLINED_FUNCTION_16  stm32f1xx_hal_i2c.o
    0x08002bb0   0x08002bb0   0x00000024   Code   RO          336    .text.OUTLINED_FUNCTION_17  stm32f1xx_hal_i2c.o
    0x08002bd4   0x08002bd4   0x00000014   Code   RO          338    .text.OUTLINED_FUNCTION_18  stm32f1xx_hal_i2c.o
    0x08002be8   0x08002be8   0x00000008   Code   RO          340    .text.OUTLINED_FUNCTION_19  stm32f1xx_hal_i2c.o
    0x08002bf0   0x08002bf0   0x00000008   Code   RO          106    .text.OUTLINED_FUNCTION_2  usart.o
    0x08002bf8   0x08002bf8   0x0000000a   Code   RO          584    .text.OUTLINED_FUNCTION_2  stm32f1xx_hal_rcc.o
    0x08002c02   0x08002c02   0x0000001a   Code   RO         1505    .text.OUTLINED_FUNCTION_2  stm32f1xx_hal_uart.o
    0x08002c1c   0x08002c1c   0x00000020   Code   RO          342    .text.OUTLINED_FUNCTION_20  stm32f1xx_hal_i2c.o
    0x08002c3c   0x08002c3c   0x00000012   Code   RO         1543    .text.OUTLINED_FUNCTION_21  stm32f1xx_hal_uart.o
    0x08002c4e   0x08002c4e   0x0000000a   Code   RO         1129    .text.OUTLINED_FUNCTION_24  stm32f1xx_hal_tim.o
    0x08002c58   0x08002c58   0x00000008   Code   RO          352    .text.OUTLINED_FUNCTION_25  stm32f1xx_hal_i2c.o
    0x08002c60   0x08002c60   0x0000000a   Code   RO          360    .text.OUTLINED_FUNCTION_29  stm32f1xx_hal_i2c.o
    0x08002c6a   0x08002c6a   0x00000014   Code   RO         1139    .text.OUTLINED_FUNCTION_29  stm32f1xx_hal_tim.o
    0x08002c7e   0x08002c7e   0x0000000e   Code   RO          108    .text.OUTLINED_FUNCTION_3  usart.o
    0x08002c8c   0x08002c8c   0x0000001a   Code   RO          308    .text.OUTLINED_FUNCTION_3  stm32f1xx_hal_i2c.o
    0x08002ca6   0x08002ca6   0x0000000e   Code   RO         1507    .text.OUTLINED_FUNCTION_3  stm32f1xx_hal_uart.o
    0x08002cb4   0x08002cb4   0x00000016   Code   RO          362    .text.OUTLINED_FUNCTION_30  stm32f1xx_hal_i2c.o
    0x08002cca   0x08002cca   0x0000001a   Code   RO          364    .text.OUTLINED_FUNCTION_31  stm32f1xx_hal_i2c.o
    0x08002ce4   0x08002ce4   0x0000000a   Code   RO          366    .text.OUTLINED_FUNCTION_32  stm32f1xx_hal_i2c.o
    0x08002cee   0x08002cee   0x00000018   Code   RO          374    .text.OUTLINED_FUNCTION_36  stm32f1xx_hal_i2c.o
    0x08002d06   0x08002d06   0x00000008   Code   RO          380    .text.OUTLINED_FUNCTION_39  stm32f1xx_hal_i2c.o
    0x08002d0e   0x08002d0e   0x00000016   Code   RO          382    .text.OUTLINED_FUNCTION_40  stm32f1xx_hal_i2c.o
    0x08002d24   0x08002d24   0x0000000a   Code   RO          388    .text.OUTLINED_FUNCTION_43  stm32f1xx_hal_i2c.o
    0x08002d2e   0x08002d2e   0x0000000e   Code   RO          392    .text.OUTLINED_FUNCTION_45  stm32f1xx_hal_i2c.o
    0x08002d3c   0x08002d3c   0x0000000a   Code   RO         1171    .text.OUTLINED_FUNCTION_45  stm32f1xx_hal_tim.o
    0x08002d46   0x08002d46   0x0000000a   Code   RO          394    .text.OUTLINED_FUNCTION_46  stm32f1xx_hal_i2c.o
    0x08002d50   0x08002d50   0x00000014   Code   RO          396    .text.OUTLINED_FUNCTION_47  stm32f1xx_hal_i2c.o
    0x08002d64   0x08002d64   0x00000006   Code   RO         1177    .text.OUTLINED_FUNCTION_48  stm32f1xx_hal_tim.o
    0x08002d6a   0x08002d6a   0x0000000a   Code   RO          408    .text.OUTLINED_FUNCTION_53  stm32f1xx_hal_i2c.o
    0x08002d74   0x08002d74   0x0000001c   Code   RO          314    .text.OUTLINED_FUNCTION_6  stm32f1xx_hal_i2c.o
    0x08002d90   0x08002d90   0x00000012   Code   RO          426    .text.OUTLINED_FUNCTION_62  stm32f1xx_hal_i2c.o
    0x08002da2   0x08002da2   0x00000012   Code   RO          432    .text.OUTLINED_FUNCTION_65  stm32f1xx_hal_i2c.o
    0x08002db4   0x08002db4   0x00000010   Code   RO          436    .text.OUTLINED_FUNCTION_67  stm32f1xx_hal_i2c.o
    0x08002dc4   0x08002dc4   0x00000010   Code   RO          438    .text.OUTLINED_FUNCTION_68  stm32f1xx_hal_i2c.o
    0x08002dd4   0x08002dd4   0x0000000c   Code   RO          440    .text.OUTLINED_FUNCTION_69  stm32f1xx_hal_i2c.o
    0x08002de0   0x08002de0   0x0000001a   Code   RO          318    .text.OUTLINED_FUNCTION_8  stm32f1xx_hal_i2c.o
    0x08002dfa   0x08002dfa   0x0000000e   Code   RO         1097    .text.OUTLINED_FUNCTION_8  stm32f1xx_hal_tim.o
    0x08002e08   0x08002e08   0x0000001c   Code   RO         1517    .text.OUTLINED_FUNCTION_8  stm32f1xx_hal_uart.o
    0x08002e24   0x08002e24   0x0000000e   Code   RO          464    .text.OUTLINED_FUNCTION_81  stm32f1xx_hal_i2c.o
    0x08002e32   0x08002e32   0x0000000a   Code   RO          470    .text.OUTLINED_FUNCTION_84  stm32f1xx_hal_i2c.o
    0x08002e3c   0x08002e3c   0x0000000e   Code   RO          472    .text.OUTLINED_FUNCTION_85  stm32f1xx_hal_i2c.o
    0x08002e4a   0x08002e4a   0x00000008   Code   RO          476    .text.OUTLINED_FUNCTION_87  stm32f1xx_hal_i2c.o
    0x08002e52   0x08002e52   0x0000000a   Code   RO          320    .text.OUTLINED_FUNCTION_9  stm32f1xx_hal_i2c.o
    0x08002e5c   0x08002e5c   0x0000000a   Code   RO         1099    .text.OUTLINED_FUNCTION_9  stm32f1xx_hal_tim.o
    0x08002e66   0x08002e66   0x00000002   Code   RO          136    .text.PendSV_Handler  stm32f1xx_it.o
    0x08002e68   0x08002e68   0x00000044   Code   RO         1598    .text.Reg_Read16    bmp180_i2c_drv.o
    0x08002eac   0x08002eac   0x0000005c   Code   RO         1600    .text.Reg_Read32    bmp180_i2c_drv.o
    0x08002f08   0x08002f08   0x00000074   Code   RO         1578    .text.SHT30_Dat_To_Float  sht30_i2c_drv.o
    0x08002f7c   0x08002f7c   0x00000008   Code   RO         1572    .text.SHT30_Init    sht30_i2c_drv.o
    0x08002f84   0x08002f84   0x00000020   Code   RO         1574    .text.SHT30_Read_Dat  sht30_i2c_drv.o
    0x08002fa4   0x08002fa4   0x00000014   Code   RO         1570    .text.SHT30_Reset   sht30_i2c_drv.o
    0x08002fb8   0x08002fb8   0x00000024   Code   RO         1568    .text.SHT30_Send_Cmd  sht30_i2c_drv.o
    0x08002fdc   0x08002fdc   0x000000c4   Code   RO           15    .text.SHT30_Task    main.o
    0x080030a0   0x080030a0   0x00000002   Code   RO          132    .text.SVC_Handler   stm32f1xx_it.o
    0x080030a2   0x080030a2   0x00000004   Code   RO          138    .text.SysTick_Handler  stm32f1xx_it.o
    0x080030a6   0x080030a6   0x00000066   Code   RO           13    .text.SystemClock_Config  main.o
    0x0800310c   0x0800310c   0x00000002   Code   RO         1553    .text.SystemInit    system_stm32f1xx.o
    0x0800310e   0x0800310e   0x00000002   PAD
    0x08003110   0x08003110   0x0000000c   Code   RO          146    .text.TIM6_IRQHandler  stm32f1xx_it.o
    0x0800311c   0x0800311c   0x00000098   Code   RO          853    .text.TIM_Base_SetConfig  stm32f1xx_hal_tim.o
    0x080031b4   0x080031b4   0x00000048   Code   RO           19    .text.TestCO2Task   main.o
    0x080031fc   0x080031fc   0x0000000c   Code   RO         1469    .text.UART_DMAAbortOnError  stm32f1xx_hal_uart.o
    0x08003208   0x08003208   0x00000024   Code   RO         1431    .text.UART_EndRxTransfer  stm32f1xx_hal_uart.o
    0x0800322c   0x0800322c   0x000000b4   Code   RO         1467    .text.UART_Receive_IT  stm32f1xx_hal_uart.o
    0x080032e0   0x080032e0   0x00000080   Code   RO         1389    .text.UART_SetConfig  stm32f1xx_hal_uart.o
    0x08003360   0x08003360   0x00000034   Code   RO         1411    .text.UART_Start_Receive_IT  stm32f1xx_hal_uart.o
    0x08003394   0x08003394   0x00000058   Code   RO         1403    .text.UART_WaitOnFlagUntilTimeout  stm32f1xx_hal_uart.o
    0x080033ec   0x080033ec   0x00000008   Code   RO          140    .text.USART1_IRQHandler  stm32f1xx_it.o
    0x080033f4   0x080033f4   0x00000008   Code   RO          142    .text.USART2_IRQHandler  stm32f1xx_it.o
    0x080033fc   0x080033fc   0x00000008   Code   RO          144    .text.USART3_IRQHandler  stm32f1xx_it.o
    0x08003404   0x08003404   0x00000002   Code   RO          130    .text.UsageFault_Handler  stm32f1xx_it.o
    0x08003406   0x08003406   0x00000002   PAD
    0x08003408   0x08003408   0x00000024   Code   RO          670    .text.__NVIC_SetPriority  stm32f1xx_hal_cortex.o
    0x0800342c   0x0800342c   0x00000068   Code   RO         1602    .text.bmp180_get_cal_param  bmp180_i2c_drv.o
    0x08003494   0x08003494   0x00000014   Code   RO           25    .text.fputc         main.o
    0x080034a8   0x080034a8   0x0000015c   Code   RO           11    .text.main          main.o
    0x08003604   0x08003604   0x000000c0   Code   RO           21    .text.testGetPMSensor  main.o
    0x080036c4   0x080036c4   0x00000020   Code   RO         1897    i.__0printf         mc_w.l(printfa.o)
    0x080036e4   0x080036e4   0x00000028   Code   RO         1899    i.__0sprintf        mc_w.l(printfa.o)
    0x0800370c   0x0800370c   0x0000000e   Code   RO         1992    i.__scatterload_copy  mc_w.l(handlers.o)
    0x0800371a   0x0800371a   0x00000002   Code   RO         1993    i.__scatterload_null  mc_w.l(handlers.o)
    0x0800371c   0x0800371c   0x0000000e   Code   RO         1994    i.__scatterload_zeroinit  mc_w.l(handlers.o)
    0x0800372a   0x0800372a   0x00000002   PAD
    0x0800372c   0x0800372c   0x00000184   Code   RO         1904    i._fp_digits        mc_w.l(printfa.o)
    0x080038b0   0x080038b0   0x000006dc   Code   RO         1905    i._printf_core      mc_w.l(printfa.o)
    0x08003f8c   0x08003f8c   0x00000024   Code   RO         1906    i._printf_post_padding  mc_w.l(printfa.o)
    0x08003fb0   0x08003fb0   0x0000002e   Code   RO         1907    i._printf_pre_padding  mc_w.l(printfa.o)
    0x08003fde   0x08003fde   0x0000000a   Code   RO         1909    i._sputc            mc_w.l(printfa.o)
    0x08003fe8   0x08003fe8   0x00000024   Code   RO         1656    i.puts              mc_w.l(puts.o)
    0x0800400c   0x0800400c   0x00000010   Data   RO         1558    .rodata.AHBPrescTable  system_stm32f1xx.o
    0x0800401c   0x0800401c   0x00000008   Data   RO         1559    .rodata.APBPrescTable  system_stm32f1xx.o
    0x08004024   0x08004024   0x00000009   Data   RO         1627    .rodata.QueryPM25Message  zh03b_uart2_drv.o
    0x0800402d   0x0800402d   0x00000009   Data   RO         1626    .rodata.ResponseMode  zh03b_uart2_drv.o
    0x08004036   0x08004036   0x00000087   Data   RO           32    .rodata.str1.1      main.o
    0x080040bd   0x080040bd   0x00000003   PAD
    0x080040c0   0x080040c0   0x00000020   Data   RO         1991    Region$$Table       anon$$obj.o


    Execution Region RW_IRAM1 (Exec base: 0x20000000, Load base: 0x080040e0, Size: 0x00000728, Max: 0x00010000, ABSOLUTE)

    Exec Addr    Load Addr    Size         Type   Attr      Idx    E Section Name        Object

    0x20000000   0x080040e0   0x00000004   Data   RW         1957    .data               mc_w.l(stdout.o)
    0x20000004   0x080040e4   0x00000008   Data   RW          543    .data..L_MergedGlobals  stm32f1xx_hal.o
    0x2000000c   0x080040ec   0x00000004   Data   RW         1557    .data.SystemCoreClock  system_stm32f1xx.o
    0x20000010        -       0x0000002b   Zero   RW           35    .bss..L_MergedGlobals  main.o
    0x2000003b        -       0x000000c8   Zero   RW           31    .bss.SensorInform   main.o
    0x20000103   0x080040f0   0x00000001   PAD
    0x20000104        -       0x00000004   Zero   RW         1648    .bss.Timer6         timer6.o
    0x20000108        -       0x00000016   Zero   RW         1612    .bss.bmp_param      bmp180_i2c_drv.o
    0x2000011e   0x080040f0   0x00000002   PAD
    0x20000120        -       0x00000054   Zero   RW           65    .bss.hi2c1          i2c.o
    0x20000174        -       0x00000054   Zero   RW           66    .bss.hi2c2          i2c.o
    0x200001c8        -       0x00000048   Zero   RW           81    .bss.htim6          tim.o
    0x20000210        -       0x00000044   Zero   RW          111    .bss.huart1         usart.o
    0x20000254        -       0x00000044   Zero   RW          112    .bss.huart2         usart.o
    0x20000298        -       0x00000044   Zero   RW          113    .bss.huart3         usart.o
    0x200002dc        -       0x00000044   Zero   RW          110    .bss.huart5         usart.o
    0x20000320        -       0x00000004   Zero   RW          542    .bss.uwTick         stm32f1xx_hal.o
    0x20000324   0x080040f0   0x00000004   PAD
    0x20000328        -       0x00000400   Zero   RW            1    STACK               startup_stm32f103xe.o


==============================================================================

Image component sizes


      Code (inc. data)   RO Data    RW Data    ZI Data      Debug   Object Name

       104          8          0          0          0       1538   bh1750_i2c_drv.o
       698         72          0          0         22       3136   bmp180_i2c_drv.o
       172          8          0          0          0       1522   gpio.o
       242         32          0          0        168       4621   i2c.o
        78         16          0          0          0       1059   jw01co2_uart3_drv.o
      1174        300        135          0        243       8076   main.o
       260         20          0          0          0       2730   sht30_i2c_drv.o
        36          8        304          0       1024        764   startup_stm32f103xe.o
       160         16          0          8          4       6207   stm32f1xx_hal.o
       202         28          0          0          0       8603   stm32f1xx_hal_cortex.o
       302         44          0          0          0       7917   stm32f1xx_hal_dma.o
       446         52          0          0          0       4473   stm32f1xx_hal_gpio.o
      3258         40          0          0          0      41884   stm32f1xx_hal_i2c.o
        64          8          0          0          0       1175   stm32f1xx_hal_msp.o
      1254         68          0          0          0       7343   stm32f1xx_hal_rcc.o
       718         40          0          0          0      45968   stm32f1xx_hal_tim.o
       100          0          0          0          0      19553   stm32f1xx_hal_tim_ex.o
      1430          8          0          0          0      21368   stm32f1xx_hal_uart.o
        56          4          0          0          0       1340   stm32f1xx_it.o
         2          0         24          4          0       1552   system_stm32f1xx.o
       128         16          0          0         72       5731   tim.o
         0          0          0          0          4        503   timer6.o
       648         60          0          0        272       6923   usart.o
        98         16         18          0          0       1468   zh03b_uart2_drv.o

    ----------------------------------------------------------------------
     11644        864        516         12       1816     205454   Object Totals
         0          0         32          0          0          0   (incl. Generated)
        14          0          3          0          7          0   (incl. Padding)

    ----------------------------------------------------------------------

      Code (inc. data)   RO Data    RW Data    ZI Data      Debug   Library Member Name

         0          0          0          0          0          0   entry.o
         0          0          0          0          0          0   entry10a.o
         0          0          0          0          0          0   entry11a.o
         8          4          0          0          0          0   entry2.o
         4          0          0          0          0          0   entry5.o
         0          0          0          0          0          0   entry7b.o
         0          0          0          0          0          0   entry8b.o
         8          4          0          0          0          0   entry9a.o
        30          0          0          0          0          0   handlers.o
        36          8          0          0          0         68   init.o
         0          0          0          0          0          0   iusefp.o
        30          0          0          0          0         68   llshl.o
        36          0          0          0          0         68   llsshr.o
        32          0          0          0          0         68   llushr.o
        36          0          0          0          0        108   memseta.o
      2308         96          0          0          0        604   printfa.o
        36          6          0          0          0         80   puts.o
         0          0          0          4          0          0   stdout.o
        44          0          0          0          0         80   uidiv.o
        98          0          0          0          0         92   uldiv.o
        48          0          0          0          0         68   cdrcmple.o
       334          0          0          0          0        148   dadd.o
       222          0          0          0          0        100   ddiv.o
       186          0          0          0          0        176   depilogue.o
        62          0          0          0          0         80   dfixi.o
        48          0          0          0          0         68   dfixul.o
        34          0          0          0          0         76   dflti.o
       228          0          0          0          0         96   dmul.o
        38          0          0          0          0         68   f2d.o
       176          0          0          0          0        140   fadd.o
       124          0          0          0          0         88   fdiv.o
       110          0          0          0          0        168   fepilogue.o
        18          0          0          0          0         68   fflti.o
        10          0          0          0          0         68   ffltui.o
       100          0          0          0          0         76   fmul.o

    ----------------------------------------------------------------------
      4448        118          0          4          0       2724   Library Totals
         4          0          0          0          0          0   (incl. Padding)

    ----------------------------------------------------------------------

      Code (inc. data)   RO Data    RW Data    ZI Data      Debug   Library Name

      2706        118          0          4          0       1236   mc_w.l
      1738          0          0          0          0       1488   mf_w.l

    ----------------------------------------------------------------------
      4448        118          0          4          0       2724   Library Totals

    ----------------------------------------------------------------------

==============================================================================


      Code (inc. data)   RO Data    RW Data    ZI Data      Debug   

     16092        982        516         16       1816     206590   Grand Totals
     16092        982        516         16       1816     206590   ELF Image Totals
     16092        982        516         16          0          0   ROM Totals

==============================================================================

    Total RO  Size (Code + RO Data)                16608 (  16.22kB)
    Total RW  Size (RW Data + ZI Data)              1832 (   1.79kB)
    Total ROM Size (Code + RO Data + RW Data)      16624 (  16.23kB)

==============================================================================

